:020000040000fa
:10000000f0ff032051030000c5060000c7060000f2
:10001000cb060000cd060000cf0600000000000067
:10002000000000000000000000000000c306000007
:10003000c906000000000000c3060000c30600005f
:10004000c3060000c3060000c3060000c30600008c
:10005000c3060000c3060000c3060000c30600007c
:10006000c3060000c3060000c3060000c30600006c
:10007000c3060000c306000055060000c3060000ca
:10008000c3060000c3060000c3060000c30600004c
:10009000c3060000c3060000c3060000c30600003c
:1000a000c3060000c3060000c3060000c30600002c
:1000b000c3060000c3060000c3060000c30600001c
:1000c000c3060000c3060000c3060000c30600000c
:1000d000c3060000c3060000c3060000c3060000fc
:1000e000c3060000c306000000000000000000007e
:1000f00000000000c3060000c3060000c3060000a5
:10010000c3060000c3060000c3060000c3060000cb
:10011000c3060000c3060000c3060000c3060000bb
:10012000c3060000c3060000c3060000c3060000ab
:10013000c3060000c3060000c3060000c30600009b
:10014000c3060000c3060000c3060000c30600008b
:10015000c3060000c306000000000000000000000d
:10016000000000000000000000000000000000008f
:100170000000000000000000c3060000c3060000ed
:10018000c3060000c3060000c3060000c30600004b
:1001900000000000c3060000c3060000c306000004
:1001a000c3060000c3060000c3060000c30600002b
:1001b000c3060000c3060000c3060000c30600001b
:1001c000c3060000c3060000c3060000c30600000b
:1001d000c3060000c3060000c3060000c3060000fb
:1001e000c3060000c3060000c3060000c3060000eb
:1001f000c3060000c3060000c3060000c3060000db
:10020000c30600000000000000000000c30600005c
:10021000c3060000c3060000c3060000c3060000ba
:10022000c3060000c3060000c3060000c3060000aa
:10023000c3060000c3060000c3060000c30600009a
:10024000c3060000c3060000c3060000c30600008a
:10025000c3060000c3060000c3060000c30600007a
:020000040000fa
:10026000f8b500bff8bc08bc9e467047cd0500003d
:10027000f8b500bff8bc08bc9e467047a905000051
:020000040000fa
:100280002c4b00221a7403f500632b4a9a621a461b
:10029000536813f0100ffbd1284b4222c3f884207f
:1002a0001a46d2f8843013f0400ffad0244b0022c3
:1002b0009a6377225a631a46d36b13f0040ffbd16b
:1002c0001f4b022283f830201a46d36b13f0020f23
:1002d000fbd11b4a136c03f00303032bfad1194b18
:1002e00001225a711a46d37813f0010ffbd0134b39
:1002f000154a1a621a46536813f0040ffbd10f4bcc
:10030000124a5a621a46536813f0080ffbd10b4b7e
:100310004122c3f890201a46d2f8903013f0400fd3
:10032000fad0084b6ff07f421a6140f2ff725a61b7
:10033000704700bf0014004006013000001c004060
:100340000010004000080040070101000701020002
:020000040000fa
:1003500008b5194b9847194b9847eff3108172b6bf
:10036000174ad2f8883043f47003c2f88830bff3dc
:100370004f8fbff36f8f01b962b6124a936823f0b3
:10038000010393601346da6812f0010ffbd10d4ba5
:1003900024225a6001229a6000f090f90a4b23f05f
:1003a0007f03074a9360094b9847094b9847094bcd
:1003b000984700f02ff9fee7d1060000d1060000b3
:1003c00000ed00e00060004100000000b10400000a
:0803d000d1060000d106000077
:020000040000fa
:1003d8001b4a137843f001031370536813f0010f9d
:1003e800fbd117494ff48073cb6100230b620423c0
:1003f8000b61144b10221a819a82022018849a8564
:100408001a87a3f84420a3f85020a3f85c20a3f887
:100418006820a3f87420a3f88020a3f88c20a3f800
:100428009820a3f8a420a3f8b020a3f8bc200b7848
:1004380003430b700a46536813f0020ffbd1704751
:08044800002800400000002024
:020000040000fa
:1004500070b5144b144a0021934206d3134a002569
:10046000d2e9003123b919b970bd03f8011bf3e7d4
:10047000946858180c3294b11446834208d111f094
:10048000030318bf012303eb910102eb8102e7e7ad
:1004900014f8016b03f8016befe703f8015b83428b
:1004a000fbd1dde700000020000000200c0500006b
:020000040000fa
:1004b0000e4a38b5002313600d4a0e4c13600e4ae5
:1004c0000e4d13600e4a13600e4a13600e4a5362bb
:1004d00013610123936000f0fcf800f0faf8ac42dd
:1004e00000d338bd54f8043b9847f8e730010020aa
:1004f000cc0000206c020000c80000207002000048
:0c050000c0000020c4000020d00000203b
:020000040000fa
:10050c00100100201c000000000000000000002072
:10051c00c0000000000000002c01002004000000be
:10052c0000000000c000002050000000000000008f
:10053c00300100200400000000000000000000005a
:10054c00000000004444444444444444444444446f
:020000040000fa
:10055c00104bda6822f4e0621204120c42f0bf6213
:10056c0042f40032da60bff35f8f62b60a4ae021d0
:10057c0082f80e134ff4804111605a6a42f48022c3
:10058c005a625a6942f010025a615a6a42f40032b5
:0c059c005a62704700ed00e000e100e052
:020000040000fa
:1005a80010b5054c227832b9044b13b10448aff3a7
:1005b80000800123237010bd1001002000000000fe
:1005c8000000000008b5034b1bb103490348aff313
:1005d800008008bd00000000140100200000000099
:020000040000fa
:1005e80030b400eb4004084b03eb84031b898342bf
:1005f80001d030bc7047044b4400251843f825103f
:0c06080003eb85035a60f4e700000020bb
:020000040000fa
:1006140008b5002000f02cf8022000f03ff800227a
:1006240002490220fff7defffee700bfb10600002b
:020000040000fa
:10063400064b08221a60012283f84220022283f822
:100644004320002283f83120704700bf008000411e
:020000040000fa
:1006540008b5054b04225a61044b9b6913b1034a44
:10066400d069984708bd00bf002800400000002062
:020000040000fa
:1006740008b500f00bf8fff7dbfffff7fffd00f014
:0c0684001df8fff7a7fefff767ff08bd99
:020000040000fa
:10069000024b40f204521a80704700bf00400041f4
:020000040000fa
:1006a000012303fa00f0014b186170470028004055
:020000040000fa
:0c06b000014b0822da6170470080004115
:020000040000fa
:0406bc00fff7c8bebe
:020000040000fa
:0206c000704781
:020000040000fa
:0206c200fee751
:020000040000fa
:0206c400fee74f
:020000040000fa
:0206c600fee74d
:020000040000fa
:0206c800fee74b
:020000040000fa
:0206ca00fee749
:020000040000fa
:0206cc00fee747
:020000040000fa
:0206ce00fee745
:020000040000fa
:0206d000704771
:020000040000fa
:0206d20070476f
:020000040000fa
:0200000400807a
:044000003912003c35
:020000040000fa
:0200000400807a
:044004008000a82a66
:020000040000fa
:0200000400807a
:04400800ffffffffb8
:00000001FF
