:020000040000fa
:10000000f0ff03206d030000290700002b0700000c
:100010002f07000031070000330700000000000038
:1000200000000000000000000000000027070000a2
:100030002d07000000000000270700002707000030
:1000400027070000270700002707000027070000f8
:1000500027070000270700002707000027070000e8
:1000600027070000270700002707000027070000d8
:1000700027070000270700002707000027070000c8
:1000800027070000270700002707000027070000b8
:1000900027070000270700002707000027070000a8
:1000a0002707000027070000270700002707000098
:1000b0002707000027070000270700002707000088
:1000c0002707000027070000270700002707000078
:1000d0002707000027070000270700002707000068
:1000e00027070000270700000000000000000000b4
:1000f0000000000027070000270700002707000076
:100100002707000027070000270700002707000037
:100110002707000027070000270700002707000027
:100120002707000027070000270700002707000017
:100130002707000027070000270700002707000007
:1001400027070000270700002707000027070000f7
:100150002707000027070000000000000000000043
:10016000000000000000000000000000000000008f
:100170000000000000000000270700002707000023
:1001800027070000270700002707000027070000b7
:1001900000000000270700002707000027070000d5
:1001a0002707000027070000270700002707000097
:1001b0002707000027070000270700002707000087
:1001c0002707000027070000270700002707000077
:1001d0002707000027070000270700002707000067
:1001e0002707000027070000270700004d06000032
:1001f0002707000027070000270700002707000047
:100200002707000000000000000000002707000092
:100210002707000027070000270700002707000026
:100220002707000027070000270700002707000016
:100230002707000027070000270700002707000006
:1002400027070000270700002707000027070000f6
:1002500027070000270700002707000027070000e6
:020000040000fa
:10026000f8b500bff8bc08bc9e467047bd0500004d
:10027000f8b500bff8bc08bc9e4670479905000061
:020000040000fa
:10028000324b00221a7403f50063314a9a621a460f
:10029000536813f0100ffbd12e4b4222c3f8842079
:1002a0001a46d2f8843013f0400ffad02a4b0022bd
:1002b0009a6377225a631a46d36b13f0040ffbd16b
:1002c000254b022283f830201a46d36b13f0020f1d
:1002d000fbd1214a136c03f00303032bfad11f4b0c
:1002e00001225a711a46d37813f0010ffbd0194b33
:1002f0001b4a1a621a46536813f0040ffbd1154bc0
:10030000184a5a621a46536813f0080ffbd1114b72
:100310004122c3f8a4201a46d2f8a43013f0400fab
:10032000fad00c4b4122c3f8e4201a46d2f8e4304c
:1003300013f0400ffad0094b6ff07f421a6144f27c
:10034000ff725a61084a9a61704700bf001400406a
:1003500006013000001c0040001000400008004072
:0c0360000701010007010200568801009f
:020000040000fa
:10036c0008b5194b9847194b9847eff3108172b6a3
:10037c00174ad2f8883043f47003c2f88830bff3c0
:10038c004f8fbff36f8f01b962b6124a936823f097
:10039c00010393601346da6812f0010ffbd10d4b89
:1003ac0024225a6001229a6000f0b4f90a4b23f01f
:1003bc007f03074a9360094b9847094b9847094bb1
:1003cc00984700f023f9fee73507000035070000d9
:1003dc0000ed00e00060004100000000550400004a
:0803ec00350700003507000091
:020000040000fa
:1003f40070b5144b144a0021934206d3134a0025c6
:10040400d2e9003123b919b970bd03f8011bf3e730
:10041400946858180c3294b11446834208d111f0f0
:10042400030318bf012303eb910102eb8102e7e709
:1004340014f8016b03f8016befe703f8015b8342e7
:10044400fbd1dde70000002000000020b004000024
:020000040000fa
:100454000e4a38b5002313600d4a0e4c13600e4a41
:100464000e4d13600e4a13600e4a13600e4a536217
:1004740013610123936000f05cf900f05af9ac4277
:1004840000d338bd54f8043b9847f8e778000020bf
:100494000c0000206c020000080000207002000024
:0c04a400000000200400002010000020d8
:020000040000fa
:1004b000500000201c000000000000006c00002024
:1004c000080000000000000074000020040000008c
:1004d00000000000000000205000000000000000ac
:1004e0007800002004000000000000000000000070
:1004f00000000000444444444444444444444444cc
:020000040000fa
:10050000104bda6822f4e0621204120c42f0bf626f
:1005100042f40032da60bff35f8f62b60a4ae0212c
:1005200082f86b134ff40061d1605a6a42f4802262
:100530005a625a6942f010025a615a6a42f4003211
:0c0540005a62704700ed00e000e100e0ae
:020000040000fa
:10054c00104b01221a601a46936813f0010ffbd16d
:10055c000c4b00221a605a6158690b4901435961ce
:10056c000221d9634ff4fa7159649a64da641a65fa
:10057c005a659a654ff47a721a641a469368002b7e
:0c058c00fcd1704700600141000e4040af
:020000040000fa
:1005980010b5054c227832b9044b13b10448aff3b7
:1005a80000800123237010bd5000002000000000cf
:1005b8000000000008b5034b1bb103490348aff323
:1005c800008008bd0000000054000020000000006a
:020000040000fa
:1005d8000d4b01221a601a46136913f0010ffbd163
:1005e800094b10221a6003221a734ef660229a836e
:1005f80033229a72054a0021116001225a721a4662
:100608001369002bfcd17047003800406c000020b3
:020000040000fa
:1006180008b5002000f050f800f05ef8fa2000f06d
:1006280067f84ff47a7000f037f8054b1b6b13f43a
:10063800803f03d1024b4ff4fa721a67fee700bffe
:04064800006001410c
:020000040000fa
:10064c0008b5084b5b7a63b1064a937a33219172f1
:10065c0003f0ff002bb1044b1b6813b1024a516825
:0c066c00984708bd003800406c000020da
:020000040000fa
:10067800084b012283f84820002283f84a200521ec
:1006880083f8341083f8352083f8cc2083f8b6201b
:08069800704700bf0080004123
:020000040000fa
:1006a000064b1b6b13f0800f05d120f07f40034bee
:1006b000d866012070470020704700bf00600141ec
:020000040000fa
:1006c00008b500f025f8fff7d7fffff7d9fd00f0d8
:1006d00029f8fff73bfffff77ffffff711ff08bd8a
:020000040000fa
:1006e000044a136843f002031360936813f0020f87
:0806f000fbd1704700600141dd
:020000040000fa
:1006f80020f07f40034b58631a46936813f0100f9d
:08070800fbd1704700600141c4
:020000040000fa
:10071000024b40f204521a80704700bf0040004173
:020000040000fa
:04072000fff768beb9
:020000040000fa
:0207240070471c
:020000040000fa
:02072600fee7ec
:020000040000fa
:02072800fee7ea
:020000040000fa
:02072a00fee7e8
:020000040000fa
:02072c00fee7e6
:020000040000fa
:02072e00fee7e4
:020000040000fa
:02073000fee7e2
:020000040000fa
:02073200fee7e0
:020000040000fa
:0207340070470c
:020000040000fa
:0207360070470a
:020000040000fa
:0200000400807a
:044000003912003c35
:020000040000fa
:0200000400807a
:044004008000a82a66
:020000040000fa
:0200000400807a
:04400800ffffffffb8
:00000001FF
