:020000040000fa
:10000000f0ff03204d0c0000ab1400005b15000056
:10001000cf1500002116000023160000000000008c
:100020000000000000000000000000004b0d000078
:10003000a7150000000000004b0d00004b0d000054
:100040004b0d00004b0d00004b0d00004b0d000050
:100050004b0d00004b0d00004b0d00004b0d000040
:100060004b0d00004b0d00004b0d00004b0d000030
:100070004b0d00004b0d00004b0d00004b0d000020
:100080004b0d00004b0d00004b0d00004b0d000010
:100090004b0d00004b0d00004b0d00004b0d000000
:1000a0004b0d00004b0d00004b0d00004b0d0000f0
:1000b0004b0d00004b0d00004b0d00004b0d0000e0
:1000c0004b0d00004b0d00004b0d00004b0d0000d0
:1000d0004b0d00004b0d00004b0d00004b0d0000c0
:1000e0004b0d00004b0d0000000000000000000060
:1000f000000000004b0d000031040000310400003e
:1001000031040000310400004b0d00004b0d0000d5
:100110004b0d00004b0d0000810200008102000029
:1001200081020000810200004b0d00004b0d000019
:100130004b0d00004b0d00004b0d00004b0d00005f
:100140004b0d00004b0d00004b0d00004b0d00004f
:100150004b0d00004b0d00000000000000000000ef
:10016000000000000000000000000000000000008f
:1001700000000000000000004b0d00004b0d0000cf
:100180004b0d00004b0d00004b0d00004b0d00000f
:10019000000000004b0d00004b0d00004b0d000057
:1001a0004b0d00004b0d00004b0d00004b0d0000ef
:1001b0004b0d00004b0d00004b0d00004b0d0000df
:1001c0004b0d00004b0d00004b0d00004b0d0000cf
:1001d0004b0d00004b0d00004b0d00004b0d0000bf
:1001e0004b0d00004b0d00004b0d00004b0d0000af
:1001f0004b0d00004b0d00004b0d00004b0d00009f
:100200004b0d000000000000000000004b0d00003e
:100210004b0d00004b0d00004b0d00004b0d00007e
:100220004b0d00004b0d00004b0d00004b0d00006e
:100230004b0d00004b0d00004b0d00004b0d00005e
:100240004b0d00004b0d00004b0d00004b0d00004e
:100250004b0d00004b0d00004b0d00004b0d00003e
:020000040000fa
:10026000f8b500bff8bc08bc9e4670476512000098
:10027000f8b500bff8bc08bc9e46704741120000ac
:020000040000fa
:1002800008b5694b9b7dd3b1674b5b8b13f0020fb5
:1002900016d0664bff2283f82020022283f821200b
:1002a000624b93f820305bb2b3f1ff3f00f08b80dc
:1002b0005e4b93f820305bb2062b00f09c8008bdab
:1002c000594b5b8b13f0010f07d0584bff2283f87b
:1002d0002020022283f82120e2e7534b5b8b13f0ae
:1002e000040f07d0514bff2283f82020012283f80e
:1002f0002120d5e74d4b93f820305bb2032b42d041
:10030000042b10d0022bcbd1484b1b692bb1002101
:10031000464b988800f0b8fec2e70121434b98880d
:1003200000f0b2febce7414a9369126993420bd0d8
:100330003e4a9168c85c3c498862013393610a4631
:10034000d369002bfcd1abe7384b5b6973b1374bfa
:100350009b885b0043f00103334a5362d369002b4f
:10036000fcd1324b032283f8202099e72e4a5368b0
:1003700043f440335360d369002bfcd12b4b06224e
:1003800083f820208ce7294a5369013bd2699a42bd
:100390000cd0254ad369002bfcd1234b986a234a01
:1003a000d369d168c8540133d36179e71e4a5368d1
:1003b00043f4e0235360d369002bfcd11b4b06228e
:1003c00083f82020e5e7194b002283f82020164a05
:1003d000536843f440335360d369002bfcd1124b74
:1003e00083221a76114b5b6a002b3ff468af0f4ae9
:1003f000906a984763e70d4b002283f8202083f82a
:100400002120094b83221a761a46538b03f03003be
:10041000102bfad1054b5b6a002b3ff450af034a17
:10042000906a98474be700bf002001416406002016
:020000040000fa
:1004300008b5694b9b7dd3b1674b5b8b13f0020f03
:1004400016d0664bff2283f82020022283f8212059
:10045000624b93f820305bb2b3f1ff3f00f08b802a
:100460005e4b93f820305bb2062b00f09c8008bdf9
:10047000594b5b8b13f0010f07d0584bff2283f8c9
:100480002020022283f82120e2e7534b5b8b13f0fc
:10049000040f07d0514bff2283f82020012283f85c
:1004a0002120d5e74d4b93f820305bb2032b42d08f
:1004b000042b10d0022bcbd1484b1b692bb1002150
:1004c000464b988800f006fec2e70121434b98880e
:1004d00000f000febce7414a9369126993420bd0d9
:1004e0003e4a9168c85c3c498862013393610a4680
:1004f000d369002bfcd1abe7384b5b6973b1374b49
:100500009b885b0043f00103334a5362d369002b9d
:10051000fcd1324b032283f8202099e72e4a5368fe
:1005200043f440335360d369002bfcd12b4b06229c
:1005300083f820208ce7294a5369013bd2699a420b
:100540000cd0254ad369002bfcd1234b986a234a4f
:10055000d369d168c8540133d36179e71e4a53681f
:1005600043f4e0235360d369002bfcd11b4b0622dc
:1005700083f82020e5e7194b002283f82020164a53
:10058000536843f440335360d369002bfcd1124bc2
:1005900083221a76114b5b6a002b3ff468af0f4a37
:1005a000906a984763e70d4b002283f8202083f878
:1005b0002120094b83221a761a46538b03f030030d
:1005c000102bfad1054b5b6a002b3ff450af034a66
:1005d000906a98474be700bf00300040900600202b
:020000040000fa
:1005e0002de9f04f87b0039003a800f049fe0028e2
:1005f00003da002007b0bde8f08f039b1b095d1ee6
:10060000202d0fd9023b5e4ab3f5007f35bf02ebc8
:10061000d30302ebd31313f8045c13f8045c34bf68
:10062000013511350123a5f12001c5f1200203fa9e
:1006300001f923fa02f203fa05f8d8f1000849eab1
:10064000020969eb4909cde90089dff84081dff84b
:1006500030914746d8e90023009902ea010a01993e
:1006600003ea010b5aea0b0342d1039b05a810339e
:10067000059300f08dff18b9424b0c221a60b9e7c0
:10068000d8f80852a84206d0059b103b05930123d9
:1006900000f110058360059bea18012143f0010376
:1006a000b5f1080442f8083c42f8041cc7f80822d7
:1006b00045f8043c9dd0204600f09afe88b155f8dc
:1006c000083c55f8041c23f00103e31a5a6822f091
:1006d00001020a445a6055f8041c21f001016250dd
:1006e0001c462046039900f0b3fe04f1080081e7a0
:1006f0005446254bbaf1000f34d1cbf1000000ea8b
:100700000b00434309ebd36393f83c60203630463b
:1007100000f0f6fe731c57f8334007ebc303083ba9
:100720009c4297d0272e26dd0235ae4201dc3f2ebb
:1007300021d16268039922f00102551a284600f07f
:10074000bffd864217d1e068a6686318d8609e6036
:1007500083609868c36041f0010060505d60a550ff
:100760006060bee7caf100002040434309ebd36359
:1007700093f83c60cbe73146204600f031fcb0e70f
:10078000280f0000e806002029e66b070804002077
:020000040000fa
:10079000bc0600201c0000000000000064060020d1
:1007a0002c00000000000000900600202c0000003b
:1007b00000000000e006002004000000000000002f
:1007c000140600205000000000000000f006002089
:1007d0006c00000001000000fc060020f80600206c
:1007e000fc0600200000000025000000080000209a
:1007f00000040000000000000000000000000000f5
:1008000000000000000000000000000000000000e8
:1008100000000000191600000000000000000000a9
:1008200000000000000000006d0e0000000000004d
:1008300000000000000000000000000000000000b8
:10084000000000000000002008040000000000007c
:10085000bc07002020000000010000000100000093
:100860000300000000000000000000000000000085
:100870000000000000000000d8060020d80600207c
:100880000800000000000000e40600200400000052
:1008900000000000080400200c020000000000001e
:1008a0005c07002060000000010000000100000063
:1008b0000300000000000000000000000000000035
:1008c0000000000000000000850f00000000000094
:1008d0000000000000000000091600002b160000b8
:1008e0000000000000000000000000000000000008
:1008f00000000000000000000000000000000000f8
:10090000000000000000000000000000e8060020d9
:100910000400000000000000ec06002004000000bd
:1009200000000000000000000000000044444444b7
:020000040000fa
:10093000384b00221a7403f50063374a9a621a464c
:10094000536813f0100ffbd1344b4222c3f88420bc
:100950001a46d2f8843013f0400ffad0304b002200
:100960009a6377225a631a46d36b13f0040ffbd1b4
:100970002b4b022283f830201a46d36b13f0020f60
:10098000fbd1274a136c03f00303032bfad1254b49
:1009900001225a711a46d37813f0010ffbd01f4b76
:1009a000214a1a621a46536813f0040ffbd11b4bfd
:1009b0001e4a5a621a46536813f0080ffbd1174bb0
:1009c0004122c3f89c201a46d2f89c3013f0400f05
:1009d000fad0124b4122c3f8dc201a46d2f8dc30a0
:1009e00013f0400ffad00d4b4122c3f80c211a46e8
:1009f000d2f80c3113f0400ffad00a4b6ff07f425f
:100a00001a6141f2ff725a61094a9a6102221a621e
:100a1000704700bf0014004006013000001c004079
:100a2000001000400008004007010100070102001b
:040a300056820100e9
:020000040000fa
:100a34002de9f84300286ad050f8043ca0f10804da
:100a440023f00106a719a259934200d0ffde7a6869
:100a540023681340da070fd4204600f0c7fc0028af
:100a640057d1384600f009fd0028f0d07b6823f008
:100a740001031e441f44eae746f001036360304665
:100a84003b6000f01bfc054600f038fd23687a68e3
:100a94001340db07e0d5dff88ce0dee90089c5f11f
:100aa400200ca5f1200228fa05f009fa0cfc29fa19
:100ab40002f240ea0c001043012100ea0102002383
:100ac4001343c5f120007346a5f1200212d121fa87
:100ad40000f001fa02f2a94042ea00021ebfdef869
:100ae40000000143cef8001022b1def804100a43de
:100af400cef80420681c03ebc003a3f1080266606f
:100b04003e60a2605a68e2605c60e3689c60bde895
:100b1400f883236823f00103e41a636823f00103d4
:080b24001e449ee708040020b6
:020000040000fa
:100b2c00224ad36823f4e0631b041b0c43f0bf631d
:100b3c0043f40033d360bff35f8f62b61c4be021ec
:100b4c0083f82e134ff48040586083f82f134ff422
:100b5c000040586083f830134ff48030586083f8ad
:100b6c0031134ff40030586083f836134ff4800083
:100b7c00586083f837134ff40000586083f838132b
:100b8c004ff08070586083f839134ff00071596042
:100b9c00536a43f480235362536943f01003536147
:100bac00536a43f400335362704700bf00ed00e01a
:040bbc0000e100e074
:020000040000fa
:100bc0002de9ff41836946690093f61acde9016179
:100bd00004461746039216444ff002086d464246fb
:100be0002946206800f01cfcb04209d1d4e9023249
:100bf000c4e905331a44a262384604b0bde8f08166
:100c000000280dda6268002342f01002b8f1020fea
:100c1000a362c4e90533626015d06b68ff1aebe785
:100c20006b68984288bf0835a6eb000688bfc01adb
:100c30002b6803442b606b68a3eb000088bf08f1ae
:0a0c4000ff386860cbe71f46d6e7d7
:020000040000fa
:020c4a007047f1
:020000040000fa
:100c4c0008b5194b9847194b9847eff3108172b6ba
:100c5c00174ad2f8883043f47003c2f88830bff3d7
:100c6c004f8fbff36f8f01b962b6124a936823f0ae
:100c7c00010393601346da6812f0010ffbd10d4ba0
:100c8c0024225a6001229a6000f0befc0a4b23f029
:100c9c007f03074a9360094b9847094b9847094bc8
:100cac00984700f037fafee72516000025160000dd
:100cbc0000ed00e00060004100000000cd0e0000df
:080ccc002516000025160000aa
:020000040000fa
:100cd400f8b5846a05460f46164654b1ab6a6a698c
:100ce4009b1ab3420bd2324639462846fff766ffb9
:100cf400f8bd00f03ffc0028f0d02046f8e7002eb5
:100d0400f1d095f93430002b1bdbdbb23446621e84
:100d1400b95c994212d1224639462846fff74eff64
:100d2400a042e5d32744341b22463946686900f0c3
:100d340043fc6b691c446c613046d9e71446002ab5
:060d4400e5d13446f0e7a2
:020000040000fa
:020d4a00fee7c2
:020000040000fa
:100d4c00144b01221a601a46d369002bfcd1114bab
:100d5c004ff480725a601a46d369002bfcd10d4bac
:100d6c00ff22da600c4a1a601a46d369002bfcd1b8
:100d7c00084b10225a831a46d369002bfcd1074b1f
:100d8c00002283f8212083f82020024b83229a75bd
:100d9c00704700bf002001411600100064060020bf
:020000040000fa
:100dac00144b01221a601a46d369002bfcd1114b4b
:100dbc004ff480725a601a46d369002bfcd10d4b4c
:100dcc00ff22da600c4a1a601a46d369002bfcd158
:100ddc00084b10225a831a46d369002bfcd1074bbf
:100dec00002283f8212083f82020024b83229a755d
:100dfc00704700bf00300040160010009006002025
:020000040000fa
:100e0c0070b5144b144a0021934206d3134a0025a3
:100e1c00d2e9003123b919b970bd03f8011bf3e70e
:100e2c00946858180c3294b11446834208d111f0ce
:100e3c00030318bf012303eb910102eb8102e7e7e7
:100e4c0014f8016b03f8016befe703f8015b8342c5
:100e5c00fbd1dde70000002000000020900700001f
:020000040000fa
:100e6c007fb5c36800911546002b18bf013a01925b
:100e7c0082680446cde902230e46022269460068c8
:100e8c0000f098fa002808dc00f0180383f0080240
:100e9c0063681343636005460fe0019a8242fad2fd
:100eac00a368e363801ae268184420642ab15a1cd0
:100ebc00e2632e441b7806f8013c284604b070bd52
:020000040000fa
:100ecc000e4a38b5002313600d4a0e4c13600e4abf
:100edc000e4d13600e4a13600e4a13600e4a536295
:100eec0013610123936000f07dfb00f096fbac4294
:100efc0000d338bd54f8043b9847f8e7e4060020cb
:100f0c00200600206c0200001c060020700200006d
:0c0f1c0014060020180600202406002007
:020000040000fa
:100f28002021222324242525262627272828282867
:100f3800292929292a2a2a2a2b2b2b2b2c2c2c2c01
:100f48002c2c2c2c2d2d2d2d2d2d2d2d2e2e2e2ec9
:100f58002e2e2e2e2f2f2f2f2f2f2f2f000117023f
:100f68001d1813031e1b190b1408040d1f161c1241
:0c0f78001a0a070c1511090610050f0ecf
:020000040000fa
:100f840038b50d46044608b9002038bd43689b06b1
:100f940007d5d0e905239a4216d80023c4e90533be
:100fa400a362d4e90f13994204d20122c91a20681a
:100fb40000f032fb0023c4e90f33002de4d0206895
:100fc400bde8384000f021bb0022c36a11469847af
:0c0fd4006369002be1d14ff0ff30d6e73d
:020000040000fa
:100fe00070b5d0e90245a54217d10122a1f1200335
:100ff000c1f1200622fa06f602fa03f333438a40cf
:10100000db43d6431ab10b490a6832400a605a1cc6
:101010001fbf084a51680b4053604368ac6043f0ff
:10102000010223f00103e5604260c25842f0010270
:08103000c25070bd080400204d
:020000040000fa
:1010380010b370b506460d4600f0a6f9d5b10024e8
:101048000e4a137e13f0040ffbd0538b13f0070fd7
:101058000bd1536803f00703012b936a14bf335570
:1010680026f814300134a542ebd1a54214bf002064
:10107800012070bd2c46f8e70020704700040043ab
:020000040000fa
:10108800104b00229a61da610f4b83221a765a6854
:1010980022f480225a601a46d369002bfcd161b130
:1010a800084b032283f8202041ea4001064b59628d
:1010b8001a46d369002bfcd17047024b042283f8ef
:0c10c8002020f1e7640600200020014118
:020000040000fa
:1010d400104b00229a61da610f4b83221a765a6808
:1010e40022f480225a601a46d369002bfcd161b1e4
:1010f400084b032283f8202041ea4001064b596241
:101104001a46d369002bfcd17047024b042283f8a2
:0c1114002020f1e7900600200030004091
:020000040000fa
:101120002de9f04190b0002000f068f809ac0e4db8
:101130000fcd0fc495e8070084e807000df14008c3
:101140000126052709ac02ad00962b463246214602
:10115000384600f0d1f8013401354445f4d11c2162
:0c11600002a800f029f8ede75c15000083
:020000040000fa
:10116c00022a70b5044616461d461ad043689b06e3
:10117c0017d441b9002d08bf4ff4806505f1080064
:10118c00fff728fa01466368012e43f020036360e1
:10119c00c4e9021514bfff230a2384f83430024b30
:0c11ac00e362002070bd00bfd50c000005
:020000040000fa
:1011b800d0b110b40446c9b1084421460c4a64426f
:1011c800137e13f0010ffbd0536803f00703012bc4
:1011d80014bf0b7834f81130936201318142efd19a
:1011e80001205df8044b7047002070470120f8e7a4
:0411f80000040043ac
:020000040000fa
:1011fc0008b500f0e7f90d4b1b680021186800f0ea
:10120c00e9f90b4b1b680021186800f0e3f900f0ba
:10121c00a1f8fff787fbfff793fdfff710fdfff732
:10122c00bffd00f07df8fff77bfc08bdf406002045
:04123c00d8070020af
:020000040000fa
:1012400010b5054c227832b9044b13b10448aff302
:1012500000800123237010bdbc06002000000000a8
:101260000000000008b5034b1bb103490348aff36e
:10127000008008bd00000000c00600200000000043
:020000040000fa
:101280000c4a036810b5546a0b4a591e121b8a4255
:101290000ad22bb1094b0c221a604ff0ff3010bd5f
:1012a000102202600020fae7173323f00f030360d7
:1012b000f8e700bf24060020efffff7fe8060020cc
:020000040000fa
:1012c00000090138202813d9b0f5007f05d2094b59
:1012d00003ebd00010f8040c7047b0f5e05f06d8bf
:1012e000044b03ebd01010f8040c103070473f2073
:0812f000704700bf280f000049
:020000040000fa
:1012f80010b50b4c94f8204064b20cb1002010bd1e
:10130800074ca080e360029b6361a1602261002119
:10131800a170217084f82110fff7d8fe0120eee7b4
:04132800900600200b
:020000040000fa
:10132c000a4b0b4a1a604ff658729a814ff44032ae
:10133c005a601a46d369002bfcd1044a136843f057
:10134c0002031360d369002bfcd1704700040043e7
:04135c000401124036
:020000040000fa
:101360000a4b012283f8482083f8492083f84c2057
:1013700083f84d20222183f8341083f8361083f847
:10138000d02083f8d12083f8b81070470080004146
:020000040000fa
:101390000a4b5b8b13f0070f0ed0084b80221a7696
:1013a00007225a831b7e13f0040f05d0034b9a6a61
:1013b0001a7e12f0040ffad1704700bf00040043f8
:020000040000fa
:1013c0002de9f843002580460e4617462c4601f1cc
:1013d0000409bc4202db2846bde8f88359f83420f2
:1013e00056f83410404600f09bf801340544f0e70d
:020000040000fa
:1013f00070b505462c68e30701d500200fe02046b4
:10140000fff75eff064600f07bf82868a042f1d1a6
:1014100020f00100281a3146fff7e2fd012070bddf
:020000040000fa
:101420002de9f843002580460e4617462c4601f16b
:101430000409bc4202db2846bde8f88359f8342091
:1014400056f83410404600f07af801340544f0e7cd
:020000040000fa
:10145000426822f00102531a102b30b40dd94418ff
:1014600041f0010543f0010345506360835045603e
:0e14700004f1080030bcfff7ddba30bc704755
:020000040000fa
:10147e0070b505466c68e30701d500200de02046e7
:10148e00fff717ff064600f034f86b68a342f1d160
:0c149e0028463146fff79dfd012070bd7f
:020000040000fa
:0214aa00fee75b
:020000040000fa
:1014ac00074b1968024609b90649196018680649bc
:1014bc0002448a4294bf1a604ff0ff30704700bf5d
:0c14cc00ec060020e0070020e0090020f2
:020000040000fa
:1014d80090f948305a1e1343426880f8483012f099
:1014e80004031bbf42f010024260c0e90f334ff003
:0814f800ff3008bf18467047e1
:020000040000fa
:10150000064b013053f830203ab9c100a1f108026e
:101510001a44194443f830204a60704708040020f8
:020000040000fa
:1015200038b550b952b10c46012529462046fff77f
:0e15300083fd0028f9d0012000e0002038bd26
:020000040000fa
:10153e0038b50d461446012801d0204638bd214647
:0c154e002846fff732fe0028f9d0f6e72f
:020000040000fa
:02155a00fee7aa
:020000040000fa
:10155c004142434445464748494a4b4c4d4e4f50f7
:0c156c005152535455565758595a0a0012
:020000040000fa
:1015780010b50446fff7acff28b9a368e268c4e9d0
:0815880005331344a36210bdfa
:020000040000fa
:101590000068002808b501da002008bdfff786ffc3
:0615a000431cfad1f8e73c
:020000040000fa
:0215a600fee75e
:020000040000fa
:1015a80008b500f029f8024b1860586008bd00bf64
:0415b800d806002031
:020000040000fa
:1015bc0010b500239a4200d110bdcc5cc454013349
:0215cc00f8e73e
:020000040000fa
:0215ce00fee736
:020000040000fa
:1015d000024b40f204521a80704700bf00400041a5
:020000040000fa
:1015e00000294ff480630cbf02220022fff7bebd2a
:020000040000fa
:1015f00008b5fff7d9ff00f017f800f015f808bd9f
:020000040000fa
:08160000004870475c07002060
:020000040000fa
:061608000068fff798bf27
:020000040000fa
:06160e004ff0ff307047b1
:020000040000fa
:04161400fff7fabb27
:020000040000fa
:0416180000207047f7
:020000040000fa
:04161c0000207047f3
:020000040000fa
:02162000fee7e3
:020000040000fa
:02162200fee7e1
:020000040000fa
:0216240070470d
:020000040000fa
:0616260070477047704799
:020000040000fa
:0200000400807a
:044000003912003c35
:020000040000fa
:0200000400807a
:044004008000a82a66
:020000040000fa
:0200000400807a
:04400800ffffffffb8
:00000001FF
