:020000040000fa
:10000000f0ff0320e90a00002f1300006f14000026
:100010001b1500001d1500001f150000000000004a
:10002000000000000000000000000000e70b0000de
:100030001915000000000000e70b0000e70b0000ae
:10004000e70b0000e70b0000e70b0000e70b0000e8
:10005000e70b0000e70b0000e70b0000e70b0000d8
:10006000e70b0000e70b0000e70b0000e70b0000c8
:10007000e70b0000e70b0000e70b0000e70b0000b8
:10008000e70b0000e70b0000e70b0000e70b0000a8
:10009000e70b0000e70b0000e70b0000e70b000098
:1000a000e70b0000e70b0000e70b0000e70b000088
:1000b000e70b0000e70b0000e70b0000e70b000078
:1000c000e70b0000e70b0000e70b0000e70b000068
:1000d000e70b0000e70b0000e70b0000e70b000058
:1000e000e70b0000e70b000000000000000000002c
:1000f00000000000e70b0000f1080000f10800001c
:10010000f1080000f1080000e70b0000e70b000019
:10011000e70b0000e70b00001908000019080000b9
:100120001908000019080000e70b0000e70b0000a9
:10013000e70b0000e70b0000e70b0000e70b0000f7
:10014000e70b0000e70b0000e70b0000e70b0000e7
:10015000e70b0000e70b00000000000000000000bb
:10016000000000000000000000000000000000008f
:100170000000000000000000e70b0000e70b00009b
:10018000e70b0000e70b0000e70b0000e70b0000a7
:1001900000000000e70b0000e70b0000e70b000089
:1001a000e70b0000e70b0000e70b0000e70b000087
:1001b000e70b0000e70b0000e70b0000e70b000077
:1001c000e70b0000e70b0000e70b0000e70b000067
:1001d000e70b0000e70b0000e70b0000e70b000057
:1001e000e70b0000e70b0000e70b0000e70b000047
:1001f000e70b0000e70b0000e70b0000e70b000037
:10020000e70b00000000000000000000e70b00000a
:10021000e70b0000e70b0000e70b0000e70b000016
:10022000e70b0000e70b0000e70b0000e70b000006
:10023000e70b0000e70b0000e70b0000e70b0000f6
:10024000e70b0000e70b0000e70b0000e70b0000e6
:10025000e70b0000e70b0000e70b0000e70b0000d6
:020000040000fa
:10026000f8b500bff8bc08bc9e4670474d110000b1
:10027000f8b500bff8bc08bc9e46704729110000c5
:020000040000fa
:10028000640600201c000000000000009c06002006
:100290000c00000000000000a80600200c00000078
:1002a00000000000bc060020040000000000000068
:1002b000c0060020040000000000000080060020ae
:1002c0001c00000000000000c00700201c0000000f
:1002d000010000006162636465666768696a6b6c4f
:1002e0006d6e6f707172737475767778797a0a00b3
:1002f000c4060020040000000000000014060020d6
:100300005000000000000000d40600206c00000037
:1003100001000000e0060020dc060020e0060020ce
:10032000000000002500000008000020000400007c
:1003300000000000000000000000000000000000bd
:1003400000000000000000000000000000000000ad
:100350001115000000000000000000000000000077
:1003600000000000490c0000000000000000000038
:10037000000000000000000000000000000000007d
:10038000000000200804000000000000a00700207a
:100390002000000001000000010000000300000038
:1003a000000000000000000000000000000000004d
:1003b00000000000b4060020b40600200800000081
:1003c00000000000c806002004000000000000003b
:1003d000080400200c02000000000000400700207c
:1003e00060000000010000000100000003000000a8
:1003f00000000000000000000000000000000000fd
:1004000000000000610d000000000000000000007e
:10041000000000000115000027150000000000008a
:1004200000000000000000000000000000000000cc
:1004300000000000000000000000000000000000bc
:100440000000000000000000cc06002004000000b6
:1004500000000000d00600200400000000000000a2
:10046000000000000000000044444444444444446c
:020000040000fa
:100470002de9f04f87b0039003a800f075fe002827
:1004800003da002007b0bde8f08f039b1b095d1e57
:10049000202d0fd9023b5e4ab3f5007f35bf02eb3a
:1004a000d30302ebd31313f8045c13f8045c34bfda
:1004b000013511350123a5f12001c5f1200203fa10
:1004c00001f923fa02f203fa05f8d8f1000849ea23
:1004d000020969eb4909cde90089dff84081dff8bd
:1004e00030914746d8e90023009902ea010a0199b0
:1004f00003ea010b5aea0b0342d1039b05a8103310
:10050000059300f078ff18b9424b0c221a60b9e746
:10051000d8f80852a84206d0059b103b059301234a
:1005200000f110058360059bea18012143f00103e7
:10053000b5f1080442f8083c42f8041cc7f8082248
:1005400045f8043c9dd0204600f094fe88b155f853
:10055000083c55f8041c23f00103e31a5a6822f002
:1005600001020a445a6055f8041c21f0010162504e
:100570001c462046039900f0adfe04f1080081e717
:100580005446254bbaf1000f34d1cbf1000000eafc
:100590000b00434309ebd36393f83c6020363046ad
:1005a00000f0f0fe731c57f8334007ebc303083b21
:1005b0009c4297d0272e26dd0235ae4201dc3f2e2d
:1005c00021d16268039922f00102551a284600f0f1
:1005d000ebfd864217d1e068a6686318d8609e607c
:1005e00083609868c36041f0010060505d60a55071
:1005f0006060bee7caf100002040434309ebd363cb
:1006000093f83c60cbe73146204600f0d7fbb0e7db
:10061000040d0000cc06002029e66b07080400202a
:020000040000fa
:10062000384b00221a7403f50063374a9a621a465f
:10063000536813f0100ffbd1344b4222c3f88420cf
:100640001a46d2f8843013f0400ffad0304b002213
:100650009a6377225a631a46d36b13f0040ffbd1c7
:100660002b4b022283f830201a46d36b13f0020f73
:10067000fbd1274a136c03f00303032bfad1254b5c
:1006800001225a711a46d37813f0010ffbd01f4b89
:10069000214a1a621a46536813f0040ffbd11b4b10
:1006a0001d4a5a621a46536813f0080ffbd1174bc4
:1006b0004122c3f89c201a46d2f89c3013f0400f18
:1006c000fad0124b4122c3f8dc201a46d2f8dc30b3
:1006d00013f0400ffad00d4b4122c3f80c211a46fb
:1006e000d2f80c3113f0400ffad00a4b6ff07f4272
:1006f0001a6141f2ff725a61084a9a6102221a6233
:10070000704700bf0014004006013000001c00408c
:10071000001000400008004007010100568201005f
:020000040000fa
:100720002de9f84300286ad050f8043ca0f10804f1
:1007300023f00106a719a259934200d0ffde7a6880
:1007400023681340da070fd4204600f093fd0028f9
:1007500057d1384600f0d5fd0028f0d07b6823f053
:1007600001031e441f44eae746f00103636030467c
:100770003b6000f019fd054600f004fe23687a682e
:100780001340db07e0d5dff88ce0dee90089c5f136
:10079000200ca5f1200228fa05f009fa0cfc29fa30
:1007a00002f240ea0c001043012100ea010200239a
:1007b0001343c5f120007346a5f1200212d121fa9e
:1007c00000f001fa02f2a94042ea00021ebfdef880
:1007d00000000143cef8001022b1def804100a43f5
:1007e000cef80420681c03ebc003a3f10802666086
:1007f0003e60a2605a68e2605c60e3689c60bde8ad
:10080000f883236823f00103e41a636823f00103eb
:080810001e449ee708040020cd
:020000040000fa
:1008180070b5334b1c7ee4b29b7d234238d014f074
:10082800020f12d02f4b01221a709a702c4a528b49
:10083800c2f300125a705b68c3b12a4a916801205a
:10084800984730b3002000f009fb14f0040f0dd0d6
:10085800244b5d6855b100f00ffe10bb214b996821
:100868000220a847c8b1002000f0f8fa14f0010fe0
:100878000bd01c4b00221a705b681bb1194a916897
:1008880004209847164b01221a7614f0800f1cd1c9
:1008980070bd012000f0e2fad7e7012000f0defa8f
:1008a800e4e700f0f1fd10b10e4b9b784bb10d4e13
:1008b800b1680320a8470023b370022000f0cefae5
:1008c800d4e7032000f0cafad0e7064b5b681bb1f7
:1008d800044a916805209847014b80221a76d7e789
:0808e800002001419c060020e4
:020000040000fa
:1008f00070b5334b1c7ee4b29b7d234238d014f09c
:10090000020f12d02f4b01221a709a702c4a528b70
:10091000c2f300125a705b68c3b12a4a9168012081
:10092000984730b3002000f0c3fa14f0040f0dd044
:10093000244b5d6855b100f0b3fd10bb214b9968a5
:100940000220a847c8b1002000f0b2fa14f0010f4d
:100950000bd01c4b00221a705b681bb1194a9168be
:1009600004209847164b01221a7614f0800f1cd1f0
:1009700070bd012000f09cfad7e7012000f098fa42
:10098000e4e700f095fd10b10e4b9b784bb10d4e96
:10099000b1680320a8470023b370022000f088fa52
:1009a000d4e7032000f084fad0e7064b5b681bb164
:1009b000044a916805209847014b80221a76d7e7b0
:0809c00000300040a8060020f1
:020000040000fa
:1009c800224ad36823f4e0631b041b0c43f0bf6383
:1009d80043f40033d360bff35f8f62b61c4be02152
:1009e80083f82e134ff48040586083f82f134ff488
:1009f8000040586083f830134ff48030586083f813
:100a080031134ff40030586083f836134ff48000e8
:100a1800586083f837134ff40000586083f8381390
:100a28004ff08070586083f839134ff000715960a7
:100a3800536a43f480235362536943f010035361ac
:100a4800536a43f400335362704700bf00ed00e07f
:040a580000e100e0d9
:020000040000fa
:100a5c002de9ff41836946690093f61acde90161de
:100a6c0004461746039216444ff002086d46424660
:100a7c002946206800f010fcb04209d1d4e90232ba
:100a8c00c4e905331a44a262384604b0bde8f081cb
:100a9c0000280dda6268002342f01002b8f1020f50
:100aac00a362c4e90533626015d06b68ff1aebe7eb
:100abc006b68984288bf0835a6eb000688bfc01a41
:100acc002b6803442b606b68a3eb000088bf08f114
:0a0adc00ff386860cbe71f46d6e73d
:020000040000fa
:020ae600704757
:020000040000fa
:100ae80008b5194b9847194b9847eff3108172b620
:100af800174ad2f8883043f47003c2f88830bff33d
:100b08004f8fbff36f8f01b962b6124a936823f013
:100b1800010393601346da6812f0010ffbd10d4b05
:100b280024225a6001229a6000f0ecfc0a4b23f060
:100b38007f03074a9360094b9847094b9847094b2d
:100b4800984700f0cbfafee72115000021150000b8
:100b580000ed00e00060004100000000a90c00006a
:080b6800211500002115000019
:020000040000fa
:100b7000f8b5846a05460f46164654b1ab6a6a69f1
:100b80009b1ab3420bd2324639462846fff766ff1e
:100b9000f8bd00f024fc0028f0d02046f8e7002e35
:100ba000f1d095f93430002b1bdbdbb23446621eea
:100bb000b95c994212d1224639462846fff74effca
:100bc000a042e5d32744341b22463946686900f029
:100bd00045fc6b691c446c613046d9e71446002a19
:060be000e5d13446f0e708
:020000040000fa
:020be600fee728
:020000040000fa
:100be80070b5144b144a0021934206d3134a0025ca
:100bf800d2e9003123b919b970bd03f8011bf3e735
:100c0800946858180c3294b11446834208d111f0f4
:100c1800030318bf012303eb910102eb8102e7e70d
:100c280014f8016b03f8016befe703f8015b8342eb
:100c3800fbd1dde70000002000000020800200005a
:020000040000fa
:100c48007fb5c36800911546002b18bf013a019281
:100c580082680446cde902230e46022269460068ee
:100c680000f0ecfa002808dc00f0180383f0080212
:100c780063681343636005460fe0019a8242fad223
:100c8800a368e363801ae268184420642ab15a1cf6
:100c9800e2632e441b7806f8013c284604b070bd78
:020000040000fa
:100ca8000e4a38b5002313600d4a0e4c13600e4ae5
:100cb8000e4d13600e4a13600e4a13600e4a5362bb
:100cc80013610123936000f0fffb00f026fcac42a7
:100cd80000d338bd54f8043b9847f8e7c80600200d
:100ce800200600206c0200001c0600207002000094
:0c0cf8001406002018060020240600202e
:020000040000fa
:100d0400202122232424252526262727282828288d
:100d1400292929292a2a2a2a2b2b2b2b2c2c2c2c27
:100d24002c2c2c2c2d2d2d2d2d2d2d2d2e2e2e2eef
:100d34002e2e2e2e2f2f2f2f2f2f2f2f0001170265
:100d44001d1813031e1b190b1408040d1f161c1267
:0c0d54001a0a070c1511090610050f0ef5
:020000040000fa
:100d600038b50d46044608b9002038bd43689b06d7
:100d700007d5d0e905239a4216d80023c4e90533e4
:100d8000a362d4e90f13994204d20122c91a206840
:100d900000f0c0fb0023c4e90f33002de4d020682d
:100da000bde8384000f0afbb0022c36a1146984747
:0c0db0006369002be1d14ff0ff30d6e763
:020000040000fa
:100dbc0070b5d0e90245a54217d10122a1f120035b
:100dcc00c1f1200622fa06f602fa03f333438a40f5
:100ddc00db43d6431ab10b490a6832400a605a1ced
:100dec001fbf084a51680b4053604368ac6043f026
:100dfc00010223f00103e5604260c25842f0010297
:080e0c00c25070bd0804002073
:020000040000fa
:100e140010b370b506460d4600f0faf9d5b10024ba
:100e24000e4a137e13f0040ffbd0538b13f0070ffd
:100e34000bd1536803f00703012b936a14bf335596
:100e440026f814300134a542ebd1a54214bf00208a
:100e5400012070bd2c46f8e70020704700040043d1
:020000040000fa
:100e640038b9114a536823f4e02343f44033536000
:100e74007047012804d0022808d003280cd07047fa
:100e8400094a536843f4e02353607047064a5368a1
:100e940043f4403353607047034a536823f44033a8
:0c0ea40043f400335360eae700200141f2
:020000040000fa
:100eb00038b9114a536823f4e02343f440335360b4
:100ec0007047012804d0022808d003280cd07047ae
:100ed000094a536843f4e02353607047064a536855
:100ee00043f4403353607047034a536823f440335c
:0c0ef00043f400335360eae70030004098
:020000040000fa
:100efc00022a70b5044616461d461ad043689b0656
:100f0c0017d441b9002d08bf4ff4806505f10800d6
:100f1c00fff7a8fa01466368012e43f020036360d3
:100f2c00c4e9021514bfff230a2384f83430024ba2
:0c0f3c00e362002070bd00bf710b0000dc
:020000040000fa
:100f4800104b012283f8482083f8492083f84c206d
:100f580083f84d2083f8502083f85120222183f80c
:100f6800341083f8361083f8381083f8cc2083f8cf
:100f7800cd2083f8d02083f8d12083f8b61083f8e9
:080f8800b81070470080004121
:020000040000fa
:100f90000f4b01221a601a46d369002bfcd10c4b6f
:100fa0004ff010121a601a46d369002bfcd1084b7f
:100fb00001229a600a225a6287229a751a6842f0c0
:100fc00002021a601a46d369002bfcd1704700bf99
:040fd00000200141bb
:020000040000fa
:100fd4000f4b01221a601a46d369002bfcd10c4b2b
:100fe4004ff010121a601a46d369002bfcd1084b3b
:100ff40001229a600a225a6287229a751a6842f07c
:1010040002021a601a46d369002bfcd1704700bf54
:041014000030004068
:020000040000fa
:10101800d0b110b40446c9b1084421460c4a644210
:10102800137e13f0010ffbd0536803f00703012b65
:1010380014bf0b7834f81130936201318142efd13b
:1010480001205df8044b7047002070470120f8e745
:04105800000400434d
:020000040000fa
:10105c0008b500f007fa0d4b1b680021186800f06a
:10106c0029fa0b4b1b680021186800f023fafff7d4
:10107c0065fffff7cffafff785fffff72efdfff7b0
:10108c00a3ff00f0a7f8fff799fc08bdd8060020d5
:04109c00bc0700206d
:020000040000fa
:1010a00008b50e4b1b680e4ad05c00f0b9f900f091
:1010b0001dfa18b9094a136801331360074b1b68fe
:1010c0001b2b02d9054b00221a6000f0b3f940f245
:1010d0004323c01a18bf012008bd00bfbc06002072
:0410e000c007002025
:020000040000fa
:1010e40080b50020fff7b8ff00210b4800f0f6f9a7
:1010f4000a4c0b4e1c2705e039463046fff78affa1
:1011040000232360256800f07ff9705523680133bc
:1011140023601b2bf6d9efe7a1100000c0060020c6
:041124008006002021
:020000040000fa
:1011280010b5054c227832b9044b13b10448aff31b
:1011380000800123237010bd640600200000000019
:101148000000000008b5034b1bb103490348aff387
:10115800008008bd000000006806002000000000b4
:020000040000fa
:101168000c4a036810b5546a0b4a591e121b8a426e
:101178000ad22bb1094b0c221a604ff0ff3010bd78
:10118800102202600020fae7173323f00f030360f0
:10119800f8e700bf24060020efffff7fcc06002001
:020000040000fa
:1011a80000090138202813d9b0f5007f05d2094b72
:1011b80003ebd00010f8040c7047b0f5e05f06d8d8
:1011c800044b03ebd01010f8040c103070473f208c
:0811d800704700bf040d000088
:020000040000fa
:1011e0000a4b0b4a1a604ff6ac729a814ff44032a8
:1011f0005a601a46d369002bfcd1044a136843f0a5
:1012000002031360d369002bfcd170470004004334
:041210000401124083
:020000040000fa
:101214000a4b5b8b13f0070f0ed0084b80221a7613
:1012240007225a831b7e13f0040f05d0034b9a6ade
:101234001a7e12f0040ffad1704700bf0004004375
:020000040000fa
:101244002de9f843002580460e4617462c4601f149
:101254000409bc4202db2846bde8f88359f834206f
:1012640056f83410404600f09bf801340544f0e78a
:020000040000fa
:1012740070b505462c68e30701d500200fe0204631
:10128400fff790ff064600f07bf82868a042f1d1f2
:1012940020f00100281a3146fff78efd012070bdb1
:020000040000fa
:1012a4002de9f843002580460e4617462c4601f1e9
:1012b4000409bc4202db2846bde8f88359f834200f
:1012c40056f83410404600f07af801340544f0e74b
:020000040000fa
:1012d400426822f00102531a102b30b40dd944187d
:1012e40041f0010543f001034550636083504560bc
:0e12f40004f1080030bcfff711ba30bc70479f
:020000040000fa
:1013020070b505466c68e30701d500200de0204664
:10131200fff749ff064600f034f86b68a342f1d1ab
:0c13220028463146fff749fd012070bd50
:020000040000fa
:02132e00fee7d8
:020000040000fa
:10133000074b1968024609b9064919601868064939
:1013400002448a4294bf1a604ff0ff30704700bfda
:0c135000d0060020e0070020e00900208b
:020000040000fa
:10135c0090f948305a1e1343426880f8483012f016
:10136c0004031bbf42f010024260c0e90f334ff080
:08137c00ff3008bf184670475e
:020000040000fa
:10138400064b013053f830203ab9c100a1f10802ec
:101394001a44194443f830204a6070470804002076
:020000040000fa
:1013a40038b550b952b10c46012529462046fff7fd
:0e13b4002ffd0028f9d0012000e0002038bdf8
:020000040000fa
:1013c20038b50d461446012801d0204638bd2146c5
:0c13d2002846fff720fe0028f9d0f6e7bf
:020000040000fa
:1013de0010b50446fff7bbff28b9a368e268c4e95d
:0813ee0005331344a36210bd96
:020000040000fa
:1013f6000068002808b501da002008bdfff795ff50
:06140600431cfad1f8e7d7
:020000040000fa
:10140c00034ad369002bfcd1014b986ac0b27047d8
:04141c00003000405c
:020000040000fa
:10142000034b98621a46d369002bfcd1704700bf6a
:041430000030004048
:020000040000fa
:10143400034a508b40f2432353831840704700bf44
:041444000030004034
:020000040000fa
:1014480008b500f055f8024b1860586008bd00bf99
:04145800b4060020b6
:020000040000fa
:10145c0010b500239a4200d110bdcc5cc4540133aa
:02146c00f8e79f
:020000040000fa
:02146e00fee797
:020000040000fa
:10147000024b40f204521a80704700bf0040004106
:020000040000fa
:10148000024b588bc0f3c000704700bf00200141e1
:020000040000fa
:10149000024b588bc0f38000704700bf0020014111
:020000040000fa
:1014a000024b588bc0f3c000704700bf00300040b3
:020000040000fa
:1014b000024b588bc0f38000704700bf00300040e3
:020000040000fa
:1014c00000294ff480630cbf02220022fff716bdf3
:020000040000fa
:1014d00008b5fff7b9ff00f025f800f023f808bdc4
:020000040000fa
:0c14e000014b586099607047a80600207e
:020000040000fa
:0c14ec00014b1878704700bfa8060020d4
:020000040000fa
:0814f800004870474007002086
:020000040000fa
:061500000068fff75ebf6a
:020000040000fa
:061506004ff0ff307047ba
:020000040000fa
:04150c00fff76cbbbe
:020000040000fa
:041510000020704700
:020000040000fa
:0415140000207047fc
:020000040000fa
:02151800fee7ec
:020000040000fa
:02151a00fee7ea
:020000040000fa
:02151c00fee7e8
:020000040000fa
:02151e00fee7e6
:020000040000fa
:02152000704712
:020000040000fa
:061522007047704770479e
:020000040000fa
:0200000400807a
:044000003912003c35
:020000040000fa
:0200000400807a
:044004008000a82a66
:020000040000fa
:0200000400807a
:04400800ffffffffb8
:00000001FF
