:020000040000fa
:10000000f0ff03202d080000f30e0000e70f0000b2
:1000100057100000a9100000ab1000000000000005
:100020000000000000000000000000002b0900009c
:100030002f100000000000002b0900002b09000019
:100040002b0900002b0900002b0900002b090000e0
:100050002b0900002b0900002b0900002b090000d0
:100060002b0900002b0900002b0900002b090000c0
:100070002b0900002b0900002b0900002b090000b0
:100080002b0900002b0900002b0900002b090000a0
:100090002b0900002b0900002b0900002b09000090
:1000a0002b0900002b0900002b0900002b09000080
:1000b0002b0900002b0900002b0900002b09000070
:1000c0002b0900002b0900002b0900002b09000060
:1000d0002b0900002b0900002b0900002b09000050
:1000e0002b0900002b0900000000000000000000a8
:1000f000000000002b0900002b0900002b09000064
:100100002b0900002b0900002b0900002b0900001f
:100110002b0900002b0900002b0900002b0900000f
:100120002b0900002b0900002b0900002b090000ff
:100130002b0900002b0900002b0900002b090000ef
:100140002b0900002b0900002b0900002b090000df
:100150002b0900002b090000000000000000000037
:10016000000000000000000000000000000000008f
:1001700000000000000000002b0900002b09000017
:100180002b0900002b0900002b0900002b0900009f
:10019000000000002b0900002b0900002b090000c3
:1001a0002b0900002b0900002b0900002b0900007f
:1001b0002b0900002b0900002b0900002b0900006f
:1001c0002b0900002b0900002b0900002b0900005f
:1001d0002b0900002b0900002b0900002b0900004f
:1001e0002b0900002b0900002b0900002b0900003f
:1001f0002b0900002b0900002b0900002b0900002f
:100200002b09000000000000000000002b09000086
:100210002b0900002b0900002b0900002b0900000e
:100220002b0900002b0900002b0900002b090000fe
:100230002b0900002b0900002b0900002b090000ee
:100240002b0900002b0900002b0900002b090000de
:100250002b0900002b0900002b0900002b090000ce
:020000040000fa
:10026000f8b500bff8bc08bc9e4670475d0c0000a6
:10027000f8b500bff8bc08bc9e467047390c0000ba
:020000040000fa
:100280002de9f04f87b0039003a800f015fd00287a
:1002900003da002007b0bde8f08f039b1b095d1e49
:1002a000202d0fd9023b5e4ab3f5007f35bf02eb2c
:1002b000d30302ebd31313f8045c13f8045c34bfcc
:1002c000013511350123a5f12001c5f1200203fa02
:1002d00001f923fa02f203fa05f8d8f1000849ea15
:1002e000020969eb4909cde90089dff84081dff8af
:1002f00030914746d8e90023009902ea010a0199a2
:1003000003ea010b5aea0b0342d1039b05a8103301
:10031000059300f081fe18b9424b0c221a60b9e730
:10032000d8f80852a84206d0059b103b059301233c
:1003300000f110058360059bea18012143f00103d9
:10034000b5f1080442f8083c42f8041cc7f808223a
:1003500045f8043c9dd0204600f06efd88b155f86c
:10036000083c55f8041c23f00103e31a5a6822f0f4
:1003700001020a445a6055f8041c21f00101625040
:100380001c462046039900f087fd04f1080081e730
:100390005446254bbaf1000f34d1cbf1000000eaee
:1003a0000b00434309ebd36393f83c60203630469f
:1003b00000f0ecfd731c57f8334007ebc303083b18
:1003c0009c4297d0272e26dd0235ae4201dc3f2e1f
:1003d00021d16268039922f00102551a284600f0e3
:1003e000c5fc864217d1e068a6686318d8609e6095
:1003f00083609868c36041f0010060505d60a55063
:100400006060bee7caf100002040434309ebd363bc
:1004100093f83c60cbe73146204600f071fbb0e733
:10042000480a00009006002029e66b070804002017
:020000040000fa
:10043000640600201c000000000000008806002068
:10044000040000000000000014060020500000001e
:1004500000000000980600206c0000000100000071
:10046000a4060020a0060020a40600200000000032
:10047000250000000800002000040000000000002b
:10048000000000000000000000000000000000006c
:10049000000000000000000000000000a1100000ab
:1004a000000000000000000000000000000000004c
:1004b0008d090000000000000000000000000000a6
:1004c000000000000000000000000000000000200c
:1004d0000804000000000000640700202000000065
:1004e0000100000001000000030000000000000007
:1004f00000000000000000000000000000000000fc
:100500008006002080060020080000000000000097
:100510008c060020040000000000000008040020f9
:100520000c02000000000000040700206000000032
:1005300001000000010000000300000000000000b6
:1005400000000000000000000000000000000000ab
:10055000a50a0000000000000000000000000000ec
:1005600091100000b3100000000000000000000027
:10057000000000000000000000000000000000007b
:10058000000000000000000000000000000000006b
:1005900000000000900600200400000000000000a1
:1005a000940600200400000000000000000000008d
:1005b000000000004444444444444444444444440b
:020000040000fa
:1005c0002de9f84300286ad050f8043ca0f1080453
:1005d00023f00106a719a259934200d0ffde7a68e2
:1005e00023681340da070fd4204600f025fc0028ca
:1005f00057d1384600f067fc0028f0d07b6823f024
:1006000001031e441f44eae746f0010363603046dd
:100610003b6000f0abfb054600f0b8fc23687a684d
:100620001340db07e0d5dff88ce0dee90089c5f197
:10063000200ca5f1200228fa05f009fa0cfc29fa91
:1006400002f240ea0c001043012100ea01020023fb
:100650001343c5f120007346a5f1200212d121faff
:1006600000f001fa02f2a94042ea00021ebfdef8e1
:1006700000000143cef8001022b1def804100a4356
:10068000cef80420681c03ebc003a3f108026660e7
:100690003e60a2605a68e2605c60e3689c60bde80e
:1006a000f883236823f00103e41a636823f001034d
:0806b0001e449ee7080400202f
:020000040000fa
:1006b800324b00221a7403f50063314a9a621a46d3
:1006c800536813f0100ffbd12e4b4222c3f884203d
:1006d8001a46d2f8843013f0400ffad02a4b002281
:1006e8009a6377225a631a46d36b13f0040ffbd12f
:1006f800254b022283f830201a46d36b13f0020fe1
:10070800fbd1214a136c03f00303032bfad11f4bcf
:1007180001225a711a46d37813f0010ffbd0194bf6
:100728001b4a1a621a46536813f0040ffbd1154b83
:10073800184a5a621a46536813f0080ffbd1114b36
:100748004122c3f80c211a46d2f80c3113f0400f9d
:10075800fad00c4b4122c3f828211a46d2f8283186
:1007680013f0400ffad0094b6ff07f421a6140f244
:10077800ff725a6140f202221a6270470014004068
:1007880006013000001c0040001000400008004036
:08079800070101000701020046
:020000040000fa
:1007a0002de9ff41836946690093f61acde901619d
:1007b00004461746039216444ff002086d4642461f
:1007c0002946206800f050fbb04209d1d4e902323a
:1007d000c4e905331a44a262384604b0bde8f0818a
:1007e00000280dda6268002342f01002b8f1020f0f
:1007f000a362c4e90533626015d06b68ff1aebe7aa
:100800006b68984288bf0835a6eb000688bfc01aff
:100810002b6803442b606b68a3eb000088bf08f1d2
:0a082000ff386860cbe71f46d6e7fb
:020000040000fa
:02082a00704715
:020000040000fa
:10082c0008b5194b9847194b9847eff3108172b6de
:10083c00174ad2f8883043f47003c2f88830bff3fb
:10084c004f8fbff36f8f01b962b6124a936823f0d2
:10085c00010393601346da6812f0010ffbd10d4bc4
:10086c0024225a6001229a6000f012fc0a4b23f0f9
:10087c007f03074a9360094b9847094b9847094bec
:10088c00984700f06dfbfee7ad100000ad100000c6
:10089c0000ed00e00060004100000000ed090000e8
:0808ac00ad100000ad100000ca
:020000040000fa
:1008b400f8b5846a05460f46164654b1ab6a6a69b0
:1008c4009b1ab3420bd2324639462846fff766ffdd
:1008d400f8bd00f093fb0028f0d02046f8e7002e86
:1008e400f1d095f93430002b1bdbdbb23446621ea9
:1008f400b95c994212d1224639462846fff74eff89
:10090400a042e5d32744341b22463946686900f0e7
:1009140097fb6b691c446c613046d9e71446002a86
:06092400e5d13446f0e7c6
:020000040000fa
:02092a00fee7e6
:020000040000fa
:10092c0070b5144b144a0021934206d3134a002588
:10093c00d2e9003123b919b970bd03f8011bf3e7f3
:10094c00946858180c3294b11446834208d111f0b3
:10095c00030318bf012303eb910102eb8102e7e7cc
:10096c0014f8016b03f8016befe703f8015b8342aa
:10097c00fbd1dde700000020000000203004000067
:020000040000fa
:10098c007fb5c36800911546002b18bf013a019240
:10099c0082680446cde902230e46022269460068ad
:1009ac0000f02cfa002808dc00f0180383f0080291
:1009bc0063681343636005460fe0019a8242fad2e2
:1009cc00a368e363801ae268184420642ab15a1cb5
:1009dc00e2632e441b7806f8013c284604b070bd37
:020000040000fa
:1009ec000e4a38b5002313600d4a0e4c13600e4aa4
:1009fc000e4d13600e4a13600e4a13600e4a53627a
:100a0c0013610123936000f031fb00f04afbac4210
:100a1c0000d338bd54f8043b9847f8e78c06002007
:100a2c00200600206c0200001c0600207002000052
:0c0a3c00140600201806002024060020ec
:020000040000fa
:100a4800202122232424252526262727282828284c
:100a5800292929292a2a2a2a2b2b2b2b2c2c2c2ce6
:100a68002c2c2c2c2d2d2d2d2d2d2d2d2e2e2e2eae
:100a78002e2e2e2e2f2f2f2f2f2f2f2f0001170224
:100a88001d1813031e1b190b1408040d1f161c1226
:0c0a98001a0a070c1511090610050f0eb4
:020000040000fa
:100aa40038b50d46044608b9002038bd43689b0696
:100ab40007d5d0e905239a4216d80023c4e90533a3
:100ac400a362d4e90f13994204d20122c91a2068ff
:100ad40000f0e6fa0023c4e90f33002de4d02068c7
:100ae400bde8384000f0d5ba0022c36a11469847e1
:0c0af4006369002be1d14ff0ff30d6e722
:020000040000fa
:100b000070b5d0e90245a54217d10122a1f1200319
:100b1000c1f1200622fa06f602fa03f333438a40b3
:100b2000db43d6431ab10b490a6832400a605a1cab
:100b30001fbf084a51680b4053604368ac6043f0e4
:100b4000010223f00103e5604260c25842f0010255
:080b5000c25070bd0804002032
:020000040000fa
:100b580010b370b506460d4600f03af9d5b1002439
:100b68000e4a137e13f0040ffbd0538b13f0070fbc
:100b78000bd1536803f00703012b936a14bf335555
:100b880026f814300134a542ebd1a54214bf002049
:100b9800012070bd2c46f8e7002070470004004390
:020000040000fa
:100ba800022a70b5044616461d461ad043689b06ad
:100bb80017d441b9002d08bf4ff4806505f108002e
:100bc800fff75afb01466368012e43f02003636078
:100bd800c4e9021514bfff230a2384f83430024bfa
:0c0be800e362002070bd00bfb5080000f3
:020000040000fa
:100bf400d0b110b40446c9b1084421460c4a644239
:100c0400137e13f0010ffbd0536803f00703012b8d
:100c140014bf0b7834f81130936201318142efd163
:100c240001205df8044b7047002070470120f8e76d
:040c34000004004375
:020000040000fa
:100c380010b5054c227832b9044b13b10448aff310
:100c480000800123237010bd64060020000000000e
:100c58000000000008b5034b1bb103490348aff37c
:100c6800008008bd000000006806002000000000a9
:020000040000fa
:100c780008b500f0edf90c4b1b680021186800f06e
:100c8800eff90a4b1b680021186800f0e9f900f039
:100c980057f9fff70dfdfff7c4fd00f07ff800f0ee
:100ca80045f800f025f808bd9c06002080070020c4
:020000040000fa
:100cb8000c4a036810b5546a0b4a591e121b8a4223
:100cc8000ad22bb1094b0c221a604ff0ff3010bd2d
:100cd800102202600020fae7173323f00f030360a5
:100ce800f8e700bf24060020efffff7f90060020f2
:020000040000fa
:100cf8000d4bda6822f4e0621204120c42f0bf6273
:100d080042f40032da60bff35f8f62b65a6a42f487
:100d180080225a625a6942f010025a615a6a42f4b1
:0c0d280000325a62704700bf00ed00e08e
:020000040000fa
:100d34000c4b01221a701a7812f0010f03d09a6832
:100d440012f0010ff7d1074b06225a700222da8102
:100d54001a7842f002021a701a46936813f0020fce
:080d6400fbd17047002400439d
:020000040000fa
:100d6c0000090138202813d9b0f5007f05d2094bb2
:100d7c0003ebd00010f8040c7047b0f5e05f06d818
:100d8c00044b03ebd01010f8040c103070473f20cc
:080d9c00704700bf480a000087
:020000040000fa
:100da4000a4b0b4a1a604ff658729a814ff440323c
:100db4005a601a46d369002bfcd1044a136843f0e5
:100dc40002031360d369002bfcd170470004004375
:040dd40004012040b6
:020000040000fa
:100dd8000a4b5b8b13f0070f0ed0084b80221a7654
:100de80007225a831b7e13f0040f05d0034b9a6a1f
:100df8001a7e12f0040ffad1704700bf00040043b6
:020000040000fa
:100e08002de9f843002580460e4617462c4601f189
:100e18000409bc4202db2846bde8f88359f83420af
:100e280056f83410404600f0bdf801340544f0e7a8
:020000040000fa
:100e380070b505462c68e30701d500200fe0204671
:100e4800fff790ff064600f09df82868a042f1d110
:100e580020f00100281a3146fff74efe012070bd30
:020000040000fa
:100e68002de9f843002580460e4617462c4601f129
:100e78000409bc4202db2846bde8f88359f834204f
:100e880056f83410404600f09cf801340544f0e769
:020000040000fa
:100e9800426822f00102531a102b30b40dd94418bd
:100ea80041f0010543f001034550636083504560fc
:0e0eb80004f1080030bcfff77fbb30bc704770
:020000040000fa
:100ec60070b505466c68e30701d500200de02046a5
:100ed600fff749ff064600f056f86b68a342f1d1ca
:0c0ee60028463146fff709fe012070bdd0
:020000040000fa
:020ef200fee719
:020000040000fa
:100ef400074b1968024609b906491960186806497a
:100f040002448a4294bf1a604ff0ff30704700bf1a
:0c0f1400940600208807002088090020b7
:020000040000fa
:100f200090f948305a1e1343426880f8483012f056
:100f300004031bbf42f010024260c0e90f334ff0c0
:080f4000ff3008bf184670479e
:020000040000fa
:100f4800074b012283f84520102183f8321083f8db
:100f5800d02083f8d120222283f8b820704700bf20
:040f680000800041c4
:020000040000fa
:100f6c0070b50020fff782fe012640f2ff35002409
:100f7c00a1b2304600f032f80134ac42f8d1f6e7b9
:020000040000fa
:100f8c00064b013053f830203ab9c100a1f10802e8
:100f9c001a44194443f830204a6070470804002072
:020000040000fa
:100fac0038b550b952b10c46012529462046fff7f9
:0e0fbc00cdfd0028f9d0012000e0002038bd56
:020000040000fa
:100fca0038b50d461446012801d0204638bd2146c1
:0c0fda002846fff70afe0028f9d0f6e7d1
:020000040000fa
:020fe600fee724
:020000040000fa
:100fe800c1f30b01034b59821a46936813f0080f9b
:080ff800fbd170470024004307
:020000040000fa
:1010000010b50446fff78cff28b9a368e268c4e96d
:0810100005331344a36210bd77
:020000040000fa
:101018000068002808b501da002008bdfff766ff60
:06102800431cfad1f8e7b9
:020000040000fa
:02102e00fee7db
:020000040000fa
:1010300008b500f029f8024b1860586008bd00bfe1
:041040008006002006
:020000040000fa
:1010440010b500239a4200d110bdcc5cc4540133c6
:02105400f8e7bb
:020000040000fa
:02105600fee7b3
:020000040000fa
:10105800024b40f204521a80704700bf0040004122
:020000040000fa
:1010680000294ff480630cbf02220022fff798bdcd
:020000040000fa
:1010780008b5fff7d9ff00f017f800f015f808bd1c
:020000040000fa
:08108800004870470407002036
:020000040000fa
:061090000068fff79abfa3
:020000040000fa
:061096004ff0ff3070472f
:020000040000fa
:04109c00fff746bc58
:020000040000fa
:0410a0000020704775
:020000040000fa
:0410a4000020704771
:020000040000fa
:0210a800fee761
:020000040000fa
:0210aa00fee75f
:020000040000fa
:0210ac0070478b
:020000040000fa
:0610ae0070477047704717
:020000040000fa
:0200000400807a
:044000003912003c35
:020000040000fa
:0200000400807a
:044004008000a82a66
:020000040000fa
:0200000400807a
:04400800ffffffffb8
:00000001FF
