:020000040000fa
:10000000f8ff03206d210000672800009f2b0000ef
:10001000672e0000eb2e00004531000000000000bc
:100020000000000000000000000000006b21000044
:100030001b2d0000000000006b2100006b21000060
:100040006b2100006b2100006b2100006b21000080
:100050006b2100006b2100006b2100006b21000070
:100060006b2100006b2100006b2100006b21000060
:100070006b2100006b2100006b2100006b21000050
:100080006b2100006b2100006b2100006b21000040
:100090006b2100006b2100006b2100006b21000030
:1000a0006b2100006b2100006b2100006b21000020
:1000b0006b2100006b2100006b2100006b21000010
:1000c0006b2100006b2100006b2100006b21000000
:1000d0006b2100006b2100006b2100006b210000f0
:1000e0006b2100006b2100000000000000000000f8
:1000f000000000006b2100006b2100006b2100005c
:100100006b2100006b210000e51c0000e51c0000d5
:10011000e51c0000e51c00006b2100006b210000c5
:100120006b2100006b2100006b2100006b2100009f
:100130006b2100006b2100006b2100006b2100008f
:100140006b2100006b2100006b2100006b2100007f
:100150006b2100006b210000000000000000000087
:10016000000000000000000000000000000000008f
:1001700000000000000000006b2100006b21000067
:100180006b2100006b2100006b2100006b2100003f
:10019000000000006b2100006b2100006b210000bb
:1001a0006b2100006b2100006b2100006b2100001f
:1001b0006b2100006b2100006b2100006b2100000f
:1001c0006b2100006b2100006b2100006b210000ff
:1001d0006b2100006b2100006b2100006b210000ef
:1001e0006b2100006b2100006b2100006b210000df
:1001f0006b2100006b2100006b2100006b210000cf
:100200006b21000000000000000000006b210000d6
:100210006b2100006b2100006b2100006b210000ae
:100220006b2100006b2100006b2100006b2100009e
:100230006b2100006b2100006b2100006b2100008e
:100240006b2100006b2100006b2100006b2100007e
:100250006b2100006b2100006b2100006b2100006e
:020000040000fa
:10026000f8b500bff8bc08bc9e467047512a000094
:10027000f8b500bff8bc08bc9e4670472d2a0000a8
:020000040000fa
:080280007c0c000001000000ed
:020000040000fa
:100288002de9f04f2ded028bd2e9008997b0cde929
:100298000c138b6808930b690f90d1e900b614937f
:1002a800cd68002200234046494602f0c9fc40b907
:1002b8001bf0040f32d11bf00803059330d0202324
:1002c80003e089f0004399462d232b70089b03f126
:1002d800ff3a012305934c4929f0004300208b4243
:1002e80008bf80451fd10d9b413b192b059b94bf2f
:1002f800464947492b44184602f002ff284602f0b7
:10030800e3fecdf800b00246089b0f98294601f09d
:100318006dff17b0bdec028bbde8f08f2b23d4e73f
:10032800ddf820a0d7e7994208bf404509d20d9bc8
:10033800413b192b059b94bf364937492b44184636
:10034800dae7002200234046494602f0c9fc9fed47
:100358002c7b8ded027b48b300240d9802f0bcfe87
:10036800002ec3b20993c0f2e781672b5ad1002e41
:1003780008bf0126231d02dbb442c0f2ca816527eb
:1003880061e09ded067b8ded027b01340022234b5d
:10039800dde9020101f0fefa42464b46cde90601cd
:1003a80002f032fc0028ecd000271fe00446ede7fd
:1003b80014f5967f11da87b90022194b4046494651
:1003c80001f0e8fa002280468946154bdde9020172
:1003d80001f0e0facde902010127dde9020100227e
:1003e8000e4b01f004f8cde90201013cdde90223de
:1003f8004046494602f024fc0028d9d1ade700bfa9
:10040800000000000000f03f0000f07fc030000056
:10041800c4300000c8300000cc3000000000244088
:1004280000005043099f662f06f101060bd1002cee
:1004380004da9fedbb7b8ded027b0024099b672bc3
:1004480018bf361966279ded027bcde906898ded2b
:100458000a7b00230e93dde90a23dde9060100f09b
:10046800c6ff41ec100b01f027fd51ec100bb0ee6c
:10047800408af0ee608a02f06bfab0ee480af0eebd
:10048800680a069b1093079b159083f0004311930d
:100498009ded0a1b9ded102b02f0e2fc53ec102b96
:1004a80083f000430793dde90a01a14b8ded060aad
:1004b800002200f09cff0e9b01339e42cde90a0109
:1004c8000e93c8d100229b4b01f064facde90a01d2
:1004d80002460b46dde9060102f0b2fb002840f0b7
:1004e8008580dde90a23dde9060102f0f9fb10b198
:1004f800159bda077ad5dde90a234046494600f01c
:1005080057fe0022cde90601894bdde9020101f021
:1005180041fadde90623cde90a0102f001fb0028d2
:1005280069d0662f04f1010469d10136a146a9eb0f
:10053800060310934ff000080bf01003059ecdf84a
:1005480008801593109b994540f08380029b002bef
:1005580000f0c9800022652f05eb0600aa5529d1b5
:10056800149b1499013b9442ea54c1f1030ebcbf99
:10057800644201220a21002c40f0bc800eeb030cdf
:10058800bcf1000f00f3b680002a03f1ff3114bf5d
:100598002d222b226a540d9a413a023b192a98bf00
:1005a80045279e4205eb0301ef54aaf1020a01da3e
:1005b80002f0a6fd0bf00303022b7ff49faebaf105
:1005c800000f7ff79bae284602f07efd05eb0a037d
:1005d800059a824240f39980059b2b44184652465f
:1005e800302102f059fd0023089387e69fed4e7bea
:1005f8008ded0a7b7fe79ded027b8ded0a7b652ff4
:1006080014bfa1464ff0000991e7029a52b9b9f117
:10061800000f07da0e992e226a54012201360af1d8
:10062800ff3a029205eb0801aa19314403e04ff0a2
:10063800300002f8010b9142f9d108eb0602303381
:10064800aaeb080808f1ff3a561cab544ff0000813
:1006580027e00c9b0e961b69053bb3427ff676afed
:10066800dde90a23dde9060100f0c1fe41ec100bcb
:1006780001f022fc51ec100bb0ee408af0ee608adb
:1006880002f066f9159a09280346a8bf0923024310
:10069800bbd1099a672ab8d1b9f1000fc2da08f1bb
:1006a8000108069b1293079bb0ee480af0ee680a11
:1006b80083f0004313939ded0a1b9ded122b02f06e
:1006c800cffb53ec102b83f000430793dde90a01bd
:1006d8000022174b8ded060a00f089fe09f1ff395b
:1006e800cde90a012ee71bf0100f1ebf2e23ab55d4
:1006f80001362fe7b4fbf1fc013b01fb1c4430340d
:10070800ec540af1ff3a644635e72a5c1a5401387a
:100718005ee7002cbff696ae662784e6062629e635
:10072800000000000000f03f000000000000000092
:100738000000244000001440099b672beed01f46a0
:04074800062670e62b
:020000040000fa
:04074c0001f01ebfdb
:020000040000fa
:100750002de9f04f95b0cde912030b68089392eda7
:10076000007b4b680a938b6809930b690d93cc68e7
:100770000022002351ec170b8ded047b02f064fa8c
:1007800040b9089b580734d4089b13f0080732d0af
:10079000202306e0dde9042181f00043cde90423b4
:1007a0002d232370099b01275a1edde90403dff87e
:1007b000f8b223f000414ff0000a594508bf5045f8
:1007c0001bd1139b413b192b04eb070094bfb0498d
:1007d000b04902f099fcaf4802f07afc089b009304
:1007e0000246099b1298214601f004fd15b0bde8b0
:1007f000f08f2b23d5e7099ad7e7139b8b45a3f1fd
:10080000410308bf82450b9309d2192b04eb070063
:1008100094bfa149a14902f077fca048dce7302150
:10082000e1550b997b1c1a2934bf58217821e154da
:10083000931e079300220023dde90401023702f032
:1008400053fa002800f07b819fed8f7b8ded027bba
:1008500000260a9bdde90289002bdde904abb8bf65
:1008600018230e93002542464b465046594600f049
:10087000c2fd41ec100b01f023fb42464b4651ec0c
:10088000100b8ded100b01f089f802460b46504617
:10089000594602f043fc824b82468b46404649460d
:1008a000002201f07bf86b1c0c930a9b002b804606
:1008b000894606da002200235046594602f014fa0f
:1008c00028b90e9bab4200f3408101330c93002208
:1008d000744b4046494601f061f88046894602461d
:1008e0000b465046594602f0aff9002840f02f81e0
:1008f00042464b465046594602f0f6f930b1dde922
:10090000100102f029f8c10740f1218142464b460f
:10091000dde9040100f050fccde90401dde904212a
:1009200021f00043604900208b4208bf82423ff41f
:1009300048af4ff000083d46c246c1460d9b053bff
:10094000ab42ab4633d9dde90223dde9040100f017
:1009500052fd41ec100b01f0b3fa51ec100b8ded90
:100960000e0b01f0f9ff002840f0f680b9f1000ffe
:1009700000f0f28008f10108dde90223dde90e0153
:1009800001f00cf802460b46dde9040102f0c6fb5b
:10099000434bcde904010022dde9020100f0feff36
:1009a0000c9b09f101094b45cde90201c6d1baf111
:1009b000000f1dd1b8f1000f00f015810a9b002b2c
:1009c00040f31181089bda0700f10d812e2308eb1b
:1009d0000502635522446319302103f8011f9a422e
:1009e000fbd1079b45446fea080843440135079350
:1009f0000d9b0d990022013b9642625504eb0500c8
:100a0000e254bcbf76420122c1f1020e4ff00a0847
:100a1000002e40f0d8800eeb030cbcf1010f00f06b
:100a2000d280002a03f1ff3114bf2d222b22625401
:100a30000b9a023b1a2a34bf502270229d4204ebcb
:100a40000301e25401da02f05ffb089b03f00303a9
:100a5000022b14d1079ba3f10208b8f1000f0edda1
:100a6000204602f035fb04eb0803b84280f2b78061
:100a700042463021e01902f013fb0023099320467f
:100a8000aae600bfaff30080000000000000f03fc6
:100a9000b0300000b4300000b8300000bc300000be
:100aa0000000b03f000020400000f07fcde9028947
:100ab0000136dde902231046194600f07dfb804631
:100ac000894602460b46dde9040102f0bdf8002824
:100ad000ecd0dff82cb1dff82c914ff0000a4ff08a
:100ae0000008dde90223dde9040102f0adf8002889
:100af0003ff4afae52465b46dde9020100f04eff27
:100b00000022002302f0f0f878b142464b46dde9be
:100b1000020100f043ff4246cde902014b46dde908
:100b2000040100f03bffcde90401dde9020152467a
:100b30005b4600f033ff013ecde90201d1e79fedb6
:100b40002e7b06468ded027bb3e70c9d8be64ff0c6
:100b500000084ff00009d9e6baf1000f0bd1b9f146
:100b6000000f08d02e2304f80b30079b013b013502
:100b700007934ff0010a04eb080362192b4403e0ca
:100b80004ff0300102f8011b9a42f9d1079b05eba7
:100b9000080ba3eb08080b9b0928d4bf3030573053
:100ba000192b06d840f02003613b192b01d802f025
:100bb0009efa08f1ff330bf1010504f80b000793cf
:100bc0004ff00008d8e60799b6fbf8fc013b08fb9c
:100bd0001c6630360139e6540791664618e7225cf8
:100be0001a54013841e7089bdb067ff501af2e233d
:100bf00063550135fce600bf000000000000f03f37
:080c00000000e03f000050433a
:020000040000fa
:100c08002de9f04fadb00027dff8e4a203910646c6
:100c18001546b8464ff0ff3903990b78002b00f0c2
:100c2800f9800cabcde907890a938023cdf824809d
:100c38000b9300240b5d0bb1252b26d134b1224632
:100c4800304601f08bff039b23440393039b1a78e0
:100c5800252a40f0d78003f1010bcdf80cb003989a
:100c680003782b2b1ad025d8202b1bd0232b1dd053
:100c78002a2b27d001f091fe0990039b1a78303a6d
:100c8800092a2ed801330393f7e70134d2e7079beb
:100c980043f00103013007930390e0e7079b43f01b
:100ca8000403f7e7079b43f00803f3e7079b43f0c8
:100cb8001003efe72d2bead0302bd9d1079b43f057
:100cc8000203e7e72b681a1d1b682a600130002b16
:100cd8000390099305da079a5b4282f001020792b2
:100ce8000993079bda0744bf23f002030793039b8a
:100cf8001a782e2a0dd1581ccdf8208003905a78e6
:100d08002a2a25d1023303932b681a1d1b682a60ef
:100d1800089303a801f05cff039b0190187802f088
:100d2800dbf96928019979d032dc632800f0c680a4
:100d380019dc252800f0d080612853d025238df8b0
:100d48001030cdf80cb0cdf81c80cde90898c0e083
:100d580001f023fe0890039b1a78303a092ad8d864
:100d680001330393f7e7642858d06728e6dc2a465e
:100d780004a802f0a1f8002800f09c80039b5a1cec
:100d880003921b7804aa07a93046fff779fa38e0de
:100d9800702873d015dc6e2800f087806f28cdd1bd
:100da8002b46002204a801f0edf8002800f082800c
:100db800039b04aa013307a93046039301f00bfbf8
:100dc8001fe075283ad0782848d07328b6d18029f2
:100dd80070d1039b2a6801330393131d2b6012689b
:100de80000235be02a4604a802f066f8002861d0d8
:100df800039b5a1c03921b7804aa07a93046fff7e5
:100e0800a3fc04443c44a7426edd384b4f221a60d1
:100e18004ff0ff3738462db0bde8f08f2b46012242
:100e280004a801f0aff8002844d0039b04aa0133ba
:100e380007a93046039301f0fbf8e2e72b460022ae
:100e480004a801f09ff8002834d0039b04aa0133ba
:100e580007a93046039301f0d7fcd2e72b460022be
:100e680004a801f08ff828b3039b5a1c03921b783f
:100e780004aa07a9304600f025fec2e72b46002247
:100e8800f02104a801f07ef8a0b1039b013303937d
:100e9800dde90423134306d10023524607a930464f
:100ea80001f086fcade77823e2e72b463a1904a85f
:100eb80001f0dcf9039b01330393a3e78029f9d1ff
:100ec800039b013303932b681a1d1b682a608df856
:100ed8001030012304aae1e78029ebd1039b8df8a8
:100ee800100001330393f4e7274695e6c80800206d
:040ef800ec2f0000db
:020000040000fa
:100efc002de9f04f099f154604468e461e46002be1
:100f0c0040f0cc808a42b2fa82fc4cd9bcf1000f82
:100f1c000bd0ccf1200801fa0cfe20fa08f802faea
:100f2c000cf548ea0e0e00fa0cf44fea15491ffabc
:100f3c0085f8befbf9fa210c09fb1ae30afb08fb46
:100f4c0041ea03439b452ad9eb180af1ff3004d23e
:100f5c009b4502d9aaf102002b44a3eb0b03a4b2cc
:100f6c00b3fbf9f209fb123302fb08f844ea034421
:100f7c00a04516d92c1902f1ff3303d2a04501d993
:100f8c00931e2c44a4eb080443ea004027b124fa36
:100f9c000cf400233c607b603146bde8f08f50467a
:100fac00dbe71346eee702b9ffdebcf1000f2ed1f2
:100fbc008b1a01264fea154eaab2b3fbfef8210c90
:100fcc000efb183308fb02f941ea0343994561d93a
:100fdc00eb1808f1ff3004d2994502d9a8f10200b0
:100fec002b44a3eb0903a4b2b3fbfef10efb1133ac
:100ffc004a4344ea0344a2424ed92c1901f1ff336f
:10100c0003d2a24201d98b1e2c44a41abce7ccf10a
:10101c00200e02fa0cf521fa0ef901fa0cf320fa63
:10102c000efe4eea03034fea154800fa0cf4b9fb26
:10103c00f8f11ffa85fe08fb1192180c01fb0ef655
:10104c0040ea0242964221d9aa1801f1ff3003d29c
:10105c00964201d9881e2a44921b9bb2b2fbf8f926
:10106c0008fb192209fb0efe43ea02439e450fd9e9
:10107c00eb1809f1ff3604d29e4502d9a9f10206fc
:10108c002b44a3eb0e0346ea004693e70846e3e73e
:10109c004e46f6e74046a4e70b46b6e78b4206d928
:1010ac00002f7ed00026c7e90001304674e7b3fa62
:1010bc0083fcbcf1000f0fd18b4201d3824209d8c3
:1010cc00841a61eb030e0120002f6dd0c7e9004e8e
:1010dc00002661e76046f7e7ccf1200e03fa0cf32b
:1010ec0022fa0ef521fa0ef41d4301fa0cf320fa44
:1010fc000ef10b434fea154a00fa0cf6b4fbfaf961
:10110c001ffa85f80afb19401c0c09fb08f144ea8c
:10111c000044a14202fa0cf23fd92c1909f1ff301c
:10112c0004d2a14202d9a9f102002c44641a9bb248
:10113c00b4fbfaf90afb194409fb08f843ea044129
:10114c0088452cd9691809f1ff3304d2884502d996
:10115c00a9f10203294443ea0040a1eb0801a0fbda
:10116c0002894945c2464c4602d306d1464504d2b3
:10117c00b8eb020a69eb05040138afb1b6eb0a0310
:10118c0061eb040606fa0efe23fa0cf34eea030397
:10119c0026fa0cf6c7e900369ae74846c6e74b46ee
:0c11ac00d9e73e463846f7e63e46f5e639
:020000040000fa
:1011b80030b591ea030f00f18280841a71eb030cb9
:1011c80005d2121953eb0c03001b71eb0c0140f212
:1011d800000ccff6e07c1cea430f52d0bceb410f69
:1011e8005fd90c0da4eb135e5ff0010c6cf31f517b
:1011f8006cf31f53def1200c2ad303fa0cf54019c7
:1012080041f1000122fa0ef5401923fa0ef5694161
:1012180012fa0cf2cd0208d349085fea30005feaff
:10122800320228bf42f001020134013c5fea500c4f
:1012380072f1004250f1000051eb04514ff40013d9
:1012480013eb410f38bf30bd6ff31301002030bde1
:10125800bef1200ebef1200f1ed223fa0ef5401962
:1012680041f10001cef1200c124218bf012203fa0d
:101278000cf52a43cee711ea5c0f04bf00200021d9
:1012880030bd1cea410f04bf01f00041002030bd11
:1012980001f00041002030bd21f4801101eb045120
:1012a80030bd004218bf41f00101bceb410f08bf3f
:1012b80030bd4ff0fe4141f47801002030bd83f08d
:1012c8000043841a71eb030e07d28ef0004e001b08
:1012d80071eb0e01121953eb0e0340f2000ccff61e
:1012e800e07c1cea430fc6d0bceb410f72d90c0d51
:1012f800a4eb135ec90241ea5051c00241f000411b
:10130800db0243ea5253d20243f00043def1200ce1
:1013180041d312fa0cf522fa0ef203fa0cf542ea5e
:10132800050218bf42f0010223fa0ef3801a994110
:10133800e30ac4f30a0411f0404f03d418d0013c67
:1013480040004941013c23d44205c00a40ea4150cb
:10135800c90a51eac3715fea500c72f1004250f1b8
:10136800000051eb045130bd01002fd00020203c7b
:101378000029f9d0b1fa81fcdcf1200e11fa0cf148
:1013880030fa0ef510fa0cf02943a4eb0c04d9e757
:101398000020d90730bdaef1200ebef1200f0dd2ce
:1013a800cef1200c03fa0cf533fa0ef32a4318bfda
:1013b80043f00103c01a61f10001b9e721f00041cf
:1013c800c00a40ea4150c90a01eb045130bd00206f
:1013d800002130bd004218bf41f00101bceb410fb4
:0e13e8007ff467afbceb430f3ff463af30bd43
:020000040000fa
:1013f600f0b581ea030e0ef0004e40f20007cff67c
:10140600e07717ea41051ebf95ea070f17ea43047e
:1014160094ea070f00f0c5806d0da5eb545707f54c
:1014260080674ff0004646eac12444ea5054c002a1
:1014360046eac32343ea5253d202801a9c4104d29d
:101446000018644180185c41013f5b084fea320294
:101456000025002140f001004ff0070604e0801a45
:101466009c4136d340416441801a9c4136d3404169
:101476006441801a9c4136d340416441801a9c41a4
:1014860036d340416441801a9c4136d34041644181
:10149600013e17d0801a9c4136d340416441801ae0
:1014a6009c4136d340416441801a9c4136d3404129
:1014b6006441090201eb156190ea052520f0ff0061
:1014c6004540cce7801a9c4156d335e080185c41f4
:1014d600c8d20018644180185c41c8d20018644123
:1014e60080185c41c8d20018644180185c41c8d29b
:1014f6000018644180185c41c8d200186441013e5e
:1015060017d080185c41c8d20018644180185c412d
:10151600c8d20018644180185c41c8d200186441e2
:10152600090201eb156190ea052520f0ff00454010
:10153600cce780185c411fd3420918bf44f0010470
:10154600490101ebd56100f01f0000eb451021f4c5
:10155600801141ea0e01013041f10001244208bf29
:1015660020f00100b7f5006f3eda013f49dd01ebdf
:101576000751bde8f0407047490101ebd56100f025
:101586001f0000eb451021f4801141ea0e01b7f56a
:10159600006f29da013f34dd01eb0751bde8f04069
:1015a6007047004218bf41f00101124218bf43f0d4
:1015b6000103b7eb410f2cbfb7eb430f1ce0b7ebb2
:1015c600410f04bfb7eb430f16e017ea410f04bf04
:1015d60017ea430f10e017ea410f12d017ea430f3c
:1015e60002d0b7eb430f0cd04ef0fe4141f4700130
:1015f6000020bde8f04070474ff0fe4141f478010d
:06160600f6e77146f4e76f
:020000040000fa
:10160c00640800201c0000000000000014060020ec
:10161c000001000000000000140700200001000081
:10162c0000000000800800201c00000000000000ea
:10163c009c0800201c00000000000000bc090020d9
:10164c001c0000000100000061626364656667684d
:10165c00696a6b6c6d6e6f70717273747576777876
:10166c00797a0a00c0080020040000000000000085
:10167c00140800205000000000000000d0080020da
:10168c006c00000001000000dc080020d8080020dd
:10169c00dc080020000000002500000008000020ed
:1016ac00000400000000000000000000000000002a
:1016bc00000000000000000000000000000000001e
:1016cc0000000000393100000000000000000000a4
:1016dc000000000000000000ed25000000000000ec
:1016ec0000000000000000000000000000000000ee
:1016fc0000000000000000200804000000000000b2
:10170c009c090020200000000100000001000000e6
:10171c0003000000000000000000000000000000ba
:10172c000000000000000000b8080020b8080020ed
:10173c000800000000000000c408002004000000a5
:10174c0000000000080400200c0200000000000053
:10175c003c090020600000000100000001000000b6
:10176c00030000000000000000000000000000006a
:10177c000000000000000000052700000000000031
:10178c0000000000000000002d3100004d31000071
:10179c00000000000000000000000000000000003d
:1017ac00000000000000000000000000000000002d
:1017bc00000000000000000000000000c80800202d
:1017cc000400000000000000cc0800200400000011
:1017dc0000000000000000000000000044444444ed
:020000040000fa
:1017ec002de9f04f87b0039003a801f059f90028b8
:1017fc0003da002007b0bde8f08f039b1b095d1ec8
:10180c00202d0fd9023b5e4ab3f5007f35bf02ebaa
:10181c00d30302ebd31313f8045c13f8045c34bf4a
:10182c00013511350123a5f12001c5f1200203fa80
:10183c0001f923fa02f203fa05f8d8f1000849ea93
:10184c00020969eb4909cde90089dff84081dff82d
:10185c0030914746d8e90023009902ea010a019920
:10186c0003ea010b5aea0b0342d1039b05a8103380
:10187c00059301f0d0fb18b9424b0c221a60b9e762
:10188c00d8f80852a84206d0059b103b05930123bb
:10189c0000f110058360059bea18012143f0010358
:1018ac00b5f1080442f8083c42f8041cc7f80822b9
:1018bc0045f8043c9dd0204601f05afa88b155f801
:1018cc00083c55f8041c23f00103e31a5a6822f073
:1018dc0001020a445a6055f8041c21f001016250bf
:1018ec001c462046039901f08bfa04f1080081e7ad
:1018fc005446254bbaf1000f34d1cbf1000000ea6d
:10190c000b00434309ebd36393f83c60203630461d
:10191c0001f020fb731c57f8334007ebc303083b63
:10192c009c4297d0272e26dd0235ae4201dc3f2e9d
:10193c0021d16268039922f00102551a284601f060
:10194c0029f9864217d1e068a6686318d8609e60b2
:10195c0083609868c36041f0010060505d60a550e1
:10196c006060bee7caf100002040434309ebd3633b
:10197c0093f83c60cbe73146204600f0ebfeb0e735
:10198c00a8260000c808002029e66b0708040020e0
:020000040000fa
:10199c00f0b540f2ff7681ea030c16ea115e1ebf29
:1019ac00b64516ea1355b54252d021ea465141f4d8
:1019bc008011a1fb024723ea465343f48013ae4443
:1019cc00a0fb03650cf0004c36197d41a1fb0347cd
:1019dc0047f10003a0fb0217f619654153f1000310
:1019ec00094218bf46f0010640f2fe74b3f5007fc1
:1019fc0013d2aef5806ea64523d24cea03312803f0
:101a0c0041ea155140ea16503203450872f1004282
:101a1c0050f1000051eb0e51f0bdaef2ff3ea64569
:101a2c000fd24ceac321e80241ea555140ea565024
:101a3c00f202450872f1004250f1000051eb0e51d8
:101a4c00f0bd1eea0e0f2dd50cf000410020f0bdac
:101a5c0016ea115f04bf01f000410020004218bfdc
:101a6c0041f0010116ea135f04bf03f000430022aa
:101a7c00124218bf43f0010306ea1354b44218bfd4
:101a8c00b64503d00cf000410020f0bd21f0004120
:101a9c0023f00043b1eb065f0cd8b3eb065f09d81b
:101aac0041b13bb10cf0004141f0fe4141f47001f9
:101abc000020f0bd40f20001c7f6f8710020f0bd27
:020000040000fa
:101acc002de9f04fd1e901590e68d1f80c808bb09b
:101adc00002da8bf26f002060393b8bf012516f00f
:101aec00100302900f460493d2e900ab37d05aeaa8
:101afc000b0334d0a9f102033c6916f0080104f180
:101b0c00ff3405914ff0000108f8041006f00201b3
:101b1c000691039918bf03f1ff335b1b4139012c6c
:101b2c001fdc049b002b4cd1059b1bb1013c2023db
:101b3c0008f804303a690096013a4b46121b08eb40
:101b4c000401029800f050fb029b5b68db0503d597
:101b5c007b689842b8bf18460bb0bde8f08f4b4677
:101b6c00cae75aea0b0007d1002d05dc58190028ea
:101b7c00d7dd06980028d4d00af00f000928d4bf6e
:101b8c0030305730192904f1ff340ed840f0200cb6
:101b9c00acf1610cbcf1190f07d8cde908310792f3
:101bac0001f09ffadde90831079a08f804004feac2
:101bbc001a1040ea0b704fea1b1c013d8246e346ab
:101bcc00ade7d2e900231343aed008eb0403039a2c
:0e1bdc0003f8012c023c302308f80430a4e783
:020000040000fa
:021bea00704742
:020000040000fa
:101bec002de9f84300286ad050f8043ca0f1080411
:101bfc0023f00106a719a259934200d0ffde7a68a0
:101c0c0023681340da070fd4204601f0b1f80028fe
:101c1c0057d1384601f00bf90028f0d07b6823f03f
:101c2c0001031e441f44eae746f00103636030469b
:101c3c003b6000f0afff054601f08cf923687a6831
:101c4c001340db07e0d5dff88ce0dee90089c5f155
:101c5c00200ca5f1200228fa05f009fa0cfc29fa4f
:101c6c0002f240ea0c001043012100ea01020023b9
:101c7c001343c5f120007346a5f1200212d121fabd
:101c8c0000f001fa02f2a94042ea00021ebfdef89f
:101c9c0000000143cef8001022b1def804100a4314
:101cac00cef80420681c03ebc003a3f108026660a5
:101cbc003e60a2605a68e2605c60e3689c60bde8cc
:101ccc00f883236823f00103e41a636823f001030b
:081cdc001e449ee708040020ed
:020000040000fa
:101ce40010b5374b1c7ee4b21b7e13f0080f53d1a2
:101cf400334b5b8b13f0040f11d00422314bda60a9
:101d04002f4b5a831b7e13f0040f05d02c4b9a6a79
:101d14001a7e12f0040ffad1294b80221a76284b2e
:101d24001b7e13f0040f0cd0254b9a6a254b9b693c
:101d3400ff2b06d8234b9969234842549a690132f0
:101d44009a611f4b1b7e13f0010f14d01d4b5a696f
:101d54001b699a422fd21b4b5a691c49895c5a69e8
:101d640001325a61164b1b7e03f00203002b18bf8d
:101d74000224134b996214f0020f0cd0104b022270
:101d84001a76104b00221a705a611a615b6813b1fb
:101d94000c4a9068984710bd094b08221a76022213
:101da4009a75084b00229a61012119700a46084865
:101db40001f0a2f99ce7024b01221a75dbe700bf90
:101dc400003400408008002014060020140700207e
:041dd400008000414a
:020000040000fa
:101dd800324b00221a7403f50063314a9a621a469c
:101de800536813f0100ffbd12e4b4222c3f8842006
:101df8001a46d2f8843013f0400ffad02a4b00224a
:101e08009a6377225a631a46d36b13f0040ffbd1f7
:101e1800254b022283f830201a46d36b13f0020fa9
:101e2800fbd1214a136c03f00303032bfad11f4b98
:101e380001225a711a46d37813f0010ffbd0194bbf
:101e48001b4a1a621a46536813f0040ffbd1154b4c
:101e5800184a5a621a46536813f0080ffbd1114bff
:101e68004122c3f8a0201a46d2f8a03013f0400f40
:101e7800fad00c4b4122c3f80c211a46d2f80c3187
:101e880013f0400ffad0094b6ff07f421a6142f20b
:101e9800ff725a6102221a62704700bf00140040a4
:101ea80006013000001c00400010004000080040ff
:081eb80007010100070102000f
:020000040000fa
:101ec00053ec102bc3f30a512de9f04140f2fd70a1
:101ed0004e1e86421d4645d8a1f2ff30002835db54
:101ee000332831dc284bc0f120084ff0ff3c03fac7
:101ef00008f2a1f21f412cfa00fc10ee104a4cea45
:101f0000020c23fa01f24cea020c23fa00fe04ea66
:101f10000c0605ea0e0724ea0c0256ea070425ea35
:101f20000e030fd0002a73f100040bda4ff4801572
:101f300005fa08f425fa01f10c43121925fa00f00c
:101f400040eb030343ec102bbde8f081002a73f152
:101f5000000303db9fed080bbde8f0819fed080b4c
:101f6000bde8f0810029efd10a4603f0004343ecbd
:101f7000102be9e7aff30080000000000000000034
:0c1f8000000000000000f0bfffff0f0099
:020000040000fa
:101f8c00882910b536d012dc812943d003dc802996
:101f9c0040d0002010bd82290ed08429f9d11968b7
:101fac0002b30a1d1a60b1f90020d3171ee0a02954
:101fbc002bd00bdc9029ecd11968073121f00701eb
:101fcc0001f108021a60d1e900230fe0c02901d009
:101fdc00f029ded11a68111d196013680360002303
:101fec00436005e00a1d1a600a880023c0e900233b
:101ffc000120cfe7196822b10a1d1a6091f900205f
:10200c00d3e70a1d1a600a78efe71a68111d1960e8
:10201c001268cae719681ab10a1d1a600a68c4e77f
:0c202c000c1d1c600b68c0e90032e1e7ed
:020000040000fa
:102038002de9f041d2e900230c4686b007465fea55
:10204800d37820684968a5680590e66841d052426f
:1020580063eb4303002908db20f002000590b8f188
:10206800000f02d1059948072ad5691e05a80290d4
:102078000a20cde90010204600f036f9b8f1000f2b
:1020880002d1059b59071fd5b8f1000f00f1ff30a9
:1020980014bf2d232b2333542269059b0093013a47
:1020a8002b46121a3118384600f0a0f87b68db0579
:1020b80003d563689842b8bf184606b0bde8f081fa
:1020c8000807d2d42946d1e71a07e5d501382023d5
:0820d800e1e70029c0dac5e7c9
:020000040000fa
:1020e0002de9ff41836946690093f61acde9016144
:1020f00004461746039216444ff002086d464246c6
:102100002946206800f052feb04209d1d4e90232db
:10211000c4e905331a44a262384604b0bde8f08130
:1021200000280dda6268002342f01002b8f1020fb5
:10213000a362c4e90533626015d06b68ff1aebe750
:102140006b68984288bf0835a6eb000688bfc01aa6
:102150002b6803442b606b68a3eb000088bf08f179
:0a216000ff386860cbe71f46d6e7a2
:020000040000fa
:02216a00fee78e
:020000040000fa
:10216c0008b5194b9847194b9847eff3108172b685
:10217c00174ad2f8883043f47003c2f88830bff3a2
:10218c004f8fbff36f8f01b962b6124a936823f079
:10219c00010393601346da6812f0010ffbd10d4b6b
:1021ac0024225a6001229a60fef7cafa0a4b23f0e5
:1021bc007f03074a9360094b9847094b9847094b93
:1021cc00984700f0adf9fee74731000047310000b9
:1021dc0000ed00e000600041000000004d26000012
:0821ec004731000047310000fb
:020000040000fa
:1021f4002de9ff471d460c9b13f0010906468a464c
:10220400144601d195420bd822465146304600f07f
:10221400a7fca54204d82546284604b0bde8f087ab
:102224002f1b102f3a464ff0200128bf102268467a
:10223400b84600f033ffb8f10f0f11d83b096ff027
:102244000f0202fb03726946304600f089fcb9f1c3
:10225400000fe1d122465146304600f081fcdbe715
:1022640010226946304600f07bfca8f11008e2e732
:020000040000fa
:10227400842910b523d00cdc812903d0822913d002
:1022840080290bd119680c1d1c600b6803601a604f
:1022940013e0902921d003dc882917d0002010bd39
:1022a400a029efd0c029ece719680c1d1c600b684d
:1022b4000360d1171046c3e900010120efe7196854
:1022c4000c1d1c600b6803601a80f6e719680c1d6e
:1022d4001c600b6803601a70efe719680c1d1c6022
:0c22e40009680160d317c1e90023e6e798
:020000040000fa
:1022f0002de9f84f04460c9f6668d4f80cb02469a9
:1023000010463a68013c002502f0020a0b9a0bf8cd
:102310000450002e1946b8bf0126012390464fea0b
:10232000e279002c03dcd3b12046bde8f88f50eaf7
:10233000010209d1721b002a06dc0a9a521b002aec
:10234000f1ddbaf1000feed042464b4600f046fdfb
:10235000013c134630320bf804200135e1e73b68bd
:0823600023f010033b60dfe7ee
:020000040000fa
:10236800f8b5846a05460f46164654b1ab6a6a69e1
:102378009b1ab3420bd2324639462846fff7acfec9
:10238800f8bd00f032fe0028f0d02046f8e7002e15
:10239800f1d095f93430002b1bdbdbb23446621eda
:1023a800b95c994212d1224639462846fff794fe75
:1023b800a042e5d32744341b22463946686900f019
:1023c80041fe6b691c446c613046d9e71446002a0b
:0623d800e5d13446f0e7f8
:020000040000fa
:1023de00f0b50c4649682368a768e56887b0002900
:1023ee000593a4bf23f00203059305ab02930823c4
:1023fe00cde900730646d2e900232046fff771ffb0
:10240e00059bd90642bf00f1ff3030232b54059bac
:10241e001a0742bf00f1ff3020232b542269059b7f
:10242e000093013a3b46121a29183046fff7dbfe9d
:10243e007368db0503d563689842b8bf184607b0ca
:02244e00f0bddf
:020000040000fa
:1024500070b5184eb57dedb23575b1f5807f28bfea
:102460004ff480710c460a460146134800f0eefd19
:10247000124b1c6100225a615a69337e13f0010f1e
:1024800011d0a2420fd20d4b0b4e0a495a69b25cd1
:102490008a625a6901325a6158690a7e12f0010f44
:1024a00001d0a042f2d345f00105024b9d752046b4
:1024b00070bd00bf003400401407002080080020d9
:020000040000fa
:1024c000184bda6822f4e0621204120c42f0bf6288
:1024d00042f40032da60bff35f8f62b6124ae02145
:1024e00082f832134ff48020506082f833134ff497
:1024f0000020506082f834134ff48010506082f84e
:1025000035134ff4001151605a6a42f480225a6226
:102510005a6942f010025a615a6a42f400325a6211
:0c252000704700bf00ed00e000e100e0ab
:020000040000fa
:10252c002de9f047002000f09bfadff84ca0dff813
:10253c004c8008f114090ae05146404600f0f8fcc2
:10254c00484600f0f5fc1c210a4800f047fa094cfb
:10255c00094d04f11c0701263146204600f08afb88
:10256c0031462846fff76eff01340135bc42f3d1ea
:10257c00e2e700bf9c080020bc090020ec2e000004
:020000040000fa
:10258c0070b5144b144a0021934206d3134a00250c
:10259c00d2e9003123b919b970bd03f8011bf3e777
:1025ac00946858180c3294b11446834208d111f037
:1025bc00030318bf012303eb910102eb8102e7e750
:1025cc0014f8016b03f8016befe703f8015b83422e
:1025dc00fbd1dde700000020000000200c160000fd
:020000040000fa
:1025ec007fb5c36800911546002b18bf013a0192c4
:1025fc0082680446cde902230e4602226946006831
:10260c0000f09efb002808dc00f0180383f00802a1
:10261c0063681343636005460fe0019a8242fad265
:10262c00a368e363801ae268184420642ab15a1c38
:10263c00e2632e441b7806f8013c284604b070bdba
:020000040000fa
:10264c000e4a38b5002313600d4a0e4c13600e4a27
:10265c000e4d13600e4a13600e4a13600e4a5362fd
:10266c0013610123936000f00dfd00f067fdac4297
:10267c0000d338bd54f8043b9847f8e7c408002051
:10268c00200800206c0200001c08002070020000d2
:0c269c001408002018080020240800206a
:020000040000fa
:1026a80020212223242425252626272728282828d0
:1026b800292929292a2a2a2a2b2b2b2b2c2c2c2c6a
:1026c8002c2c2c2c2d2d2d2d2d2d2d2d2e2e2e2e32
:1026d8002e2e2e2e2f2f2f2f2f2f2f2f00011702a8
:1026e8001d1813031e1b190b1408040d1f161c12aa
:0c26f8001a0a070c1511090610050f0e38
:020000040000fa
:1027040038b50d46044608b9002038bd43689b0619
:1027140007d5d0e905239a4216d80023c4e9053326
:10272400a362d4e90f13994204d20122c91a206882
:1027340000f004fd0023c4e90f33002de4d0206829
:10274400bde8384000f0f3bc0022c36a1146984744
:0c2754006369002be1d14ff0ff30d6e7a5
:020000040000fa
:1027600070b5d0e90245a54217d10122a1f120039d
:10277000c1f1200622fa06f602fa03f333438a4037
:10278000db43d6431ab10b490a6832400a605a1c2f
:102790001fbf084a51680b4053604368ac6043f068
:1027a000010223f00103e5604260c25842f00102d9
:0827b000c25070bd08040020b6
:020000040000fa
:1027b8002de9ff41134dd1f80080af88adf80c70ba
:1027c80006462868029002aca8798df80e00002a07
:1027d80018bf1446d1e901571a461bb9204600f024
:1027e80073fc0246002d02dbaa4228bf2a46cdf818
:1027f80000803b4621463046fff7f8fc04b0bde8b0
:08280800f08100bf2431000043
:020000040000fa
:10281000f0b50c4649682368a668e76887b00029c8
:102820000593a4bf23f00203059305ab02930a238b
:10283000cde900630546d2e900232046fff758fda5
:102840002269059b0093013a3346121a391828462b
:10285000fff7d0fc6b68db0503d563689842b8bf0f
:06286000184607b0f0bdb0
:020000040000fa
:02286600fee78b
:020000040000fa
:1028680008b50f4b0f4a5a601a46d369002bfcd1a2
:102878000b4b0d4a1a601a46d369002bfcd10b4b3f
:1028880000229a615a611a61da605a601a70044b20
:102898000c2199750121064800f02cfc08bd00bfe9
:1028a80000340040400202008a0130008008002005
:0428b800008000415b
:020000040000fa
:1028bc0010b370b506460d4600f02afad5b10024c7
:1028cc000e4a137e13f0040ffbd0538b13f0070f3b
:1028dc000bd1536803f00703012b936a14bf3355d4
:1028ec0026f814300134a542ebd1a54214bf0020c8
:1028fc00012070bd2c46f8e700207047000400430f
:020000040000fa
:10290c00022a70b5044616461d461ad043689b062b
:10291c0017d441b9002d08bf4ff4806505f10800ac
:10292c00fef75eff01466368012e43f020036360ef
:10293c00c4e9021514bfff230a2384f83430024b78
:0c294c00e362002070bd00bf69230000a2
:020000040000fa
:10295800c1f30a5340f21e42d21a0edd202a0ad8c9
:10296800cb0243ea505040f00040d04090eae1707a
:10297800b0ebe1707047002070474b00004218bf71
:1029880043f0010313f5001f88bf21f0004111f047
:0a299800004058bf6ff00040704788
:020000040000fa
:1029a20010b50278202a034600f10100f9d0a2f105
:1029b20009010429f5d92b2a07d02d2a11d1012189
:1029c2000133013b00200a2403e00021f8e76043c1
:1029d200801a13f8012f303a092af8d901b9404276
:0629e20010bd0021ede72d
:020000040000fa
:1029e800d0b110b40446c9b1084421460c4a644227
:1029f800137e13f0010ffbd0536803f00703012b7c
:102a080014bf0b7834f81130936201318142efd151
:102a180001205df8044b7047002070470120f8e75b
:042a28000004004363
:020000040000fa
:102a2c0010b5054c227832b9044b13b10448aff3fe
:102a3c0000800123237010bd6408002000000000fa
:102a4c000000000008b5034b1bb103490348aff36a
:102a5c00008008bd00000000680800200000000095
:020000040000fa
:102a6c0008b500f0fffa0c4b1b680021186800f049
:102a7c0001fb0a4b1b680021186800f0fbfa00f000
:102a8c002ff8fff7a3f9fff7e9fefff7a8f800f01e
:102a9c000bf9fff70ffd08bdd4080020b809002082
:020000040000fa
:102aac000c4a036810b5546a0b4a591e121b8a4211
:102abc000ad22bb1094b0c221a604ff0ff3010bd1b
:102acc00102202600020fae7173323f00f03036093
:102adc00f8e700bf24080020efffff7fc8080020a4
:020000040000fa
:102aec000d4b4ff480221a60012283f8502083f89a
:102afc005120022183f8521083f85320222183f8ad
:102b0c003810202083f8390083f8d02083f8d120a6
:0c2b1c0083f8b810704700bf0080004133
:020000040000fa
:102b28004ff4001c1ceb410f98bf1ceb430f11d84e
:102b380051ea030c50ea4c0c5cea020c0cd004d2ab
:102b480082428b41804101307047904299418041d7
:0c2b5800013070470020704701207047da
:020000040000fa
:102b640038b5436813f4807f0446154610d00369d2
:102b740040699a4228bf1d462a4600f065fa6269f8
:102b84005319636123695b1b23610023535538bdcb
:0a2b9400db06fcd400f037faf9e785
:020000040000fa
:022b9e00fee750
:020000040000fa
:102ba00000090138202813d9b0f5007f05d2094b60
:102bb00003ebd00010f8040c7047b0f5e05f06d8c6
:102bc000044b03ebd01010f8040c103070473f207a
:082bd000704700bfa8260000b9
:020000040000fa
:102bd80030b50c4a002312f8134024b902eb430322
:102be8005b78184630bd01680d78a54209bf02eb35
:102bf800430301335b78013114bfdbb201600a2b58
:082c0800e9d9eee7d62f000028
:020000040000fa
:102c10004ff4001c1ceb410f98bf1ceb430f11d865
:102c200051ea030c50ea4c0c5cea020c0ad004d2c4
:102c300082428b418041404270479042994180419d
:082c400040427047002070477c
:020000040000fa
:102c48004ff4001c1ceb410f98bf1ceb430f11d82d
:102c580051ea030c50ea4c0c5cea020c0ad004d28c
:102c68009042994180414042704782428b41804165
:082c7800404270470020704744
:020000040000fa
:102c800038b50d46084b9c7de4b21c75074b9b691b
:102c90008b423cbf054b9d692a46054900f0d6f999
:102ca000014b9c75284638bd003400408008002048
:042cb00014060020e6
:020000040000fa
:102cb4000a4b0b4a1a604ff658729a814ff440320d
:102cc4005a601a46d369002bfcd1044a136843f0b6
:102cd40002031360d369002bfcd170470004004346
:042ce4000401124095
:020000040000fa
:102ce8004ff4001c1ceb410f98bf1ceb430f0cd892
:102cf80050ea410c08bf52ea430c08d0904208bf82
:102d080099420cbf01200020704700207047012025
:022d1800704702
:020000040000fa
:022d1a00fee7d2
:020000040000fa
:102d1c000a4b5b8b13f0070f0ed0084b80221a76f0
:102d2c0007225a831b7e13f0040f05d0034b9a6abb
:102d3c001a7e12f0040ffad1704700bf0004004352
:020000040000fa
:102d4c002de9f843002580460e4617462c4601f126
:102d5c000409bc4202db2846bde8f88359f834204c
:102d6c0056f83410404600f005f901340544f0e7fc
:020000040000fa
:102d7c0070b505462c68e30701d500200fe020460e
:102d8c00fff708ff064600f0e5f82868a042f1d1ed
:102d9c0020f00100281a3146fff7dcfc012070bd41
:020000040000fa
:102dac002de9f843002580460e4617462c4601f1c6
:102dbc000409bc4202db2846bde8f88359f83420ec
:102dcc0056f83410404600f0e4f801340544f0e7be
:020000040000fa
:102ddc0053b94ab9002908bf00281cbf4ff0ff3176
:102dec004ff0ff3000f0a4b9adf1080c6de904ce42
:102dfc00fef77ef8ddf804e0dde9022304b070474d
:020000040000fa
:102e0c00426822f00102531a102b30b40dd9441829
:102e1c0041f0010543f00103455063608350456068
:0e2e2c0004f1080030bcfef7dbbe30bc70477e
:020000040000fa
:102e3a0070b505466c68e30701d500200de0204611
:102e4a00fff7a9fe064600f086f86b68a342f1d1a7
:0c2e5a0028463146fff77ffc012070bdc8
:020000040000fa
:022e6600fee785
:020000040000fa
:102e680000b553ec112b83b051ec100b8ded002bfa
:102e7800fef790fd9ded002b53ec122bfef798f911
:0c2e880041ec100b03b05df804fb00bf30
:020000040000fa
:102e9400074b1968024609b90649196018680649ba
:102ea40002448a4294bf1a604ff0ff30704700bf5b
:0c2eb400cc080020e0090020e00b00200a
:020000040000fa
:102ec000802910db812901dd83290cd113680733a8
:102ed00023f0070303f108011160d3e90023c0e9df
:0a2ee0000023012070470020704716
:020000040000fa
:022eea00fee701
:020000040000fa
:102eec000a736c6176652073656e64203d202573d2
:102efc00000000000a736c61766520726563656979
:082f0c007665203d200000bfa6
:020000040000fa
:102f140090f948305a1e1343426880f8483012f042
:102f240004031bbf42f010024260c0e90f334ff0ac
:082f3400ff3008bf184670478a
:020000040000fa
:102f3c000fb407b5064b04aa1b6852f8041b18689b
:102f4c00019200f034f803b05df804eb04b0704764
:042f5c00b809002090
:020000040000fa
:102f6000064b013053f830203ab9c100a1f10802f4
:102f70001a44194443f830204a607047080400207e
:020000040000fa
:102f800038b550b952b10c46012529462046fff705
:0e2f900095fc0028f9d0012000e0002038bd9b
:020000040000fa
:102f9e0038b50d461446012801d0204638bd2146cd
:0c2fae002846fff71afd0028f9d0f6e7ce
:020000040000fa
:102fba0013b50446019201aafdf721fe636813f0d6
:0c2fca00100f18bf4ff0ff3002b010bd18
:020000040000fa
:102fd60068076c094c836a9074a07ac00080688880
:0c2fe60000846c820081286e696c290058
:020000040000fa
:102ff20010b50446fff78dff28b9a368e268c4e95b
:0830020005331344a36210bd65
:020000040000fa
:10300a0010b4c46a1cb123465df8044b1847006823
:08301a005df8044bfff7bebf97
:020000040000fa
:103022000068002808b501da002008bdfff731ff6b
:06303200431cfad1f8e78f
:020000040000fa
:1030380008b500f06bf8024b1860586008bd00bf77
:04304800b8080020a4
:020000040000fa
:10304c0010b500239a4200d110bdcc5cc45401339e
:02305c00f8e793
:020000040000fa
:10305e00034611f8012b184603f8012b002af8d16c
:02306e007047a9
:020000040000fa
:10307000024b40f204521a80704700bf00400041ea
:020000040000fa
:1030800000294ff480630cbf02220022fff73ebcf0
:020000040000fa
:1030900008b5fff7d1ff00f058f800f056f808bd6a
:020000040000fa
:1030a00002440346934200d1704703f8011bf9e73d
:020000040000fa
:1030b000494e4600696e66004e414e006e616e00dc
:1030c000494e4600696e66004e414e006e616e00cc
:020000040000fa
:1030d00003461a46013311780029fad1101a7047b5
:020000040000fa
:0e30e000a0f14103192b98bf40f0200070476b
:020000040000fa
:0e30ee00a0f16103192b98bf00f05f0070473e
:020000040000fa
:0c30fc0003695a400a405a4002617047c4
:020000040000fa
:0c31080010b50446fff7a7ff204610bddd
:020000040000fa
:08311400004870473c0900204f
:020000040000fa
:08311c0083f00043fef74ab8fe
:020000040000fa
:07312400286e756c6c290098
:020000040000fa
:06312c000068fff736bf4a
:020000040000fa
:063132004ff0ff30704772
:020000040000fa
:0431380000207047bc
:020000040000fa
:04313c00704700bf19
:020000040000fa
:0431400000207047b4
:020000040000fa
:02314400fee7a4
:020000040000fa
:023146007047d0
:020000040000fa
:063148007047704770475c
:020000040000fa
:0200000400807a
:044000003912003c35
:020000040000fa
:0200000400807a
:044004008000a82a66
:020000040000fa
:0200000400807a
:04400800ffffffffb8
:00000001FF
