:020000040000fa
:10000000f0ff032079100000eb120000d313000072
:10001000ef170000af1900009f1b00000000000058
:100020000000000000000000000000007710000049
:100030000b17000000000000771000008d1c00006e
:100040007710000077100000771000007710000094
:100050007710000077100000771000007710000084
:100060007710000077100000771000007710000074
:100070007710000077100000771000007710000064
:100080007710000077100000771000007710000054
:100090007710000077100000771000007710000044
:1000a0007710000077100000771000007710000034
:1000b0007710000077100000771000007710000024
:1000c0007710000077100000771000007710000014
:1000d0007710000077100000771000007710000004
:1000e0007710000077100000000000000000000002
:1000f000000000007710000077100000771000006b
:1001000077100000771000007710000077100000d3
:1001100077100000771000007710000077100000c3
:1001200077100000771000007710000077100000b3
:1001300077100000771000007710000077100000a3
:100140007710000077100000771000007710000093
:100150007710000077100000000000000000000091
:10016000000000000000000000000000000000008f
:100170000000000000000000771000007710000071
:100180007710000077100000771000007710000053
:1001900000000000771000007710000077100000ca
:1001a0007710000077100000771000007710000033
:1001b0007710000077100000771000007710000023
:1001c0007710000077100000771000007710000013
:1001d0007710000077100000771000007710000003
:1001e00077100000771000007710000077100000f3
:1001f00077100000771000007710000077100000e3
:1002000077100000000000000000000077100000e0
:1002100077100000771000007710000077100000c2
:1002200077100000771000007710000077100000b2
:1002300077100000771000007710000077100000a2
:100240007710000077100000771000007710000092
:100250007710000077100000771000007710000082
:020000040000fa
:10026000f8b500bff8bc08bc9e4670479d1800005a
:10027000f8b500bff8bc08bc9e467047791800006e
:020000040000fa
:08028000fc0200000100000077
:020000040000fa
:100288002de9f04fadb00027dff8e4a20391064650
:100298001546b8464ff0ff3903990b78002b00f04c
:1002a800f9800cabcde907890a938023cdf8248027
:1002b8000b9300240b5d0bb1252b26d134b12246bc
:1002c800304601f053fb039b23440393039b1a78a6
:1002d800252a40f0d78003f1010bcdf80cb0039824
:1002e80003782b2b1ad025d8202b1bd0232b1dd0dd
:1002f8002a2b27d001f054fa0990039b1a78303a38
:10030800092a2ed801330393f7e70134d2e7079b74
:1003180043f00103013007930390e0e7079b43f0a4
:100328000403f7e7079b43f00803f3e7079b43f051
:100338001003efe72d2bead0302bd9d1079b43f0e0
:100348000203e7e72b681a1d1b682a600130002b9f
:100358000390099305da079a5b4282f0010207923b
:100368000993079bda0744bf23f002030793039b13
:100378001a782e2a0dd1581ccdf8208003905a786f
:100388002a2a25d1023303932b681a1d1b682a6079
:10039800089303a801f008fb039b0190187801f06b
:1003a8007ffd6928019979d032dc632800f0c68086
:1003b80019dc252800f0d080612853d025238df83a
:1003c8001030cdf80cb0cdf81c80cde90898c0e00d
:1003d80001f0e6f90890039b1a78303a092ad8d830
:1003e80001330393f7e7642858d06728e6dc2a46e8
:1003f80004a801f0e7fb002800f09c80039b5a1c2e
:1004080003921b7804aa07a9304601f07dfd38e065
:10041800702873d015dc6e2800f087806f28cdd146
:100428002b46002204a800f033fd002800f082804b
:10043800039b04aa013307a93046039300f08cfffd
:100448001fe075283ad0782848d07328b6d180297b
:1004580070d1039b2a6801330393131d2b60126824
:1004680000235be02a4604a801f0acfb002861d019
:10047800039b5a1c03921b7804aa07a9304601f073
:1004880043fd04443c44a7426edd384b4f221a60ba
:100498004ff0ff3738462db0bde8f08f2b460122cc
:1004a80004a800f0f5fc002844d0039b04aa0133fb
:1004b80007a93046039300f041fde2e72b460022ee
:1004c80004a800f0e5fc002834d0039b04aa0133fb
:1004d80007a93046039301f0e9f8d2e72b4600223a
:1004e80004a800f0d5fc28b3039b5a1c03921b7880
:1004f80004aa07a9304600f04bfbc2e72b460022ae
:10050800f02104a800f0c4fca0b1039b01330393bd
:10051800dde90423134306d10023524607a93046d8
:1005280001f06cf8ade77823e2e72b463a1904a806
:1005380000f022fe039b01330393a3e78029f9d13e
:10054800039b013303932b681a1d1b682a608df8df
:100558001030012304aae1e78029ebd1039b8df831
:10056800100001330393f4e7274695e69c06002024
:04057800821d0000e0
:020000040000fa
:10057c002de9f04f099f154604468e461e46002b6a
:10058c0040f0cc808a42b2fa82fc4cd9bcf1000f0c
:10059c000bd0ccf1200801fa0cfe20fa08f802fa74
:1005ac000cf548ea0e0e00fa0cf44fea15491ffa46
:1005bc0085f8befbf9fa210c09fb1ae30afb08fbd0
:1005cc0041ea03439b452ad9eb180af1ff3004d2c8
:1005dc009b4502d9aaf102002b44a3eb0b03a4b256
:1005ec00b3fbf9f209fb123302fb08f844ea0344ab
:1005fc00a04516d92c1902f1ff3303d2a04501d91d
:10060c00931e2c44a4eb080443ea004027b124fabf
:10061c000cf400233c607b603146bde8f08f504603
:10062c00dbe71346eee702b9ffdebcf1000f2ed17b
:10063c008b1a01264fea154eaab2b3fbfef8210c19
:10064c000efb183308fb02f941ea0343994561d9c3
:10065c00eb1808f1ff3004d2994502d9a8f1020039
:10066c002b44a3eb0903a4b2b3fbfef10efb113335
:10067c004a4344ea0344a2424ed92c1901f1ff33f8
:10068c0003d2a24201d98b1e2c44a41abce7ccf194
:10069c00200e02fa0cf521fa0ef901fa0cf320faed
:1006ac000efe4eea03034fea154800fa0cf4b9fbb0
:1006bc00f8f11ffa85fe08fb1192180c01fb0ef6df
:1006cc0040ea0242964221d9aa1801f1ff3003d226
:1006dc00964201d9881e2a44921b9bb2b2fbf8f9b0
:1006ec0008fb192209fb0efe43ea02439e450fd973
:1006fc00eb1809f1ff3604d29e4502d9a9f1020686
:10070c002b44a3eb0e0346ea004693e70846e3e7c7
:10071c004e46f6e74046a4e70b46b6e78b4206d9b1
:10072c00002f7ed00026c7e90001304674e7b3faeb
:10073c0083fcbcf1000f0fd18b4201d3824209d84c
:10074c00841a61eb030e0120002f6dd0c7e9004e17
:10075c00002661e76046f7e7ccf1200e03fa0cf3b4
:10076c0022fa0ef521fa0ef41d4301fa0cf320facd
:10077c000ef10b434fea154a00fa0cf6b4fbfaf9ea
:10078c001ffa85f80afb19401c0c09fb08f144ea16
:10079c000044a14202fa0cf23fd92c1909f1ff30a6
:1007ac0004d2a14202d9a9f102002c44641a9bb2d2
:1007bc00b4fbfaf90afb194409fb08f843ea0441b3
:1007cc0088452cd9691809f1ff3304d2884502d920
:1007dc00a9f10203294443ea0040a1eb0801a0fb64
:1007ec0002894945c2464c4602d306d1464504d23d
:1007fc00b8eb020a69eb05040138afb1b6eb0a039a
:10080c0061eb040606fa0efe23fa0cf34eea030320
:10081c0026fa0cf6c7e900369ae74846c6e74b4677
:0c082c00d9e73e463846f7e63e46f5e6c2
:020000040000fa
:100838002de9f04f87b0039003a801f059f800287c
:1008480003da002007b0bde8f08f039b1b095d1e8b
:10085800202d0fd9023b5e4ab3f5007f35bf02eb6e
:10086800d30302ebd31313f8045c13f8045c34bf0e
:10087800013511350123a5f12001c5f1200203fa44
:1008880001f923fa02f203fa05f8d8f1000849ea57
:10089800020969eb4909cde90089dff84081dff8f1
:1008a80030914746d8e90023009902ea010a0199e4
:1008b80003ea010b5aea0b0342d1039b05a8103344
:1008c800059301f09bfa18b9424b0c221a60b9e75c
:1008d800d8f80852a84206d0059b103b059301237f
:1008e80000f110058360059bea18012143f001031c
:1008f800b5f1080442f8083c42f8041cc7f808227d
:1009080045f8043c9dd0204601f0d0f888b155f850
:10091800083c55f8041c23f00103e31a5a6822f036
:1009280001020a445a6055f8041c21f00101625082
:100938001c462046039901f001f904f1080081e7fb
:100948005446254bbaf1000f34d1cbf1000000ea30
:100958000b00434309ebd36393f83c6020363046e1
:1009680001f0c4f9731c57f8334007ebc303083b85
:100978009c4297d0272e26dd0235ae4201dc3f2e61
:1009880021d16268039922f00102551a284601f024
:1009980027f8864217d1e068a6686318d8609e6079
:1009a80083609868c36041f0010060505d60a550a5
:1009b8006060bee7caf100002040434309ebd363ff
:1009c80093f83c60cbe73146204600f043feb0e7a1
:1009d8004c1500009c06002029e66b07080400203f
:020000040000fa
:1009e800640600201c00000000000000a40600208f
:1009f8000200000000000000a60600200100000020
:100a080000000000800600200c000000000000002c
:100a180094060020040000000000000014060020d6
:100a28005000000000000000a80600206c00000034
:100a380001000000b4060020b0060020b406002023
:100a4800000000002500000008000020000400004d
:100a5800000000000000000000000000000000008e
:100a6800000000000000000000000000000000007e
:100a7800151f00000000000000000000000000003a
:100a88000000000035140000000000000000000015
:100a9800000000000000000000000000000000004e
:100aa8000000002008040000000000007407002077
:100ab8002000000001000000010000000300000009
:100ac800000000000000000000000000000000001e
:100ad800000000008c0600208c06002008000000a2
:100ae800000000009806002004000000000000003c
:100af8009c060020040000000000000008040020fc
:100b08000c02000000000000140700206000000034
:100b180001000000010000000300000000000000c8
:100b280000000000000000000000000000000000bd
:100b3800a9150000000000000000000000000000ef
:100b4800011f0000571e0000000000000000000008
:100b5800000000000000000000000000000000008d
:100b6800000000000000000000000000000000007d
:100b780000000000a00600200400000000000000a3
:100b8800000000000000000044444444444444443d
:020000040000fa
:100b98002de9f04fd1e901590e68d1f80c808bb0de
:100ba800002da8bf26f002060393b8bf012516f052
:100bb800100302900f460493d2e900ab37d05aeaeb
:100bc8000b0334d0a9f102033c6916f0080104f1c3
:100bd800ff3405914ff0000108f8041006f00201f7
:100be8000691039918bf03f1ff335b1b4139012cb0
:100bf8001fdc049b002b4cd1059b1bb1013c20231f
:100c080008f804303a690096013a4b46121b08eb83
:100c18000401029800f070fa029b5b68db0503d5bb
:100c28007b689842b8bf18460bb0bde8f08f4b46ba
:100c3800cae75aea0b0007d1002d05dc581900282d
:100c4800d7dd06980028d4d00af00f000928d4bfb1
:100c580030305730192904f1ff340ed840f0200cf9
:100c6800acf1610cbcf1190f07d8cde90831079236
:100c780001f01df9dde90831079a08f804004fea88
:100c88001a1040ea0b704fea1b1c013d8246e346ee
:100c9800ade7d2e900231343aed008eb0403039a6f
:0e0ca80003f8012c023c302308f80430a4e7c6
:020000040000fa
:020cb600704785
:020000040000fa
:100cb8002de9f84300286ad050f8043ca0f1080454
:100cc80023f00106a719a259934200d0ffde7a68e3
:100cd80023681340da070fd4204600f0e7fe002807
:100ce80057d1384600f041ff0028f0d07b6823f048
:100cf80001031e441f44eae746f0010363603046df
:100d08003b6000f06dfe054600f0f0ff23687a684e
:100d18001340db07e0d5dff88ce0dee90089c5f198
:100d2800200ca5f1200228fa05f009fa0cfc29fa92
:100d380002f240ea0c001043012100ea01020023fc
:100d48001343c5f120007346a5f1200212d121fa00
:100d580000f001fa02f2a94042ea00021ebfdef8e2
:100d680000000143cef8001022b1def804100a4357
:100d7800cef80420681c03ebc003a3f108026660e8
:100d88003e60a2605a68e2605c60e3689c60bde80f
:100d9800f883236823f00103e41a636823f001034e
:080da8001e449ee70804002030
:020000040000fa
:100db000324b00221a7403f50063314a9a621a46d4
:100dc000536813f0100ffbd12e4b4222c3f884203e
:100dd0001a46d2f8843013f0400ffad02a4b002282
:100de0009a6377225a631a46d36b13f0040ffbd130
:100df000254b022283f830201a46d36b13f0020fe2
:100e0000fbd1214a136c03f00303032bfad11f4bd0
:100e100001225a711a46d37813f0010ffbd0194bf7
:100e20001b4a1a621a46536813f0040ffbd1154b84
:100e3000184a5a621a46536813f0080ffbd1114b37
:100e40004122c3f80c211a46d2f80c3113f0400f9e
:100e5000fad00c4b4122c3f820211a46d2f8203197
:100e600013f0400ffad0094b6ff07f421a6140f245
:100e7000ff725a6182221a62704700bf001400405c
:100e800006013000001c0040001000400008004037
:080e9000070101000701020047
:020000040000fa
:100e9800882910b536d012dc812943d003dc80299b
:100ea80040d0002010bd82290ed08429f9d11968bc
:100eb80002b30a1d1a60b1f90020d3171ee0a02959
:100ec8002bd00bdc9029ecd11968073121f00701f0
:100ed80001f108021a60d1e900230fe0c02901d00e
:100ee800f029ded11a68111d196013680360002308
:100ef800436005e00a1d1a600a880023c0e9002340
:100f08000120cfe7196822b10a1d1a6091f9002063
:100f1800d3e70a1d1a600a78efe71a68111d1960ed
:100f28001268cae719681ab10a1d1a600a68c4e784
:0c0f38000c1d1c600b68c0e90032e1e7f2
:020000040000fa
:100f44002de9f041d2e900230c4686b007465fea5a
:100f5400d37820684968a5680590e66841d0524274
:100f640063eb4303002908db20f002000590b8f18d
:100f7400000f02d1059948072ad5691e05a80290d9
:100f84000a20cde90010204600f036f9b8f1000f30
:100f940002d1059b59071fd5b8f1000f00f1ff30ae
:100fa40014bf2d232b2333542269059b0093013a4c
:100fb4002b46121a3118384600f0a0f87b68db057e
:100fc40003d563689842b8bf184606b0bde8f081ff
:100fd4000807d2d42946d1e71a07e5d501382023da
:080fe400e1e70029c0dac5e7ce
:020000040000fa
:100fec002de9ff41836946690093f61acde9016149
:100ffc0004461746039216444ff002086d464246cb
:10100c002946206800f068fdb04209d1d4e90232cb
:10101c00c4e905331a44a262384604b0bde8f08135
:10102c0000280dda6268002342f01002b8f1020fba
:10103c00a362c4e90533626015d06b68ff1aebe755
:10104c006b68984288bf0835a6eb000688bfc01aab
:10105c002b6803442b606b68a3eb000088bf08f17e
:0a106c00ff386860cbe71f46d6e7a7
:020000040000fa
:02107600fee793
:020000040000fa
:1010780008b5194b9847194b9847eff3108172b68a
:10108800174ad2f8883043f47003c2f88830bff3a7
:101098004f8fbff36f8f01b962b6124a936823f07e
:1010a800010393601346da6812f0010ffbd10d4b70
:1010b80024225a6001229a6000f024ff0a4b23f090
:1010c8007f03074a9360094b9847094b9847094b98
:1010d800984700f007f9fee71f1c00001f1c0000de
:1010e80000ed00e00060004100000000f114000085
:0810f8001f1c00001f1c00007a
:020000040000fa
:101100002de9ff471d460c9b13f0010906468a4650
:10111000144601d195420bd822465146304600f084
:1011200029fca54204d82546284604b0bde8f0872e
:101130002f1b102f3a464ff0200128bf102268467f
:10114000b84600f099feb8f10f0f11d83b096ff0c7
:101150000f0202fb03726946304600f00bfcb9f146
:10116000000fe1d122465146304600f003fcdbe798
:1011700010226946304600f0fdfba8f11008e2e7b6
:020000040000fa
:10118000842910b523d00cdc812903d0822913d007
:1011900080290bd119680c1d1c600b6803601a6054
:1011a00013e0902921d003dc882917d0002010bd3e
:1011b000a029efd0c029ece719680c1d1c600b6852
:1011c0000360d1171046c3e900010120efe7196859
:1011d0000c1d1c600b6803601a80f6e719680c1d73
:1011e0001c600b6803601a70efe719680c1d1c6027
:0c11f00009680160d317c1e90023e6e79d
:020000040000fa
:1011fc002de9f84f04460c9f6668d4f80cb02469ae
:10120c0010463a68013c002502f0020a0b9a0bf8d2
:10121c000450002e1946b8bf0126012390464fea10
:10122c00e279002c03dcd3b12046bde8f88f50eafc
:10123c00010209d1721b002a06dc0a9a521b002af1
:10124c00f1ddbaf1000feed042464b4600f05cfceb
:10125c00013c134630320bf804200135e1e73b68c2
:08126c0023f010033b60dfe7f3
:020000040000fa
:10127400f8b5846a05460f46164654b1ab6a6a69e6
:101284009b1ab3420bd2324639462846fff7acfece
:10129400f8bd00f09dfd0028f0d02046f8e7002eb0
:1012a400f1d095f93430002b1bdbdbb23446621edf
:1012b400b95c994212d1224639462846fff794fe7a
:1012c400a042e5d32744341b22463946686900f01e
:1012d400b7fd6b691c446c613046d9e71446002a9b
:0612e400e5d13446f0e7fd
:020000040000fa
:0212ea00fee71d
:020000040000fa
:1012ec0008b5002000f07efa00f092fd42f210707a
:1012fc0000f0eefd4ff4c051002000f08bfc124dbd
:10130c00124c134e00f048fd00f052fd00f0d4fddd
:10131c00288000f091fc024620702988304600f0ad
:10132c00c1fc00f001fd4ff47a7000f0bffa00f040
:10133c0083fc207000f0c6fd0146288022783046e0
:10134c0000f0b0fcdee700bfa4060020a6060020db
:04135c00e81e000087
:020000040000fa
:10136000f0b50c4649682368a768e56887b000298e
:101370000593a4bf23f00203059305ab0293082352
:10138000cde900730646d2e900232046fff736ff79
:10139000059bd90642bf00f1ff3030232b54059b3b
:1013a0001a0742bf00f1ff3020232b542269059b0e
:1013b0000093013a3b46121a29183046fff7a0fe67
:1013c0007368db0503d563689842b8bf184607b059
:0213d000f0bd6e
:020000040000fa
:0213d200fee734
:020000040000fa
:1013d40070b5144b144a0021934206d3134a0025d6
:1013e400d2e9003123b919b970bd03f8011bf3e741
:1013f400946858180c3294b11446834208d111f001
:10140400030318bf012303eb910102eb8102e7e719
:1014140014f8016b03f8016befe703f8015b8342f7
:10142400fbd1dde70000002000000020e8090000f7
:020000040000fa
:101434007fb5c36800911546002b18bf013a01928d
:1014440082680446cde902230e46022269460068fa
:1014540000f016fb002808dc00f0180383f00802f3
:1014640063681343636005460fe0019a8242fad22f
:10147400a368e363801ae268184420642ab15a1c02
:10148400e2632e441b7806f8013c284604b070bd84
:020000040000fa
:10149400154b01221a801a46136b13f0010ffbd16e
:1014a4004ff080131b681a0902f07002d90001f48e
:1014b400e0610a43c3f382031a430b4ba3f84820a9
:1014c4004ff400721a800322da721a724ff4c05277
:1014d4009a800222da80072283f82e201a46136ba0
:0c14e400002bfcd1704700bf001c00432f
:020000040000fa
:1014f0000e4a38b5002313600d4a0e4c13600e4a95
:101500000e4d13600e4a13600e4a13600e4a53626a
:1015100013610123936000f0bffc00f00afcac42b1
:1015200000d338bd54f8043b9847f8e798060020ec
:10153000200600206c0200001c0600207002000043
:0c154000140600201806002024060020dd
:020000040000fa
:10154c00202122232424252526262727282828283d
:10155c00292929292a2a2a2a2b2b2b2b2c2c2c2cd7
:10156c002c2c2c2c2d2d2d2d2d2d2d2d2e2e2e2e9f
:10157c002e2e2e2e2f2f2f2f2f2f2f2f0001170215
:10158c001d1813031e1b190b1408040d1f161c1217
:0c159c001a0a070c1511090610050f0ea5
:020000040000fa
:1015a80038b50d46044608b9002038bd43689b0687
:1015b80007d5d0e905239a4216d80023c4e9053394
:1015c800a362d4e90f13994204d20122c91a2068f0
:1015d80000f0a0fc0023c4e90f33002de4d02068fc
:1015e800bde8384000f08bbc0022c36a114698471a
:0c15f8006369002be1d14ff0ff30d6e713
:020000040000fa
:101604002de9ff41134dd1f80080af88adf80c707f
:1016140006462868029002aca8798df80e00002acc
:1016240018bf1446d1e901571a461bb9204600f0e9
:1016340029fc0246002d02dbaa4228bf2a46cdf827
:1016440000803b4621463046fff758fd04b0bde814
:08165400f08100bff81e000048
:020000040000fa
:10165c0070b5d0e90245a54217d10122a1f12003b2
:10166c00c1f1200622fa06f602fa03f333438a404c
:10167c00db43d6431ab10b490a6832400a605a1c44
:10168c001fbf084a51680b4053604368ac6043f07d
:10169c00010223f00103e5604260c25842f00102ee
:0816ac00c25070bd08040020cb
:020000040000fa
:1016b400f0b50c4649682368a668e76887b0002936
:1016c4000593a4bf23f00203059305ab02930a23f9
:1016d400cde900630546d2e900232046fff78cfddf
:1016e4002269059b0093013a3346121a3918284699
:1016f400fff704fd6b68db0503d563689842b8bf48
:06170400184607b0f0bd1d
:020000040000fa
:02170a00fee7f8
:020000040000fa
:10170c0010b370b506460d4600f09ef9d5b1002415
:10171c000e4a137e13f0040ffbd0538b13f0070ffc
:10172c000bd1536803f00703012b936a14bf335595
:10173c0026f814300134a542ebd1a54214bf002089
:10174c00012070bd2c46f8e70020704700040043d0
:020000040000fa
:10175c00022a70b5044616461d461ad043689b06ed
:10176c0017d441b9002d08bf4ff4806505f108006e
:10177c00fff75cf801466368012e43f020036360b9
:10178c00c4e9021514bfff230a2384f83430024b3a
:0c179c00e362002070bd00bf7512000069
:020000040000fa
:1017a80010b50278202a034600f10100f9d0a2f111
:1017b80009010429f5d92b2a07d02d2a11d1012195
:1017c8000133013b00200a2403e00021f8e76043cd
:1017d800801a13f8012f303a092af8d901b9404282
:0617e80010bd0021ede739
:020000040000fa
:0217ee00fee714
:020000040000fa
:1017f00008b500f031fb0d4b1b680021186800f0a4
:1018000033fb0b4b1b680021186800f02dfb00f028
:1018100061fafff7cdfafff74efafff73bfe00f053
:1018200023fa00f0fdf800f087f808bdac060020b0
:0418300090070020fd
:020000040000fa
:10183400d0b110b40446c9b1084421460c4a6442ec
:10184400137e13f0010ffbd0536803f00703012b41
:1018540014bf0b7834f81130936201318142efd117
:1018640001205df8044b7047002070470120f8e721
:041874000004004329
:020000040000fa
:1018780010b5054c227832b9044b13b10448aff3c4
:1018880000800123237010bd6406002000000000c2
:101898000000000008b5034b1bb103490348aff330
:1018a800008008bd0000000068060020000000005d
:020000040000fa
:1018b80070b40d4b5e681b6813f0010f12d00b4b10
:1018c80003fb00f0084b9b6860b10021064c013611
:1018d800a2689a4292bf9b1ab51a5b19194413461b
:1018e8008842f5d870bc704710e000e0c0d4010011
:020000040000fa
:1018f8000c4a036810b5546a0b4a591e121b8a42d7
:101908000ad22bb1094b0c221a604ff0ff3010bde0
:10191800102202600020fae7173323f00f03036058
:10192800f8e700bf24060020efffff7f9c06002099
:020000040000fa
:101938000d4bda6822f4e0621204120c42f0bf6226
:1019480042f40032da60bff35f8f62b65a6a42f43b
:1019580080225a625a6942f010025a615a6a42f465
:0c19680000325a62704700bf00ed00e042
:020000040000fa
:1019740038b5436813f4807f0446154610d00369d4
:1019840040699a4228bf1d462a4600f059fa626906
:101994005319636123695b1b23610023535538bdcd
:0a19a400db06fcd400f020faf9e79e
:020000040000fa
:0219ae00fee752
:020000040000fa
:1019b00030b50c4a002312f8134024b902eb43035c
:1019c0005b78184630bd01680d78a54209bf02eb6f
:1019d000430301335b78013114bfdbb201600a2b92
:0819e000e9d9eee76c1d0000df
:020000040000fa
:1019e80000090138202813d9b0f5007f05d2094b2a
:1019f80003ebd00010f8040c7047b0f5e05f06d890
:101a0800044b03ebd01010f8040c103070473f2043
:081a1800704700bf4c150000ef
:020000040000fa
:101a20000a4b0b4a1a604ff658729a814ff44032b3
:101a30005a601a46d369002bfcd1044a136843f05c
:101a400002031360d369002bfcd1704700040043ec
:041a5000040120402d
:020000040000fa
:101a54000a4b5b8b13f0070f0ed0084b80221a76cb
:101a640007225a831b7e13f0040f05d0034b9a6a96
:101a74001a7e12f0040ffad1704700bf000400432d
:020000040000fa
:101a84002de9f843002580460e4617462c4601f101
:101a94000409bc4202db2846bde8f88359f8342027
:101aa40056f83410404600f033f901340544f0e7a9
:020000040000fa
:101ab40070b505462c68e30701d500200fe02046e9
:101ac400fff790ff064600f013f92868a042f1d111
:101ad40020f00100281a3146fff7befd012070bd39
:020000040000fa
:101ae4002de9f843002580460e4617462c4601f1a1
:101af4000409bc4202db2846bde8f88359f83420c7
:101b040056f83410404600f021f901340544f0e75a
:020000040000fa
:101b140053b94ab9002908bf00281cbf4ff0ff3150
:101b24004ff0ff3000f0f6b9adf1080c6de904ceca
:101b3400fef722fdddf804e0dde9022304b070477e
:020000040000fa
:101b4400426822f00102531a102b30b40dd9441804
:101b540041f0010543f00103455063608350456043
:0e1b640004f1080030bcfff7a5b830bc704794
:020000040000fa
:101b720070b505466c68e30701d500200de02046ec
:101b8200fff731ff064600f0b4f86b68a342f1d1cb
:0c1b920028463146fff761fd012070bdc0
:020000040000fa
:021b9e00fee760
:020000040000fa
:101ba000074b1968024609b90649196018680649c1
:101bb00002448a4294bf1a604ff0ff30704700bf62
:0c1bc000a00600209807002098090020d3
:020000040000fa
:101bcc00802910db812901dd83290cd113680733af
:101bdc0023f0070303f108011160d3e90023c0e9e6
:0a1bec00002301207047002070471d
:020000040000fa
:101bf60090f948305a1e1343426880f8483012f074
:101c060004031bbf42f010024260c0e90f334ff0dd
:081c1600ff3008bf18467047bb
:020000040000fa
:021c1e0070470d
:020000040000fa
:101c2000074a93889bb2014323f4f85323f01f0320
:101c30000b439380136b13f0040ffbd1704700bf6d
:041c4000001c004341
:020000040000fa
:101c4400074b93f82e3003f00103002b14bf01203f
:101c5400002003d0024b012283f82e20704700bfde
:041c6400001c00431d
:020000040000fa
:101c6800054a0023136093600449516006211160fe
:101c7800034a93601360704710e000e0bfd401008e
:041c880080060020b2
:020000040000fa
:101c8c0008b5064b1b68064b9a6801329a601b68b4
:101c9c0013b1034a5068984708bd00bf10e000e03c
:041cac00800600208e
:020000040000fa
:101cb0000fb407b5064b04aa1b6852f8041b18683a
:101cc000019200f061f803b05df804eb04b07047d6
:041cd0009007002059
:020000040000fa
:101cd400064b012283f8422083f8312083f8d02078
:101ce40083f8d120222283f8b82070470080004175
:020000040000fa
:101cf400064b013053f830203ab9c100a1f1080273
:101d04001a44194443f830204a60704708040020fc
:020000040000fa
:101d140038b550b952b10c46012529462046fff783
:0e1d2400f3fc0028f9d0012000e0002038bdbb
:020000040000fa
:021d32007047f8
:020000040000fa
:101d3400054a138823f002031b041b0c1380136b46
:0c1d4400002bfcd1704700bf001c0043c6
:020000040000fa
:101d500038b50d461446012801d0204638bd21462d
:0c1d60002846fff767fd0028f9d0f6e7e1
:020000040000fa
:101d6c0068076c094c836a9074a07ac000806888fc
:0c1d7c0000846c820081286e696c2900d4
:020000040000fa
:101d880013b50446019201aafef77afa636813f0c4
:0c1d9800100f18bf4ff0ff3002b010bd5c
:020000040000fa
:101da400044a138843f002031380136b002bfcd105
:081db400704700bf001c004352
:020000040000fa
:101dbc00044a137d43f002031375136b13f4006f85
:081dcc00fbd17047001c00432d
:020000040000fa
:101dd40010b50446fff70dff28b9a368e268c4e90b
:081de40005331344a36210bd96
:020000040000fa
:101dec0010b4c46a1cb123465df8044b1847006854
:081dfc005df8044bfff7a6bfe0
:020000040000fa
:101e04000068002808b501da002008bdfff7c6fe07
:061e1400431cfad1f8e7bf
:020000040000fa
:021e1a0070470f
:020000040000fa
:101e1c00034b00229a601a6842f001021a60704764
:041e2c0010e000e0e2
:020000040000fa
:101e300008b500f05df8024b1860586008bd00bf9f
:041e40008c060020ec
:020000040000fa
:101e440010b500239a4200d110bdcc5cc4540133b8
:021e5400f8e7ad
:020000040000fa
:021e56007047d3
:020000040000fa
:101e5800024b40f204521a80704700bf0040004114
:020000040000fa
:101e680000294ff480630cbf02220022fff772bce6
:020000040000fa
:101e780002440346934200d1704703f8011bf9e777
:020000040000fa
:101e880003461a46013311780029fad1101a70470f
:020000040000fa
:101e980008b5fff7c9fffff7bcfffff7baff08bd9a
:020000040000fa
:0e1ea800a0f14103192b98bf40f020007047b5
:020000040000fa
:0e1eb600a0f16103192b98bf00f05f00704788
:020000040000fa
:0c1ec400014bb3f840007047001c0043c5
:020000040000fa
:0c1ed000014bb3f844007047001c0043b5
:020000040000fa
:0c1edc000138014b5860704710e000e036
:020000040000fa
:081ee8002564202564200a0096
:020000040000fa
:081ef0000048704714070020b0
:020000040000fa
:071ef800286e756c6c2900d7
:020000040000fa
:061f00000068fff725bf99
:020000040000fa
:061f06004ff0ff307047b0
:020000040000fa
:041f0c00fff762babf
:020000040000fa
:041f100000207047f6
:020000040000fa
:041f140000207047f2
:020000040000fa
:041f1800704700bf4f
:020000040000fa
:041f1c0000207047ea
:020000040000fa
:0200000400807a
:044000003912003c35
:020000040000fa
:0200000400807a
:044004008000a82a66
:020000040000fa
:0200000400807a
:04400800ffffffffb8
:00000001FF
