:020000040000fa
:10000000f8ff03202d03000095060000970600006e
:100010009b0600009d0600009f06000000000000f7
:100020000000000000000000000000009306000037
:100030009906000000000000930600001d06000065
:10004000930600009306000093060000930600004c
:10005000930600009306000093060000930600003c
:10006000930600009306000093060000930600002c
:10007000930600009306000093060000930600001c
:10008000930600009306000093060000930600000c
:1000900093060000930600009306000093060000fc
:1000a00093060000930600009306000093060000ec
:1000b00093060000930600009306000093060000dc
:1000c00093060000930600009306000093060000cc
:1000d00093060000930600009306000093060000bc
:1000e00093060000930600000000000000000000de
:1000f0000000000093060000930600009306000035
:10010000930600009306000093060000930600008b
:10011000930600009306000093060000930600007b
:10012000930600009306000093060000930600006b
:10013000930600009306000093060000930600005b
:10014000930600009306000093060000930600004b
:10015000930600009306000000000000000000006d
:10016000000000000000000000000000000000008f
:10017000000000000000000093060000930600004d
:10018000930600009306000093060000930600000b
:100190000000000093060000930600009306000094
:1001a00093060000930600009306000093060000eb
:1001b00093060000930600009306000093060000db
:1001c00093060000930600009306000093060000cb
:1001d00093060000930600009306000093060000bb
:1001e00093060000930600009306000093060000ab
:1001f000930600009306000093060000930600009b
:1002000093060000000000000000000093060000bc
:10021000930600009306000093060000930600007a
:10022000930600009306000093060000930600006a
:10023000930600009306000093060000930600005a
:10024000930600009306000093060000930600004a
:10025000930600009306000093060000930600003a
:020000040000fa
:10026000f8b500bff8bc08bc9e46704729050000e1
:10027000f8b500bff8bc08bc9e46704705050000f5
:020000040000fa
:10028000234b00221a7403f50063224a9a625a68cb
:1002900012f0100ffbd1204b4222c3f88420d3f878
:1002a000842012f0400ffad01c4b00229a63772270
:1002b0005a63da6b12f0040ffbd1184b022283f859
:1002c0003020da6b12f0020ffbd1144a136c03f0ea
:1002d0000303032bfad1124b01225a71da7812f080
:1002e000010ffbd00c4b0f4a1a625a6812f0040f30
:1002f000fbd1094b0c4a5a625a6812f0080ffbd125
:10030000074b6ff07f421a6140f2ff725a617047eb
:100310000014004006013000001c004000100040a6
:0c03200000080040070101000701020076
:020000040000fa
:10032c0008b5194b9847194b9847eff3108172b6e3
:10033c00174ad2f8883043f47003c2f88830bff300
:10034c004f8fbff36f8f01b962b6124a936823f0d7
:10035c00010393601346da6812f0010ffbd10d4bc9
:10036c0024225a6001229a6000f08af90a4b23f089
:10037c007f03074a9360094b9847094b9847094bf1
:10038c00984700f097f8fee7a1060000a1060000d0
:10039c0000ed00e0006000410000000015040000ca
:0803ac00a1060000a1060000fb
:020000040000fa
:1003b40070b5144b144a0021934206d3134a002506
:1003c400d2e9003123b919b970bd03f8011bf3e771
:1003d400946858180c3294b11446834208d111f031
:1003e400030318bf012303eb910102eb8102e7e74a
:1003f40014f8016b03f8016befe703f8015b834228
:10040400fbd1dde7000000200000002070040000a4
:020000040000fa
:100414000e4a38b5002313600d4a0e4c13600e4a81
:100424000e4d13600e4a13600e4a13600e4a536257
:1004340013610123936000f032f900f030f9ac420b
:1004440000d338bd54f8043b9847f8e77c000020fb
:100454000c0000206c020000080000207002000064
:0c04640000000020040000201000002018
:020000040000fa
:10047000500000201c000000000000006c00002064
:100480000c000000000000007800002004000000c4
:1004900000000000000000205000000000000000ec
:1004a0007c000020040000000000000000000000ac
:1004b000000000004444444444444444444444440c
:020000040000fa
:1004c00008b5002000f0bcf800f0c8f842f2107047
:1004d00000f0d6f80a4b4ff480429a611c4616464b
:1004e0004ff47a7503e0a661284600f02bf8236ae2
:1004f00013f4004ff7d16661284600f023f8f2e7c5
:040500000080004136
:020000040000fa
:1005040010b5054c227832b9044b13b10448aff34b
:1005140000800123237010bd500000200000000063
:100524000000000008b5034b1bb103490348aff3b7
:10053400008008bd000000005400002000000000fe
:020000040000fa
:1005440070b40d4b5e681b6813f0010f12d00b4b97
:1005540003fb00f0084b9b6860b10021064c013698
:10056400a2689a4292bf9b1ab51a5b1919441346a2
:100574008842f5d870bc704710e000e0c0d4010098
:020000040000fa
:100584000d4bda6822f4e0621204120c42f0bf62ee
:1005940042f40032da60bff35f8f62b65a6a42f403
:1005a40080225a625a6942f010025a615a6a42f42d
:0c05b40000325a62704700bf00ed00e00a
:020000040000fa
:1005c0000c4b44f206021a604ff400421a610222f8
:1005d00083f8412083f8422083f84e20062283f8d6
:1005e0004f20002283f8302083f8312083f8372011
:0805f000704700bf00800041cc
:020000040000fa
:1005f800054a002313609360044951600621116085
:10060800034a93601360704710e000e0bfd4010014
:040618006c00002052
:020000040000fa
:10061c0008b5064b1b68064b9a6801329a601b683a
:10062c0013b1034a5068984708bd00bf10e000e0c2
:04063c006c0000202e
:020000040000fa
:1006400008b500f015f8fff7bbfffff719fe00f043
:0c0650001ff8fff7d1fffff795ff08bd72
:020000040000fa
:10065c00034b00229a601a6842f001021a6070473c
:04066c0010e000e0ba
:020000040000fa
:10067000024b40f204521a80704700bf0040004114
:020000040000fa
:0c0680000138014b5860704710e000e0aa
:020000040000fa
:04068c00fff792be24
:020000040000fa
:020690007047b1
:020000040000fa
:02069200fee781
:020000040000fa
:02069400fee77f
:020000040000fa
:02069600fee77d
:020000040000fa
:02069800fee77b
:020000040000fa
:02069a00fee779
:020000040000fa
:02069c00fee777
:020000040000fa
:02069e00fee775
:020000040000fa
:0206a0007047a1
:020000040000fa
:0206a20070479f
:020000040000fa
:0200000400807a
:044000003912003c35
:020000040000fa
:0200000400807a
:044004008000a82a66
:020000040000fa
:0200000400807a
:04400800ffffffffb8
:00000001FF
