:020000040000fa
:10000000f8ff032031030000690600006b060000c2
:100010006f0600007106000073060000000000007b
:100020000000000000000000000000006706000063
:100030006d0600000000000067060000d905000002
:1000400067060000670600006706000067060000fc
:1000500067060000670600006706000067060000ec
:1000600067060000670600006706000067060000dc
:1000700067060000670600006706000067060000cc
:1000800067060000670600006706000067060000bc
:1000900067060000670600006706000067060000ac
:1000a000670600006706000067060000670600009c
:1000b000670600006706000067060000670600008c
:1000c000670600006706000067060000670600007c
:1000d000670600006706000067060000670600006c
:1000e0006706000067060000000000000000000036
:1000f00000000000670600006706000067060000b9
:10010000670600006706000067060000670600003b
:10011000670600006706000067060000670600002b
:10012000670600006706000067060000670600001b
:10013000670600006706000067060000670600000b
:1001400067060000670600006706000067060000fb
:1001500067060000670600000000000000000000c5
:10016000000000000000000000000000000000008f
:1001700000000000000000006706000067060000a5
:1001800067060000670600006706000067060000bb
:100190000000000067060000670600006706000018
:1001a000670600006706000067060000670600009b
:1001b000670600006706000067060000670600008b
:1001c000670600006706000067060000670600007b
:1001d000670600006706000067060000670600006b
:1001e000670600006706000067060000670600005b
:1001f000670600006706000067060000670600004b
:100200006706000000000000000000006706000014
:10021000670600006706000067060000670600002a
:10022000670600006706000067060000670600001a
:10023000670600006706000067060000670600000a
:1002400067060000670600006706000067060000fa
:1002500067060000670600006706000067060000ea
:020000040000fa
:10026000f8b500bff8bc08bc9e467047e904000022
:10027000f8b500bff8bc08bc9e467047c504000036
:020000040000fa
:10028000234b00221a7403f50063224a9a625a68cb
:1002900012f0100ffbd1204b4222c3f88420d3f878
:1002a000842012f0400ffad01c4b00229a63772270
:1002b0005a63da6b12f0040ffbd1184b022283f859
:1002c0003020da6b12f0020ffbd1144a136c03f0ea
:1002d0000303032bfad1124b01225a71da7812f080
:1002e000010ffbd00c4b0f4a1a625a6812f0040f30
:1002f000fbd1094b0c4a5a625a6812f0080ffbd125
:10030000074b0a4a1a6140f2ff725a61704700bff8
:100310000014004006013000001c004000100040a6
:10032000000800400701010007010200fffff9007b
:020000040000fa
:1003300008b5194b9847194b9847eff3108172b6df
:10034000174ad2f8883043f47003c2f88830bff3fc
:100350004f8fbff36f8f01b962b6124a936823f0d3
:10036000010393601346da6812f0010ffbd10d4bc5
:1003700024225a6001229a6000f072f90a4b23f09d
:100380007f03074a9360094b9847094b9847094bed
:10039000984700f0f5f8fee77506000075060000c6
:1003a00000ed00e0006000410000000019040000c2
:0803b00075060000750600004f
:020000040000fa
:1003b80070b5144b144a0021934206d3134a002502
:1003c800d2e9003123b919b970bd03f8011bf3e76d
:1003d800946858180c3294b11446834208d111f02d
:1003e800030318bf012303eb910102eb8102e7e746
:1003f80014f8016b03f8016befe703f8015b834224
:10040800fbd1dde70000002000000020740400009c
:020000040000fa
:100418000e4a38b5002313600d4a0e4c13600e4a7d
:100428000e4d13600e4a13600e4a13600e4a536253
:1004380013610123936000f01af900f018f9ac4237
:1004480000d338bd54f8043b9847f8e77c000020f7
:100458000c0000206c020000080000207002000060
:0c04680000000020040000201000002014
:020000040000fa
:10047400500000201c000000000000006c00002060
:100484000c000000000000007800002004000000c0
:1004940000000000000000205000000000000000e8
:1004a4007c000020040000000000000000000000a8
:1004b4000000000044444444444444444444444408
:020000040000fa
:1004c40010b5054c227832b9044b13b10448aff38c
:1004d40000800123237010bd5000002000000000a4
:1004e4000000000008b5034b1bb103490348aff3f8
:1004f400008008bd0000000054000020000000003f
:020000040000fa
:1005040070b40d4b5e681b6813f0010f12d00b4bd7
:1005140003fb00f0084b9b6860b10021064c0136d8
:10052400a2689a4292bf9b1ab51a5b1919441346e2
:100534008842f5d870bc704710e000e0c0d40100d8
:020000040000fa
:100544000d4bda6822f4e0621204120c42f0bf622e
:1005540042f40032da60bff35f8f62b65a6a42f443
:1005640080225a625a6942f010025a615a6a42f46d
:0c05740000325a62704700bf00ed00e04a
:020000040000fa
:1005800008b5002000f03af800f052f842f210707e
:1005900000f060f8064c04252e46a6614ff47a70f0
:1005a000fff7b0ff65614ff47a70fff7abfff4e738
:0405b0000080004186
:020000040000fa
:1005b400054a0023136093600449516006211160c9
:1005c400034a93601360704710e000e0bfd4010059
:0405d4006c00002097
:020000040000fa
:1005d80008b5064b1b68064b9a6801329a601b687f
:1005e80013b1034a5068984708bd00bf10e000e007
:0405f8006c00002073
:020000040000fa
:1005fc0008b500f021f800f009f8fff73bfe00f019
:0c060c002bf8fff7d1fffff797ff08bda8
:020000040000fa
:10061800044b04221a60022283f84220002283f845
:08062800312070470080004101
:020000040000fa
:10063000034b00229a601a6842f001021a60704768
:0406400010e000e0e6
:020000040000fa
:10064400024b40f204521a80704700bf0040004140
:020000040000fa
:0c0654000138014b5860704710e000e0d6
:020000040000fa
:04066000fff7aabe38
:020000040000fa
:020664007047dd
:020000040000fa
:02066600fee7ad
:020000040000fa
:02066800fee7ab
:020000040000fa
:02066a00fee7a9
:020000040000fa
:02066c00fee7a7
:020000040000fa
:02066e00fee7a5
:020000040000fa
:02067000fee7a3
:020000040000fa
:02067200fee7a1
:020000040000fa
:020674007047cd
:020000040000fa
:020676007047cb
:020000040000fa
:0200000400807a
:044000003912003c35
:020000040000fa
:0200000400807a
:044004008000a82a66
:020000040000fa
:0200000400807a
:04400800ffffffffb8
:00000001FF
