:020000040000fa
:10000000f8ff0320ad230000d7290000772a000065
:10001000c72d00000f2f00005b3000000000000023
:10002000000000000000000000000000ab23000002
:10003000db2c000000000000ab230000ab2300001d
:10004000ab230000ab230000ab230000ab23000078
:10005000ab230000ab230000ab230000ab23000068
:10006000ab230000ab230000ab230000ab23000058
:10007000ab230000ab230000ab230000ab23000048
:10008000ab230000ab230000ab230000ab23000038
:10009000ab230000ab230000ab230000ab23000028
:1000a000ab230000ab230000ab230000ab23000018
:1000b000ab230000ab230000ab230000ab23000008
:1000c000ab230000ab230000ab230000ab230000f8
:1000d000ab230000ab230000ab230000ab230000e8
:1000e000ab230000ab230000000000000000000074
:1000f00000000000ab230000ab230000ab23000096
:10010000ab230000ab2300009d1900009d190000e7
:100110009d1900009d190000ab230000ab230000d7
:10012000ab230000ab230000ab230000ab23000097
:10013000ab230000ab230000ab230000ab23000087
:10014000ab230000ab230000ab230000ab23000077
:10015000ab230000ab230000000000000000000003
:10016000000000000000000000000000000000008f
:100170000000000000000000ab230000ab230000e3
:10018000ab230000ab230000ab230000ab23000037
:1001900000000000ab230000ab230000ab230000f5
:1001a000ab230000ab230000ab230000ab23000017
:1001b000ab230000ab230000ab230000ab23000007
:1001c000ab230000ab230000ab230000ab230000f7
:1001d000ab230000ab230000ab230000ab230000e7
:1001e000ab230000ab230000ab230000ab230000d7
:1001f000ab230000ab230000ab230000ab230000c7
:10020000ab2300000000000000000000ab23000052
:10021000ab230000ab230000ab230000ab230000a6
:10022000ab230000ab230000ab230000ab23000096
:10023000ab230000ab230000ab230000ab23000086
:10024000ab230000ab230000ab230000ab23000076
:10025000ab230000ab230000ab230000ab23000066
:020000040000fa
:10026000f8b500bff8bc08bc9e467047012c0000e2
:10027000f8b500bff8bc08bc9e467047dd2b0000f7
:020000040000fa
:080280007c0c000001000000ed
:020000040000fa
:100288002de9f04f2ded028bd2e9008997b0cde929
:100298000c138b6808930b690f90d1e900b614937f
:1002a800cd68002200234046494602f0ddfd40b9f2
:1002b8001bf0040f32d11bf00803059330d0202324
:1002c80003e089f0004399462d232b70089b03f126
:1002d800ff3a012305934c4929f0004300208b4243
:1002e80008bf80451fd10d9b413b192b059b94bf2f
:1002f800464947492b44184603f00af8284602f0b5
:10030800e5ffcdf800b00246089b0f98294602f099
:100318008df817b0bdec028bbde8f08f2b23d4e726
:10032800ddf820a0d7e7994208bf404509d20d9bc8
:10033800413b192b059b94bf364937492b44184636
:10034800dae7002200234046494602f0c3fd9fed4c
:100358002c7b8ded027b48b300240d9802f0beff84
:10036800002ec3b20993c0f2e781672b5ad1002e41
:1003780008bf0126231d02dbb442c0f2ca816527eb
:1003880061e09ded067b8ded027b01340022234b5d
:10039800dde9020101f04cfc42464b46cde906017d
:1003a80002f046fd0028ecd000271fe00446ede7e8
:1003b80014f5967f11da87b90022194b4046494651
:1003c80001f036fc002280468946154bdde9020122
:1003d80001f02efccde902010127dde9020100222e
:1003e8000e4b01f004f8cde90201013cdde90223de
:1003f8004046494602f038fd0028d9d1ade700bf94
:10040800000000000000f03f0000f07fc432000050
:10041800c8320000cc320000d03200000000244076
:1004280000005043099f662f06f101060bd1002cee
:1004380004da9fedbb7b8ded027b0024099b672bc3
:1004480018bf361966279ded027bcde906898ded2b
:100458000a7b00230e93dde90a23dde9060100f09b
:10046800c6ff41ec100b01f0fbfd51ec100bb0ee98
:10047800408af0ee608a02f021fbb0ee480af0ee06
:10048800680a069b1093079b159083f0004311930d
:100498009ded0a1b9ded102b02f0dcfd53ec102b9b
:1004a80083f000430793dde90a01a14b8ded060aad
:1004b800002200f09cff0e9b01339e42cde90a0109
:1004c8000e93c8d100229b4b01f0b2fbcde90a0183
:1004d80002460b46dde9060102f0c6fc002840f0a2
:1004e8008580dde90a23dde9060102f0f3fc10b19d
:1004f800159bda077ad5dde90a234046494600f01c
:1005080057fe0022cde90601894bdde9020101f021
:100518008ffbdde90623cde90a0102f0f9fb00288b
:1005280069d0662f04f1010469d10136a146a9eb0f
:10053800060310934ff000080bf01003059ecdf84a
:1005480008801593109b994540f08380029b002bef
:1005580000f0c9800022652f05eb0600aa5529d1b5
:10056800149b1499013b9442ea54c1f1030ebcbf99
:10057800644201220a21002c40f0bc800eeb030cdf
:10058800bcf1000f00f3b680002a03f1ff3114bf5d
:100598002d222b226a540d9a413a023b192a98bf00
:1005a80045279e4205eb0301ef54aaf1020a01da3e
:1005b80002f0aefe0bf00303022b7ff49faebaf1fc
:1005c800000f7ff79bae284602f080fe05eb0a037a
:1005d800059a824240f39980059b2b44184652465f
:1005e800302102f05bfe0023089387e69fed4e7be7
:1005f8008ded0a7b7fe79ded027b8ded0a7b652ff4
:1006080014bfa1464ff0000991e7029a52b9b9f117
:10061800000f07da0e992e226a54012201360af1d8
:10062800ff3a029205eb0801aa19314403e04ff0a2
:10063800300002f8010b9142f9d108eb0602303381
:10064800aaeb080808f1ff3a561cab544ff0000813
:1006580027e00c9b0e961b69053bb3427ff676afed
:10066800dde90a23dde9060100f0c1fe41ec100bcb
:1006780001f0f6fc51ec100bb0ee408af0ee608a07
:1006880002f01cfa159a09280346a8bf0923024359
:10069800bbd1099a672ab8d1b9f1000fc2da08f1bb
:1006a8000108069b1293079bb0ee480af0ee680a11
:1006b80083f0004313939ded0a1b9ded122b02f06e
:1006c800c9fc53ec102b83f000430793dde90a01c2
:1006d8000022174b8ded060a00f089fe09f1ff395b
:1006e800cde90a012ee71bf0100f1ebf2e23ab55d4
:1006f80001362fe7b4fbf1fc013b01fb1c4430340d
:10070800ec540af1ff3a644635e72a5c1a5401387a
:100718005ee7002cbff696ae662784e6062629e635
:10072800000000000000f03f000000000000000092
:100738000000244000001440099b672beed01f46a0
:04074800062670e62b
:020000040000fa
:04074c0001f0d6bf23
:020000040000fa
:100750002de9f04f95b0cde912030b68089392eda7
:10076000007b4b680a938b6809930b690d93cc68e7
:100770000022002351ec170b8ded047b02f078fb77
:1007800040b9089b580734d4089b13f0080732d0af
:10079000202306e0dde9042181f00043cde90423b4
:1007a0002d232370099b01275a1edde90403dff87e
:1007b000f8b223f000414ff0000a594508bf5045f8
:1007c0001bd1139b413b192b04eb070094bfb0498d
:1007d000b04902f0a1fdaf4802f07cfd089b0093f8
:1007e0000246099b1298214601f024fe15b0bde88f
:1007f000f08f2b23d5e7099ad7e7139b8b45a3f1fd
:10080000410308bf82450b9309d2192b04eb070063
:1008100094bfa149a14902f07ffda048dce7302147
:10082000e1550b997b1c1a2934bf58217821e154da
:10083000931e079300220023dde90401023702f032
:100840004dfb002800f07b819fed8f7b8ded027bbf
:1008500000260a9bdde90289002bdde904abb8bf65
:1008600018230e93002542464b465046594600f049
:10087000c2fd41ec100b01f0f7fb42464b4651ec38
:10088000100b8ded100b01f0d7f902460b465046c8
:10089000594602f04ffd824b82468b464046494600
:1008a000002201f0c9f96b1c0c930a9b002b8046b7
:1008b000894606da002200235046594602f00efb14
:1008c00028b90e9bab4200f3408101330c93002208
:1008d000744b4046494601f0aff9804689460246ce
:1008e0000b465046594602f0c3fa002840f02f81cb
:1008f00042464b465046594602f0f0fa30b1dde927
:10090000100102f0dff8c10740f1218142464b4659
:10091000dde9040100f050fccde90401dde904212a
:1009200021f00043604900208b4208bf82423ff41f
:1009300048af4ff000083d46c246c1460d9b053bff
:10094000ab42ab4633d9dde90223dde9040100f017
:1009500052fd41ec100b01f087fb51ec100b8dedbb
:100960000e0b02f0aff8002840f0f680b9f1000f4e
:1009700000f0f28008f10108dde90223dde90e0153
:1009800001f05af902460b46dde9040102f0d2fcff
:10099000434bcde904010022dde9020101f04cf9ed
:1009a0000c9b09f101094b45cde90201c6d1baf111
:1009b000000f1dd1b8f1000f00f015810a9b002b2c
:1009c00040f31181089bda0700f10d812e2308eb1b
:1009d0000502635522446319302103f8011f9a422e
:1009e000fbd1079b45446fea080843440135079350
:1009f0000d9b0d990022013b9642625504eb0500c8
:100a0000e254bcbf76420122c1f1020e4ff00a0847
:100a1000002e40f0d8800eeb030cbcf1010f00f06b
:100a2000d280002a03f1ff3114bf2d222b22625401
:100a30000b9a023b1a2a34bf502270229d4204ebcb
:100a40000301e25401da02f067fc089b03f00303a0
:100a5000022b14d1079ba3f10208b8f1000f0edda1
:100a6000204602f037fc04eb0803b84280f2b7805e
:100a700042463021e01902f015fc0023099320467c
:100a8000aae600bfaff30080000000000000f03fc6
:100a9000b4320000b8320000bc320000c0320000a6
:100aa0000000b03f000020400000f07fcde9028947
:100ab0000136dde902231046194600f07dfb804631
:100ac000894602460b46dde9040102f0d1f900280f
:100ad000ecd0dff82cb1dff82c914ff0000a4ff08a
:100ae0000008dde90223dde9040102f0c1f9002874
:100af0003ff4afae52465b46dde9020101f09cf8df
:100b00000022002302f0eaf978b142464b46dde9c3
:100b1000020101f091f84246cde902014b46dde9c0
:100b2000040101f089f8cde90401dde90201524632
:100b30005b4601f081f8013ecde90201d1e79fed6e
:100b40002e7b06468ded027bb3e70c9d8be64ff0c6
:100b500000084ff00009d9e6baf1000f0bd1b9f146
:100b6000000f08d02e2304f80b30079b013b013502
:100b700007934ff0010a04eb080362192b4403e0ca
:100b80004ff0300102f8011b9a42f9d1079b05eba7
:100b9000080ba3eb08080b9b0928d4bf3030573053
:100ba000192b06d840f02003613b192b01d802f025
:100bb000a0fb08f1ff330bf1010504f80b000793cc
:100bc0004ff00008d8e60799b6fbf8fc013b08fb9c
:100bd0001c6630360139e6540791664618e7225cf8
:100be0001a54013841e7089bdb067ff501af2e233d
:100bf00063550135fce600bf000000000000f03f37
:080c00000000e03f000050433a
:020000040000fa
:100c08002de9f04fadb00027dff8e4a203910646c6
:100c18001546b8464ff0ff3903990b78002b00f0c2
:100c2800f9800cabcde907890a938023cdf824809d
:100c38000b9300240b5d0bb1252b26d134b1224632
:100c4800304602f083f8039b23440393039b1a78ee
:100c5800252a40f0d78003f1010bcdf80cb003989a
:100c680003782b2b1ad025d8202b1bd0232b1dd053
:100c78002a2b27d001f047ff0990039b1a78303ab6
:100c8800092a2ed801330393f7e70134d2e7079beb
:100c980043f00103013007930390e0e7079b43f01b
:100ca8000403f7e7079b43f00803f3e7079b43f0c8
:100cb8001003efe72d2bead0302bd9d1079b43f057
:100cc8000203e7e72b681a1d1b682a600130002b16
:100cd8000390099305da079a5b4282f001020792b2
:100ce8000993079bda0744bf23f002030793039b8a
:100cf8001a782e2a0dd1581ccdf8208003905a78e6
:100d08002a2a25d1023303932b681a1d1b682a60ef
:100d1800089303a802f070f8039b0190187802f07a
:100d2800ddfa6928019979d032dc632800f0c680a1
:100d380019dc252800f0d080612853d025238df8b0
:100d48001030cdf80cb0cdf81c80cde90898c0e083
:100d580001f0d9fe0890039b1a78303a092ad8d8ae
:100d680001330393f7e7642858d06728e6dc2a465e
:100d780004a802f09bf9002800f09c80039b5a1cf1
:100d880003921b7804aa07a93046fff779fa38e0de
:100d9800702873d015dc6e2800f087806f28cdd1bd
:100da8002b46002204a801f0c1f9002800f0828037
:100db800039b04aa013307a93046039301f02bfcd7
:100dc8001fe075283ad0782848d07328b6d18029f2
:100dd80070d1039b2a6801330393131d2b6012689b
:100de80000235be02a4604a802f060f9002861d0dd
:100df800039b5a1c03921b7804aa07a93046fff7e5
:100e0800a3fc04443c44a7426edd384b4f221a60d1
:100e18004ff0ff3738462db0bde8f08f2b46012242
:100e280004a801f083f9002844d0039b04aa0133e5
:100e380007a93046039301f0cff9e2e72b460022d9
:100e480004a801f073f9002834d0039b04aa0133e5
:100e580007a93046039301f08ffdd2e72b46002205
:100e680004a801f063f928b3039b5a1c03921b786a
:100e780004aa07a9304600f073ffc2e72b460022f8
:100e8800f02104a801f052f9a0b1039b01330393a8
:100e9800dde90423134306d10023524607a930464f
:100ea80001f03efdade77823e2e72b463a1904a8a6
:100eb80001f0fcfa039b01330393a3e78029f9d1de
:100ec800039b013303932b681a1d1b682a608df856
:100ed8001030012304aae1e78029ebd1039b8df8a8
:100ee800100001330393f4e7274695e6dc0600205b
:040ef800e0310000e5
:020000040000fa
:100efc002de9f04f099f154604468e461e46002be1
:100f0c0040f0cc808a42b2fa82fc4cd9bcf1000f82
:100f1c000bd0ccf1200801fa0cfe20fa08f802faea
:100f2c000cf548ea0e0e00fa0cf44fea15491ffabc
:100f3c0085f8befbf9fa210c09fb1ae30afb08fb46
:100f4c0041ea03439b452ad9eb180af1ff3004d23e
:100f5c009b4502d9aaf102002b44a3eb0b03a4b2cc
:100f6c00b3fbf9f209fb123302fb08f844ea034421
:100f7c00a04516d92c1902f1ff3303d2a04501d993
:100f8c00931e2c44a4eb080443ea004027b124fa36
:100f9c000cf400233c607b603146bde8f08f50467a
:100fac00dbe71346eee702b9ffdebcf1000f2ed1f2
:100fbc008b1a01264fea154eaab2b3fbfef8210c90
:100fcc000efb183308fb02f941ea0343994561d93a
:100fdc00eb1808f1ff3004d2994502d9a8f10200b0
:100fec002b44a3eb0903a4b2b3fbfef10efb1133ac
:100ffc004a4344ea0344a2424ed92c1901f1ff336f
:10100c0003d2a24201d98b1e2c44a41abce7ccf10a
:10101c00200e02fa0cf521fa0ef901fa0cf320fa63
:10102c000efe4eea03034fea154800fa0cf4b9fb26
:10103c00f8f11ffa85fe08fb1192180c01fb0ef655
:10104c0040ea0242964221d9aa1801f1ff3003d29c
:10105c00964201d9881e2a44921b9bb2b2fbf8f926
:10106c0008fb192209fb0efe43ea02439e450fd9e9
:10107c00eb1809f1ff3604d29e4502d9a9f10206fc
:10108c002b44a3eb0e0346ea004693e70846e3e73e
:10109c004e46f6e74046a4e70b46b6e78b4206d928
:1010ac00002f7ed00026c7e90001304674e7b3fa62
:1010bc0083fcbcf1000f0fd18b4201d3824209d8c3
:1010cc00841a61eb030e0120002f6dd0c7e9004e8e
:1010dc00002661e76046f7e7ccf1200e03fa0cf32b
:1010ec0022fa0ef521fa0ef41d4301fa0cf320fa44
:1010fc000ef10b434fea154a00fa0cf6b4fbfaf961
:10110c001ffa85f80afb19401c0c09fb08f144ea8c
:10111c000044a14202fa0cf23fd92c1909f1ff301c
:10112c0004d2a14202d9a9f102002c44641a9bb248
:10113c00b4fbfaf90afb194409fb08f843ea044129
:10114c0088452cd9691809f1ff3304d2884502d996
:10115c00a9f10203294443ea0040a1eb0801a0fbda
:10116c0002894945c2464c4602d306d1464504d2b3
:10117c00b8eb020a69eb05040138afb1b6eb0a0310
:10118c0061eb040606fa0efe23fa0cf34eea030397
:10119c0026fa0cf6c7e900369ae74846c6e74b46ee
:0c11ac00d9e73e463846f7e63e46f5e639
:020000040000fa
:1011b80030b591ea030f00f18280841a71eb030cb9
:1011c80005d2121953eb0c03001b71eb0c0140f212
:1011d800000ccff6e07c1cea430f52d0bceb410f69
:1011e8005fd90c0da4eb135e5ff0010c6cf31f517b
:1011f8006cf31f53def1200c2ad303fa0cf54019c7
:1012080041f1000122fa0ef5401923fa0ef5694161
:1012180012fa0cf2cd0208d349085fea30005feaff
:10122800320228bf42f001020134013c5fea500c4f
:1012380072f1004250f1000051eb04514ff40013d9
:1012480013eb410f38bf30bd6ff31301002030bde1
:10125800bef1200ebef1200f1ed223fa0ef5401962
:1012680041f10001cef1200c124218bf012203fa0d
:101278000cf52a43cee711ea5c0f04bf00200021d9
:1012880030bd1cea410f04bf01f00041002030bd11
:1012980001f00041002030bd21f4801101eb045120
:1012a80030bd004218bf41f00101bceb410f08bf3f
:1012b80030bd4ff0fe4141f47801002030bd83f08d
:1012c8000043841a71eb030e07d28ef0004e001b08
:1012d80071eb0e01121953eb0e0340f2000ccff61e
:1012e800e07c1cea430fc6d0bceb410f72d90c0d51
:1012f800a4eb135ec90241ea5051c00241f000411b
:10130800db0243ea5253d20243f00043def1200ce1
:1013180041d312fa0cf522fa0ef203fa0cf542ea5e
:10132800050218bf42f0010223fa0ef3801a994110
:10133800e30ac4f30a0411f0404f03d418d0013c67
:1013480040004941013c23d44205c00a40ea4150cb
:10135800c90a51eac3715fea500c72f1004250f1b8
:10136800000051eb045130bd01002fd00020203c7b
:101378000029f9d0b1fa81fcdcf1200e11fa0cf148
:1013880030fa0ef510fa0cf02943a4eb0c04d9e757
:101398000020d90730bdaef1200ebef1200f0dd2ce
:1013a800cef1200c03fa0cf533fa0ef32a4318bfda
:1013b80043f00103c01a61f10001b9e721f00041cf
:1013c800c00a40ea4150c90a01eb045130bd00206f
:1013d800002130bd004218bf41f00101bceb410fb4
:0e13e8007ff467afbceb430f3ff463af30bd43
:020000040000fa
:1013f600f0b581ea030e0ef0004e40f20007cff67c
:10140600e07717ea41051ebf95ea070f17ea43047e
:1014160094ea070f00f0c5806d0da5eb545707f54c
:1014260080674ff0004646eac12444ea5054c002a1
:1014360046eac32343ea5253d202801a9c4104d29d
:101446000018644180185c41013f5b084fea320294
:101456000025002140f001004ff0070604e0801a45
:101466009c4136d340416441801a9c4136d3404169
:101476006441801a9c4136d340416441801a9c41a4
:1014860036d340416441801a9c4136d34041644181
:10149600013e17d0801a9c4136d340416441801ae0
:1014a6009c4136d340416441801a9c4136d3404129
:1014b6006441090201eb156190ea052520f0ff0061
:1014c6004540cce7801a9c4156d335e080185c41f4
:1014d600c8d20018644180185c41c8d20018644123
:1014e60080185c41c8d20018644180185c41c8d29b
:1014f6000018644180185c41c8d200186441013e5e
:1015060017d080185c41c8d20018644180185c412d
:10151600c8d20018644180185c41c8d200186441e2
:10152600090201eb156190ea052520f0ff00454010
:10153600cce780185c411fd3420918bf44f0010470
:10154600490101ebd56100f01f0000eb451021f4c5
:10155600801141ea0e01013041f10001244208bf29
:1015660020f00100b7f5006f3eda013f49dd01ebdf
:101576000751bde8f0407047490101ebd56100f025
:101586001f0000eb451021f4801141ea0e01b7f56a
:10159600006f29da013f34dd01eb0751bde8f04069
:1015a6007047004218bf41f00101124218bf43f0d4
:1015b6000103b7eb410f2cbfb7eb430f1ce0b7ebb2
:1015c600410f04bfb7eb430f16e017ea410f04bf04
:1015d60017ea430f10e017ea410f12d017ea430f3c
:1015e60002d0b7eb430f0cd04ef0fe4141f4700130
:1015f6000020bde8f04070474ff0fe4141f478010d
:06160600f6e77146f4e76f
:020000040000fa
:10160c00900600201c00000000000000e4060020f2
:10161c000100000000000000640600202c00000007
:10162c0000000000d00600200400000000000000b4
:10163c00ac0600201c00000000000000d4070020b5
:10164c001c0000000100000041424344454647484d
:10165c00494a4b4c4d4e4f50515253545556575876
:10166c00595a0a00d40600200400000000000000b3
:10167c00140600205000000000000000e8060020c6
:10168c006c00000001000000f4060020f0060020b1
:10169c00f4060020000000002500000008000020d7
:1016ac00000400000000000000000000000000002a
:1016bc00000000000000000000000000000000001e
:1016cc00000000005133000000000000000000008a
:1016dc0000000000000000005d270000000000007a
:1016ec0000000000000000000000000000000000ee
:1016fc0000000000000000200804000000000000b2
:10170c00b4070020200000000100000001000000d0
:10171c0003000000000000000000000000000000ba
:10172c000000000000000000c8060020c8060020d1
:10173c000800000000000000d80600200400000093
:10174c0000000000080400200c0200000000000053
:10175c0054070020600000000100000001000000a0
:10176c00030000000000000000000000000000006a
:10177c0000000000000000007528000000000000c0
:10178c000000000000000000453300006133000041
:10179c00000000000000000000000000000000003d
:1017ac00000000000000000000000000000000002d
:1017bc00000000000000000000000000dc0600201b
:1017cc000400000000000000e006002004000000ff
:1017dc0000000000000000000000000044444444ed
:020000040000fa
:1017ec002de9f04f87b0039003a801f031fa0028df
:1017fc0003da002007b0bde8f08f039b1b095d1ec8
:10180c00202d0fd9023b5e4ab3f5007f35bf02ebaa
:10181c00d30302ebd31313f8045c13f8045c34bf4a
:10182c00013511350123a5f12001c5f1200203fa80
:10183c0001f923fa02f203fa05f8d8f1000849ea93
:10184c00020969eb4909cde90089dff84081dff82d
:10185c0030914746d8e90023009902ea010a019920
:10186c0003ea010b5aea0b0342d1039b05a8103380
:10187c00059301f0cafc18b9424b0c221a60b9e767
:10188c00d8f80852a84206d0059b103b05930123bb
:10189c0000f110058360059bea18012143f0010358
:1018ac00b5f1080442f8083c42f8041cc7f80822b9
:1018bc0045f8043c9dd0204601f054fb88b155f806
:1018cc00083c55f8041c23f00103e31a5a6822f073
:1018dc0001020a445a6055f8041c21f001016250bf
:1018ec001c462046039901f085fb04f1080081e7b2
:1018fc005446254bbaf1000f34d1cbf1000000ea6d
:10190c000b00434309ebd36393f83c60203630461d
:10191c0001f01afc731c57f8334007ebc303083b68
:10192c009c4297d0272e26dd0235ae4201dc3f2e9d
:10193c0021d16268039922f00102551a284601f060
:10194c003dfa864217d1e068a6686318d8609e609d
:10195c0083609868c36041f0010060505d60a550e1
:10196c006060bee7caf100002040434309ebd3633b
:10197c0093f83c60cbe73146204600f0a3ffb0e77c
:10198c0018280000dc06002029e66b07080400205c
:020000040000fa
:10199c0008b5574b9b7d002b53d0554a536803f029
:1019ac000703127e12f0040f5bd0514a906a514922
:1019bc004a69c9688a4254d2002b43d14d4b5968ad
:1019cc00885401325a614a4b1b7e13f0010f18d018
:1019dc00474b01221a75474a93699268934258d231
:1019ec00444a1168c85c4249886201339361414b97
:1019fc009a699b689a4261d03e4b5a69db689a425d
:101a0c0069d03b4b1b7e13f0020f14d03a4b1b7862
:101a1c00bbb1384b5a69db689a420fd1354b002267
:101a2c001a7733490720087533490a701b6a43b18a
:101a3c00304a506a9847304b1b7813b12c4b02221a
:101a4c009a7508bd2b4b596821f8120001325a6166
:101a5c00274b1b7e13f0010fd3d0254b01221a7597
:101a6c0009e0234a127e12f0010fcad0204a01214c
:101a7c001175002bafd01f4a93699268934212d212
:101a8c001c4a116831f813001949886201339361bb
:101a9c00ade7184b1b6923b3154aff219162013b3b
:101aac00144a1361a3e7134b1b69d3b1104a4ff6c9
:101abc00ff719162013b0f4a136198e70d4b1b6953
:101acc00002b99d10c4b01221a70094b1b7e13f081
:101adc00020f9ed1b2e7064b01229a7504221a75a9
:101aec008fe7044b9a699b689a4285d1eae700bf5d
:0c1afc000034004064060020e4060020d6
:020000040000fa
:101b080030b40c4600294dd000284bd04649097ff7
:101b1800002940f08680454d6d6805f00705012dc8
:101b280046d0414908604a6000254d618d610d61cc
:101b3800a84208bf2c468c60aa4218bf1d460a4618
:101b4800cd6001211177394a127e12f0040f05d0b9
:101b5800364a916a117e11f0040ffad1334a518b3b
:101b680041f004015183117e41f080011176a542b4
:101b780002d92a1b2c490a612c4a526812f0070f15
:101b88002bd1294a9269a2421cd20078274988623f
:101b9800013225498a61002b3bd0244b04229a75d7
:101ba80001213be0002b38d0002aafd1002135e0dd
:101bb80014b114f0010f31d1002bb2d013f0010f82
:101bc800afd02be0184a1269002ae4d01749ff2049
:101bd8008862013a14490a61dde76408124a946090
:101be8001169490811616d08d5609269944206d956
:101bf80000880e49886201320b498a61cbe70029c7
:101c0800c9d00a4a4ff6ff7090620139064a11613d
:101c1800c1e70121054b997500e00021084630bc59
:101c280070470021fae700bf640600200034004036
:020000040000fa
:101c3800f0b540f2ff7681ea030c16ea115e1ebf8a
:101c4800b64516ea1355b54252d021ea465141f439
:101c58008011a1fb024723ea465343f48013ae44a4
:101c6800a0fb03650cf0004c36197d41a1fb03472e
:101c780047f10003a0fb0217f619654153f1000371
:101c8800094218bf46f0010640f2fe74b3f5007f22
:101c980013d2aef5806ea64523d24cea0331280351
:101ca80041ea155140ea16503203450872f10042e4
:101cb80050f1000051eb0e51f0bdaef2ff3ea645cb
:101cc8000fd24ceac321e80241ea555140ea565086
:101cd800f202450872f1004250f1000051eb0e513a
:101ce800f0bd1eea0e0f2dd50cf000410020f0bd0e
:101cf80016ea115f04bf01f000410020004218bf3e
:101d080041f0010116ea135f04bf03f0004300220b
:101d1800124218bf43f0010306ea1354b44218bf35
:101d2800b64503d00cf000410020f0bd21f0004181
:101d380023f00043b1eb065f0cd8b3eb065f09d87c
:101d480041b13bb10cf0004141f0fe4141f470015a
:101d58000020f0bd40f20001c7f6f8710020f0bd88
:020000040000fa
:101d68002de9f04fd1e901590e68d1f80c808bb0fc
:101d7800002da8bf26f002060393b8bf012516f070
:101d8800100302900f460493d2e900ab37d05aea09
:101d98000b0334d0a9f102033c6916f0080104f1e1
:101da800ff3405914ff0000108f8041006f0020115
:101db8000691039918bf03f1ff335b1b4139012cce
:101dc8001fdc049b002b4cd1059b1bb1013c20233d
:101dd80008f804303a690096013a4b46121b08eba2
:101de8000401029800f022fb029b5b68db0503d527
:101df8007b689842b8bf18460bb0bde8f08f4b46d9
:101e0800cae75aea0b0007d1002d05dc581900284b
:101e1800d7dd06980028d4d00af00f000928d4bfcf
:101e280030305730192904f1ff340ed840f0200c17
:101e3800acf1610cbcf1190f07d8cde90831079254
:101e480001f053fadde90831079a08f804004fea6f
:101e58001a1040ea0b704fea1b1c013d8246e3460c
:101e6800ade7d2e900231343aed008eb0403039a8d
:0e1e780003f8012c023c302308f80430a4e7e4
:020000040000fa
:021e86007047a3
:020000040000fa
:101e88002de9f84300286ad050f8043ca0f1080472
:101e980023f00106a719a259934200d0ffde7a6801
:101ea80023681340da070fd4204601f05df80028b4
:101eb80057d1384601f0b7f80028f0d07b6823f0f6
:101ec80001031e441f44eae746f0010363603046fd
:101ed8003b6000f075ff054601f038f923687a6821
:101ee8001340db07e0d5dff88ce0dee90089c5f1b7
:101ef800200ca5f1200228fa05f009fa0cfc29fab1
:101f080002f240ea0c001043012100ea010200231a
:101f18001343c5f120007346a5f1200212d121fa1e
:101f280000f001fa02f2a94042ea00021ebfdef800
:101f380000000143cef8001022b1def804100a4375
:101f4800cef80420681c03ebc003a3f10802666006
:101f58003e60a2605a68e2605c60e3689c60bde82d
:101f6800f883236823f00103e41a636823f001036c
:081f78001e449ee7080400204e
:020000040000fa
:101f8000324b00221a7403f50063314a9a621a46f2
:101f9000536813f0100ffbd12e4b4222c3f884205c
:101fa0001a46d2f8843013f0400ffad02a4b0022a0
:101fb0009a6377225a631a46d36b13f0040ffbd14e
:101fc000254b022283f830201a46d36b13f0020f00
:101fd000fbd1214a136c03f00303032bfad11f4bef
:101fe00001225a711a46d37813f0010ffbd0194b16
:101ff0001b4a1a621a46536813f0040ffbd1154ba3
:10200000184a5a621a46536813f0080ffbd1114b55
:102010004122c3f8a0201a46d2f8a03013f0400f96
:10202000fad00c4b4122c3f80c211a46d2f80c31dd
:1020300013f0400ffad0094b6ff07f421a6142f261
:10204000ff725a6102221a62704700bf00140040fa
:1020500006013000001c0040001000400008004055
:08206000070101000701020065
:020000040000fa
:1020680053ec102bc3f30a512de9f04140f2fd70f7
:102078004e1e86421d4645d8a1f2ff30002835dbaa
:10208800332831dc284bc0f120084ff0ff3c03fa1d
:1020980008f2a1f21f412cfa00fc10ee104a4cea9b
:1020a800020c23fa01f24cea020c23fa00fe04eabd
:1020b8000c0605ea0e0724ea0c0256ea070425ea8c
:1020c8000e030fd0002a73f100040bda4ff48015c9
:1020d80005fa08f425fa01f10c43121925fa00f063
:1020e80040eb030343ec102bbde8f081002a73f1a9
:1020f800000303db9fed080bbde8f0819fed080ba3
:10210800bde8f0810029efd10a4603f0004343ec13
:10211800102be9e7aff3008000000000000000008a
:0c212800000000000000f0bfffff0f00ef
:020000040000fa
:10213400882910b536d012dc812943d003dc8029ec
:1021440040d0002010bd82290ed08429f9d119680d
:1021540002b30a1d1a60b1f90020d3171ee0a029aa
:102164002bd00bdc9029ecd11968073121f0070141
:1021740001f108021a60d1e900230fe0c02901d05f
:10218400f029ded11a68111d196013680360002359
:10219400436005e00a1d1a600a880023c0e9002391
:1021a4000120cfe7196822b10a1d1a6091f90020b5
:1021b400d3e70a1d1a600a78efe71a68111d19603f
:1021c4001268cae719681ab10a1d1a600a68c4e7d6
:0c21d4000c1d1c600b68c0e90032e1e744
:020000040000fa
:1021e0002de9f041d2e900230c4686b007465feaac
:1021f000d37820684968a5680590e66841d05242c6
:1022000063eb4303002908db20f002000590b8f1de
:10221000000f02d1059948072ad5691e05a802902a
:102220000a20cde90010204600f082f9b8f1000f35
:1022300002d1059b59071fd5b8f1000f00f1ff30ff
:1022400014bf2d232b2333542269059b0093013a9d
:102250002b46121a3118384600f0ecf87b68db0583
:1022600003d563689842b8bf184606b0bde8f08150
:102270000807d2d42946d1e71a07e5d5013820232b
:08228000e1e70029c0dac5e71f
:020000040000fa
:102288002de9f047002000f0c5fc00211b4801f0b3
:1022980033f81b4c1b4f1c4e4ff01c0adff87480a0
:1022a80008f1140910e0194b00221a603146404623
:1022b80000f03aff484600f037ff5146384600f034
:1022c80067fc0d2000f0d2ff4ff48025656153466e
:1022d8003a4651463046fff713fca5610b4b1b6885
:1022e800012be3d10423a361094b013bfdd1042356
:1022f8006361074b013bfdd1d5e700bf0d330000fb
:1023080000800041ac060020d4070020d006002041
:0823180080969800e0300000ff
:020000040000fa
:102320002de9ff41836946690093f61acde9016101
:1023300004461746039216444ff002086d46424683
:102340002946206800f02cfeb04209d1d4e90232bf
:10235000c4e905331a44a262384604b0bde8f081ee
:1023600000280dda6268002342f01002b8f1020f73
:10237000a362c4e90533626015d06b68ff1aebe70e
:102380006b68984288bf0835a6eb000688bfc01a64
:102390002b6803442b606b68a3eb000088bf08f137
:0a23a000ff386860cbe71f46d6e760
:020000040000fa
:0223aa00fee74c
:020000040000fa
:1023ac0008b5194b9847194b9847eff3108172b643
:1023bc00174ad2f8883043f47003c2f88830bff360
:1023cc004f8fbff36f8f01b962b6124a936823f037
:1023dc00010393601346da6812f0010ffbd10d4b29
:1023ec0024225a6001229a60fef7aaf90a4b23f0c4
:1023fc007f03074a9360094b9847094b9847094b51
:10240c009847fff73bfffee7df300000df300000ae
:10241c0000ed00e00060004100000000bd2700005e
:08242c00df300000df3000008a
:020000040000fa
:102434002de9ff471d460c9b13f0010906468a4609
:10244400144601d195420bd822465146304600f03d
:102454007ffca54204d82546284604b0bde8f08791
:102464002f1b102f3a464ff0200128bf1022684638
:10247400b84600f015ffb8f10f0f11d83b096ff003
:102484000f0202fb03726946304600f061fcb9f1a9
:10249400000fe1d122465146304600f059fcdbe7fb
:1024a40010226946304600f053fca8f11008e2e718
:020000040000fa
:1024b400842910b523d00cdc812903d0822913d0c0
:1024c40080290bd119680c1d1c600b6803601a600d
:1024d40013e0902921d003dc882917d0002010bdf7
:1024e400a029efd0c029ece719680c1d1c600b680b
:1024f4000360d1171046c3e900010120efe7196812
:102504000c1d1c600b6803601a80f6e719680c1d2b
:102514001c600b6803601a70efe719680c1d1c60df
:0c25240009680160d317c1e90023e6e755
:020000040000fa
:102530002de9f84f04460c9f6668d4f80cb0246966
:1025400010463a68013c002502f0020a0b9a0bf88b
:102550000450002e1946b8bf0126012390464feac9
:10256000e279002c03dcd3b12046bde8f88f50eab5
:10257000010209d1721b002a06dc0a9a521b002aaa
:10258000f1ddbaf1000feed042464b4600f020fddf
:10259000013c134630320bf804200135e1e73b687b
:0825a00023f010033b60dfe7ac
:020000040000fa
:1025a800f8b5846a05460f46164654b1ab6a6a699f
:1025b8009b1ab3420bd2324639462846fff7acfe87
:1025c800f8bd00f018fe0028f0d02046f8e7002eed
:1025d800f1d095f93430002b1bdbdbb23446621e98
:1025e800b95c994212d1224639462846fff794fe33
:1025f800a042e5d32744341b22463946686900f0d7
:102608001bfe6b691c446c613046d9e71446002aee
:06261800e5d13446f0e7b5
:020000040000fa
:10261e00f0b50c4649682368a768e56887b00029bd
:10262e000593a4bf23f00203059305ab0293082381
:10263e00cde900730646d2e900232046fff771ff6d
:10264e00059bd90642bf00f1ff3030232b54059b6a
:10265e001a0742bf00f1ff3020232b542269059b3d
:10266e000093013a3b46121a29183046fff7dbfe5b
:10267e007368db0503d563689842b8bf184607b088
:02268e00f0bd9d
:020000040000fa
:10269000184bda6822f4e0621204120c42f0bf62b6
:1026a00042f40032da60bff35f8f62b6124ae02173
:1026b00082f832134ff48020506082f833134ff4c5
:1026c0000020506082f834134ff48010506082f87c
:1026d00035134ff4001151605a6a42f480225a6255
:1026e0005a6942f010025a615a6a42f400325a6240
:0c26f000704700bf00ed00e000e100e0da
:020000040000fa
:1026fc0070b5144b144a0021934206d3134a00259b
:10270c00d2e9003123b919b970bd03f8011bf3e705
:10271c00946858180c3294b11446834208d111f0c5
:10272c00030318bf012303eb910102eb8102e7e7de
:10273c0014f8016b03f8016befe703f8015b8342bc
:10274c00fbd1dde700000020000000200c1600008b
:020000040000fa
:10275c007fb5c36800911546002b18bf013a019252
:10276c0082680446cde902230e46022269460068bf
:10277c0000f0e0fb002808dc00f0180383f00802ee
:10278c0063681343636005460fe0019a8242fad2f4
:10279c00a368e363801ae268184420642ab15a1cc7
:1027ac00e2632e441b7806f8013c284604b070bd49
:020000040000fa
:1027bc000e4a38b5002313600d4a0e4c13600e4ab6
:1027cc000e4d13600e4a13600e4a13600e4a53628c
:1027dc0013610123936000f057fd00f0b9fdac428a
:1027ec0000d338bd54f8043b9847f8e7d8060020ce
:1027fc00200600206c0200001c0600207002000065
:0c280c00140600201806002024060020fe
:020000040000fa
:10281800202122232424252526262727282828285e
:10282800292929292a2a2a2a2b2b2b2b2c2c2c2cf8
:102838002c2c2c2c2d2d2d2d2d2d2d2d2e2e2e2ec0
:102848002e2e2e2e2f2f2f2f2f2f2f2f0001170236
:102858001d1813031e1b190b1408040d1f161c1238
:0c2868001a0a070c1511090610050f0ec6
:020000040000fa
:1028740038b50d46044608b9002038bd43689b06a8
:1028840007d5d0e905239a4216d80023c4e90533b5
:10289400a362d4e90f13994204d20122c91a206811
:1028a40000f058fd0023c4e90f33002de4d0206864
:1028b400bde8384000f047bd0022c36a114698477e
:0c28c4006369002be1d14ff0ff30d6e734
:020000040000fa
:1028d00070b5d0e90245a54217d10122a1f120032c
:1028e000c1f1200622fa06f602fa03f333438a40c6
:1028f000db43d6431ab10b490a6832400a605a1cbe
:102900001fbf084a51680b4053604368ac6043f0f6
:10291000010223f00103e5604260c25842f0010267
:08292000c25070bd0804002044
:020000040000fa
:102928002de9ff41134dd1f80080af88adf80c7048
:1029380006462868029002aca8798df80e00002a95
:1029480018bf1446d1e901571a461bb9204600f0b2
:10295800bdfc0246002d02dbaa4228bf2a46cdf85c
:1029680000803b4621463046fff760fd04b0bde8d5
:08297800f08100bf3c330000b8
:020000040000fa
:10298000f0b50c4649682368a668e76887b0002957
:102990000593a4bf23f00203059305ab02930a231a
:1029a000cde900630546d2e900232046fff7c0fdcc
:1029b0002269059b0093013a3346121a39182846ba
:1029c000fff738fd6b68db0503d563689842b8bf35
:0629d000184607b0f0bd3f
:020000040000fa
:0229d600fee71a
:020000040000fa
:1029d80010b370b506460d4600f096fad5b100243e
:1029e8000e4a137e13f0040ffbd0538b13f0070f1e
:1029f8000bd1536803f00703012b936a14bf3355b7
:102a080026f814300134a542ebd1a54214bf0020aa
:102a1800012070bd2c46f8e70020704700040043f1
:020000040000fa
:102a280013b5836a8df80710044673b16369a26a07
:102a3800934212d3e36a01220df107012046984719
:102a4800012806d19df8070005e000f0d4fb002816
:102a5800ecd04ff0ff3002b010bd9df8070094f99c
:0e2a680034209042e6d05a1c62611870f3e7e9
:020000040000fa
:022a7600fee779
:020000040000fa
:102a7800022a70b5044616461d461ad043689b06be
:102a880017d441b9002d08bf4ff4806505f108003f
:102a9800fef7a8fe01466368012e43f02003636039
:102aa800c4e9021514bfff230a2384f83430024b0b
:0c2ab800e362002070bd00bfa9250000f3
:020000040000fa
:102ac400c1f30a5340f21e42d21a0edd202a0ad85c
:102ad400cb0243ea505040f00040d04090eae1700d
:102ae400b0ebe1707047002070474b00004218bf04
:102af40043f0010313f5001f88bf21f0004111f0da
:0a2b0400004058bf6ff0004070471a
:020000040000fa
:102b0e0010b50278202a034600f10100f9d0a2f197
:102b1e0009010429f5d92b2a07d02d2a11d101211b
:102b2e000133013b00200a2403e00021f8e7604353
:102b3e00801a13f8012f303a092af8d901b9404208
:062b4e0010bd0021ede7bf
:020000040000fa
:102b54000f4b4ff004121a60022183f84210012235
:102b640083f8502083f8512083f8521083f85320bf
:102b7400002183f83110222183f83810202083f8b3
:102b8400390083f8d02083f8d12083f8b810704737
:042b9400008000417c
:020000040000fa
:102b9800d0b110b40446c9b1084421460c4a644275
:102ba800137e13f0010ffbd0536803f00703012bca
:102bb80014bf0b7834f81130936201318142efd1a0
:102bc80001205df8044b7047002070470120f8e7aa
:042bd80000040043b2
:020000040000fa
:102bdc0010b5054c227832b9044b13b10448aff34d
:102bec0000800123237010bd90060020000000001f
:102bfc000000000008b5034b1bb103490348aff3b9
:102c0c00008008bd000000009406002000000000b9
:020000040000fa
:102c1c0008b500f021fb0c4b1b680021186800f074
:102c2c002bfb0a4b1b680021186800f025fbfff7f3
:102c3c008bfffff79ff900f04bf8fff71ef900f040
:102c4c002df9fff71ffd08bdec060020d007002072
:020000040000fa
:102c5c000c4a036810b5546a0b4a591e121b8a425f
:102c6c000ad22bb1094b0c221a604ff0ff3010bd69
:102c7c00102202600020fae7173323f00f030360e1
:102c8c00f8e700bf24060020efffff7fdc060020e2
:020000040000fa
:102c9c0010b44c68a40602460b4603d45df8044bf2
:102cac0000f06fb891f93410c0b2814203d0596969
:102cbc009c6aa14205d3114618465df8044bfff7f8
:0e2ccc00adbe4c1c5c610a705df8044b704795
:020000040000fa
:022cda00fee713
:020000040000fa
:102cdc000b4b00221a621a779a60da60094b4ff498
:102cec0008325a601a46d369002bfcd1054b1d22c1
:102cfc001a73054a1a601a46d369002bfcd1704727
:0c2d0c0064060020003400408e003000ff
:020000040000fa
:102d18004ff4001c1ceb410f98bf1ceb430f11d85c
:102d280051ea030c50ea4c0c5cea020c0cd004d2b9
:102d380082428b41804101307047904299418041e5
:0c2d4800013070470020704701207047e8
:020000040000fa
:102d540038b5436813f4807f0446154610d00369e0
:102d640040699a4228bf1d462a4600f067fa626904
:102d74005319636123695b1b23610023535538bdd9
:0a2d8400db06fcd400f02dfaf9e79d
:020000040000fa
:102d8e0007b54a68c0b2d2050b468df8070006d5c6
:102d9e004a69511c5961107003b05df804fb0122a1
:102dae000df10701184600f017fa10b19df8070053
:082dbe00f2e74ff0ff30efe7f0
:020000040000fa
:022dc600fee726
:020000040000fa
:102dc80000090138202813d9b0f5007f05d2094b36
:102dd80003ebd00010f8040c7047b0f5e05f06d89c
:102de800044b03ebd01010f8040c103070473f2050
:082df800704700bf182800001d
:020000040000fa
:102e000030b50c4a002312f8134024b902eb4303f7
:102e10005b78184630bd01680d78a54209bf02eb0a
:102e2000430301335b78013114bfdbb201600a2b2d
:082e3000e9d9eee7ca31000008
:020000040000fa
:102e38004ff4001c1ceb410f98bf1ceb430f11d83b
:102e480051ea030c50ea4c0c5cea020c0ad004d29a
:102e580082428b4180414042704790429941804173
:082e6800404270470020704752
:020000040000fa
:102e70004ff4001c1ceb410f98bf1ceb430f11d803
:102e800051ea030c50ea4c0c5cea020c0ad004d262
:102e90009042994180414042704782428b4180413b
:082ea00040427047002070471a
:020000040000fa
:102ea8000a4b0b4a1a604ff658729a814ff4403217
:102eb8005a601a46d369002bfcd1044a136843f0c0
:102ec80002031360d369002bfcd170470004004350
:042ed800040112409f
:020000040000fa
:102edc004ff4001c1ceb410f98bf1ceb430f0cd89c
:102eec0050ea410c08bf52ea430c08d0904208bf8c
:102efc0099420cbf01200020704700207047012030
:022f0c0070470c
:020000040000fa
:022f0e00fee7dc
:020000040000fa
:102f10000a4b5b8b13f0070f0ed0084b80221a76fa
:102f200007225a831b7e13f0040f05d0034b9a6ac5
:102f30001a7e12f0040ffad1704700bf000400435c
:020000040000fa
:102f40002de9f843002580460e4617462c4601f130
:102f50000409bc4202db2846bde8f88359f8342056
:102f600056f83410404600f005f901340544f0e706
:020000040000fa
:102f700070b505462c68e30701d500200fe0204618
:102f8000fff722ff064600f0e5f82868a042f1d1dd
:102f900020f00100281a3146fff79afc012070bd8d
:020000040000fa
:102fa0002de9f843002580460e4617462c4601f1d0
:102fb0000409bc4202db2846bde8f88359f83420f6
:102fc00056f83410404600f0e4f801340544f0e7c8
:020000040000fa
:102fd00053b94ab9002908bf00281cbf4ff0ff3180
:102fe0004ff0ff3000f0b6b9adf1080c6de904ce3a
:102ff000fdf784ffddf804e0dde9022304b070474b
:020000040000fa
:10300000426822f00102531a102b30b40dd9441833
:1030100041f0010543f00103455063608350456072
:0e30200004f1080030bcfef72fbf30bc704733
:020000040000fa
:10302e0070b505466c68e30701d500200de020461b
:10303e00fff7c3fe064600f086f86b68a342f1d197
:0c304e0028463146fff73dfc012070bd14
:020000040000fa
:02305a00fee78f
:020000040000fa
:10305c0000b553ec112b83b051ec100b8ded002b04
:10306c00fef7e4fd9ded002b53ec122bfef79ef8c2
:0c307c0041ec100b03b05df804fb00bf3a
:020000040000fa
:10308800074b1968024609b90649196018680649c4
:1030980002448a4294bf1a604ff0ff30704700bf65
:0c30a800e0060020f8070020f8090020d6
:020000040000fa
:1030b400802910db812901dd83290cd113680733b2
:1030c40023f0070303f108011160d3e90023c0e9e9
:0a30d4000023012070470020704720
:020000040000fa
:0230de00704739
:020000040000fa
:1030e0000a6d61737465722073656e64203d2025de
:1030f000730d00000a6d61737465722072656365fb
:08310000697665203d20000006
:020000040000fa
:1031080090f948305a1e1343426880f8483012f04c
:1031180004031bbf42f010024260c0e90f334ff0b6
:08312800ff3008bf1846704794
:020000040000fa
:103130000fb407b5064b04aa1b6852f8041b1868a5
:10314000019200f034f803b05df804eb04b070476e
:04315000d007002084
:020000040000fa
:10315400064b013053f830203ab9c100a1f10802fe
:103164001a44194443f830204a6070470804002088
:020000040000fa
:1031740038b550b952b10c46012529462046fff70f
:0e31840029fc0028f9d0012000e0002038bd11
:020000040000fa
:1031920038b50d461446012801d0204638bd2146d7
:0c31a2002846fff7f8fc0028f9d0f6e7fb
:020000040000fa
:1031ae0013b50446019201aafdf727fd636813f0db
:0c31be00100f18bf4ff0ff3002b010bd22
:020000040000fa
:1031ca0068076c094c836a9074a07ac0008068888a
:0c31da0000846c820081286e696c290062
:020000040000fa
:1031e60010b4c46a1cb123465df8044b1847006846
:0831f6005df8044bfff7cabfae
:020000040000fa
:1031fe0010b50446fff781ff28b9a368e268c4e959
:08320e0005331344a36210bd57
:020000040000fa
:103216000068002808b501da002008bdfff731ff75
:06322600431cfad1f8e799
:020000040000fa
:10322c0008b500f07df8024b1860586008bd00bf6f
:04323c00c8060020a0
:020000040000fa
:1032400010b500239a4200d110bdcc5cc4540133a8
:02325000f8e79d
:020000040000fa
:10325200034611f8012b184603f8012b002af8d176
:023262007047b3
:020000040000fa
:10326400024b40f204521a80704700bf00400041f4
:020000040000fa
:10327400024b1b68196800f053b800bfd007002048
:020000040000fa
:1032840000294ff480630cbf02220022fff7f2bb37
:020000040000fa
:1032940008b5fff7c9ff00f060f800f05ef808bd5c
:020000040000fa
:1032a40002440346934200d1704703f8011bf9e737
:020000040000fa
:1032b400494e4600696e66004e414e006e616e00d6
:1032c400494e4600696e66004e414e006e616e00c6
:020000040000fa
:1032d40003461a46013311780029fad1101a7047af
:020000040000fa
:0e32e400a0f14103192b98bf40f02000704765
:020000040000fa
:0e32f200a0f16103192b98bf00f05f00704738
:020000040000fa
:0c330000014b18625962704764060020ff
:020000040000fa
:0c330c00014b01221a607047d00600201f
:020000040000fa
:0c33180010b50446fff799ff204610bdd9
:020000040000fa
:0833240008b5fff7b9fc08bd74
:020000040000fa
:08332c0000487047540700201f
:020000040000fa
:0833340083f00043fdf73ebfea
:020000040000fa
:07333c00286e756c6c29007e
:020000040000fa
:063344000068fff724bf42
:020000040000fa
:06334a004ff0ff30704758
:020000040000fa
:0433500000207047a2
:020000040000fa
:04335400704700bfff
:020000040000fa
:04335800002070479a
:020000040000fa
:06335c0070477047704746
:020000040000fa
:0200000400807a
:044000003912003c35
:020000040000fa
:0200000400807a
:044004008000a82a66
:020000040000fa
:0200000400807a
:04400800ffffffffb8
:00000001FF
