:020000040000fa
:10000000f0ff03205103000091060000930600005a
:1000100097060000990600009b0600000000000003
:100020000000000000000000000000008f0600003b
:1000300095060000000000008f0600008f060000fb
:100040008f0600008f0600008f0600008f0600005c
:100050008f0600008f0600008f0600008f0600004c
:100060008f0600008f0600008f0600008f0600003c
:100070008f0600008f0600008f0600008f0600002c
:100080008f0600008f0600008f0600008f0600001c
:100090008f0600008f0600008f0600008f0600000c
:1000a0008f0600008f0600008f0600008f060000fc
:1000b0008f0600008f0600008f0600008f060000ec
:1000c0008f0600008f0600008f0600008f060000dc
:1000d0008f0600008f0600008f0600008f060000cc
:1000e0008f0600008f0600000000000000000000e6
:1000f000000000008f0600008f0600008f06000041
:100100008f0600008f0600008f0600008f0600009b
:100110008f0600008f0600008f0600008f0600008b
:100120008f0600008f0600008f0600008f0600007b
:100130008f0600008f0600008f0600008f0600006b
:100140008f0600008f0600008f0600008f0600005b
:100150008f0600008f060000000000000000000075
:10016000000000000000000000000000000000008f
:1001700000000000000000008f0600008f06000055
:100180008f0600008f0600008f0600008f0600001b
:10019000000000008f0600008f0600008f060000a0
:1001a0008f0600008f0600008f0600008f060000fb
:1001b0008f0600008f0600008f0600008f060000eb
:1001c0008f0600008f0600008f0600008f060000db
:1001d0008f0600008f0600008f0600008f060000cb
:1001e0008f0600008f0600008f060000b505000096
:1001f0008f0600008f0600008f0600008f060000ab
:100200008f06000000000000000000008f060000c4
:100210008f0600008f0600008f0600008f0600008a
:100220008f0600008f0600008f0600008f0600007a
:100230008f0600008f0600008f0600008f0600006a
:100240008f0600008f0600008f0600008f0600005a
:100250008f0600008f0600008f0600008f0600004a
:020000040000fa
:10026000f8b500bff8bc08bc9e4670479905000071
:10027000f8b500bff8bc08bc9e4670477505000085
:020000040000fa
:100280002c4b00221a7403f500632b4a9a621a461b
:10029000536813f0100ffbd1284b4222c3f884207f
:1002a0001a46d2f8843013f0400ffad0244b0022c3
:1002b0009a6377225a631a46d36b13f0040ffbd16b
:1002c0001f4b022283f830201a46d36b13f0020f23
:1002d000fbd11b4a136c03f00303032bfad1194b18
:1002e00001225a711a46d37813f0010ffbd0134b39
:1002f000154a1a621a46536813f0040ffbd10f4bcc
:10030000124a5a621a46536813f0080ffbd10b4b7e
:100310004122c3f8a4201a46d2f8a43013f0400fab
:10032000fad0084b6ff07f421a6144f2ff725a61b3
:10033000704700bf0014004006013000001c004060
:100340000010004000080040070101000701020002
:020000040000fa
:1003500008b5194b9847194b9847eff3108172b6bf
:10036000174ad2f8883043f47003c2f88830bff3dc
:100370004f8fbff36f8f01b962b6124a936823f0b3
:10038000010393601346da6812f0010ffbd10d4ba5
:1003900024225a6001229a6000f076f90a4b23f079
:1003a0007f03074a9360094b9847094b9847094bcd
:1003b000984700f035f9fee79d0600009d06000015
:1003c00000ed00e000600041000000003904000082
:0803d0009d0600009d060000df
:020000040000fa
:1003d80070b5144b144a0021934206d3134a0025e2
:1003e800d2e9003123b919b970bd03f8011bf3e74d
:1003f800946858180c3294b11446834208d111f00d
:10040800030318bf012303eb910102eb8102e7e725
:1004180014f8016b03f8016befe703f8015b834203
:10042800fbd1dde70000002000000020940400005c
:020000040000fa
:100438000e4a38b5002313600d4a0e4c13600e4a5d
:100448000e4d13600e4a13600e4a13600e4a536233
:1004580013610123936000f01ef900f01cf9ac420f
:1004680000d338bd54f8043b9847f8e778000020db
:100478000c0000206c020000080000207002000040
:0c048800000000200400002010000020f4
:020000040000fa
:10049400500000201c000000000000006c00002040
:1004a40008000000000000007400002004000000a8
:1004b40000000000000000205000000000000000c8
:1004c400780000200400000000000000000000008c
:1004d40000000000444444444444444444444444e8
:020000040000fa
:1004e400104bda6822f4e0621204120c42f0bf628c
:1004f40042f40032da60bff35f8f62b60a4ae02149
:1005040082f86b134ff40061d1605a6a42f480227e
:100514005a625a6942f010025a615a6a42f400322d
:0c0524005a62704700ed00e000e100e0ca
:020000040000fa
:100530000e4b01221a601a46136913f0010ffbd10a
:100540000a4b4ff4e2621a6003221a734ef2e14240
:100550009a8333229a72064a0021116001225a724c
:100560001a461369002bfcd1704700bf00380040c9
:040570006c000020fb
:020000040000fa
:1005740010b5054c227832b9044b13b10448aff3db
:1005840000800123237010bd5000002000000000f3
:100594000000000008b5034b1bb103490348aff347
:1005a400008008bd0000000054000020000000008e
:020000040000fa
:1005b40008b5084b5b7a63b1064a937a332191728a
:1005c40003f0ff002bb1044b1b6813b1024a5168be
:0c05d400984708bd003800406c00002073
:020000040000fa
:1005e000064b20229a61064b013bfdd1034b202292
:1005f0005a61034b013bfdd1704700bf00800041b1
:040600008096980048
:020000040000fa
:1006040008b500f031f800f017f8fff737fe00f0f6
:0c0614003bf8fff78bfffff763ff08bd0a
:020000040000fa
:1006200008b50020fff7eeff00f014f800210248a3
:0c06300000f024f8fee700bfe105000028
:020000040000fa
:10063c00044b20221a60022283f84520002283f802
:08064c003220704700800041dc
:020000040000fa
:10065400044a136843f002031360136913f0020f92
:08066400fbd170470038004093
:020000040000fa
:10066c00024b40f204521a80704700bf0040004118
:020000040000fa
:0c067c00014b1860596070476c000020b2
:020000040000fa
:04068800fff7a6be14
:020000040000fa
:02068c007047b5
:020000040000fa
:02068e00fee785
:020000040000fa
:02069000fee783
:020000040000fa
:02069200fee781
:020000040000fa
:02069400fee77f
:020000040000fa
:02069600fee77d
:020000040000fa
:02069800fee77b
:020000040000fa
:02069a00fee779
:020000040000fa
:02069c007047a5
:020000040000fa
:02069e007047a3
:020000040000fa
:0200000400807a
:044000003912003c35
:020000040000fa
:0200000400807a
:044004008000a82a66
:020000040000fa
:0200000400807a
:04400800ffffffffb8
:00000001FF
